:1000000000000120190200000102000003020000AC
:1000100005020000070200000902000000000000C5
:100020000000000000000000000000000B020000C3
:100030000D020000000000000F020000110200008D
:100040001302000013020000B91D0000B1300000CF
:100050001302000013020000B51C000089210000FB
:10006000130200001302000013020000130200003C
:10007000130200001302000013020000130200002C
:1000800013020000493300001302000013020000B5
:10009000130200001302000013020000130200000C
:1000A00013020000130200001302000013020000FC
:1000B0001302000013020000000000000000000016
:1000C00013020000130200001302000013020000DC
:1000D00013020000130200001302000000000000E1
:1000E0000000000000000000000000000000000010
:1000F0000000000000000000000000000000000000
:1001000000000000000000000000000000000000EF
:1001100000000000000000000000000000000000DF
:1001200000000000000000000000000000000000CF
:1001300000000000000000000000000000000000BF
:1001400000000000000000000000000000000000AF
:10015000000000000000000000000000000000009F
:10016000000000000000000000000000000000008F
:10017000000000000000000000000000000000007F
:10018000000000000000000000000000000000006F
:10019000000000000000000000000000000000005F
:1001A000000000000000000000000000000000004F
:1001B000000000000000000000000000000000003F
:1001C000000000000000000000000000000000002F
:1001D000000000000000000000000000000000001F
:1001E000000000000000000000000000000000000F
:1001F00000000000000000000000000000000000FF
:10020000FEE7FEE7FEE7FEE7FEE7FEE7FEE7FEE7C6
:10021000FEE7FEE700F002B8FFF7FCBF0F484FF023
:100220000701884385460E4880470E48016841F41F
:1002300070010160BFF34F8FBFF36F8F00F01AB8EA
:1002400009480A490A4A884207D0521A05D0037859
:1002500001300B700131013AF9D1704700000120E3
:10026000B114000088ED00E0DC5D0000000000201B
:100270000000002039493A480A1A02D00722914367
:100280008D46384938480A1A06D00722914381F32F
:100290000988022282F3148834483549354A00F02F
:1002A0003EF835483549364A00F039F83548364980
:1002B000364A00F034F836483649374A00F02FF80D
:1002C00036483749374A00F02AF837483749384A1C
:1002D00000F025F837483849384A00F020F8384807
:1002E0003849002200F033F837483849002200F03E
:1002F0002EF837483749091A05F07EFC364A9047F0
:1003000024482549884205D00268043003B4904748
:1003100003BCF7E700200021304A9047FEE78842FF
:1003200014D0521A12D003460B4313430324234222
:1003300006D1036804300B600431043AF9D17047E8
:10034000037801300B700131013AF9D170478842CE
:1003500002D002700130FAE770470000000001206F
:1003600000E0002000000120000001204471000096
:100370000000002060000020E0030000E003000017
:10038000685D0000447100000000002000000020B3
:10039000DC5D0000DC5D0000DC5D0000DC5D000079
:1003A000DC5D0000DC5D0000DC5D0000DC5D000069
:1003B00041710000A4710000600000206000002076
:1003C00060000020DC0B0020DC0B0020DC0B002098
:1003D000DC0B0020DC2B002041020000C1090000E2
:1003E00000B585B00190019B002B0AD0074B43F06C
:1003F00001030393019B9B010293039B029898477F
:1004000000E000BF05B05DF804FB00BF505F0000D6
:1004100000B583B00190019B0433184602F052FCF2
:1004200000BF03B05DF804FB00B58FB003900291EC
:10043000009313468DF8073000230D93029B099318
:100440009DF807300A93009B0B939DF840300C9366
:10045000039B043309A90022184602F081FD0D9088
:100460000D9B18460FB05DF804FB000000B583B08B
:100470000190019B1B68184600F0D2F80346002B40
:1004800004D105494FF4F67002F06CFF4FF0A04321
:10049000184603B05DF804FBDC5D000000B585B0D4
:1004A0000190084611461A4603468DF803300B4664
:1004B0008DF8023013468DF8013001AB1846FFF776
:1004C000D5FF03909DF803209DF802305B001A438E
:1004D0009DF801309B001A439DF818301B0242EA38
:1004E00003019DF81C301B04019A1943039B02F57C
:1004F000E07243F8221000BF05B05DF804FB00B5C0
:1005000085B0039000230193002300930023012270
:1005100001210398FFF7C2FF00BF05B05DF804FB9F
:1005200000B585B003900B468DF80B309DF80B306D
:100530000022019200220092002200210398FFF77E
:10054000ADFF00BF05B05DF804FB00B585B00190BC
:1005500001AB1846FFF78AFF0390019B012202FAC4
:1005600003F31946039800F047F800BF05B05DF8A3
:1005700004FB00B585B0019001AB1846FFF776FF8C
:100580000390019B012202FA03F31946039800F03D
:100590003DF800BF05B05DF804FB00B583B00190E5
:1005A0000091009B002B03D10198FFF7E2FF02E0CE
:1005B0000198FFF7CAFF00BF03B05DF804FB00B568
:1005C00085B0019001AB1846FFF750FF03900398E8
:1005D00000F00AF80246019B22FA03F303F001033C
:1005E000184605B05DF804FB82B00190019BD3F87A
:1005F0001035184602B0704782B001900091019BFF
:10060000009AC3F8082500BF02B0704782B001907D
:100610000091019B009AC3F80C2500BF02B07047FF
:1006200084B00190019B5B09029300230393029B1A
:10063000002B03D14FF0FF33039300BF019B03F066
:100640001F030193039A019B22FA03F303F00103B2
:10065000DBB2184604B0704700B583B00190019B2F
:10066000002B0AD04FF47A70FFF7BAFE019B013BD2
:100670000193019B002BF5D100E000BF03B05DF8B2
:1006800004FB000000B583B001900091019B002B9A
:1006900001D1054B01930099019801F0A1FE034699
:1006A000184603B05DF804FB585F000082B001906B
:1006B0000091034B01221A7000BF02B0704700BFC7
:1006C0006000002000B585B04FF0FF330293042096
:1006D000FFF74FFF0A20FFF783FE1B4B00221A7023
:1006E00002A900230093002304221848FFF79CFE70
:1006F0000390039B002B06D0154A7121039802F04A
:100700002FFD00E020BF104B1B78DBB283F001030C
:10071000DBB2002BF6D10A20FFF762FE0420FFF7C0
:1007200014FF0120FFF798FF0A4A0B4BD31ADB088E
:100730001B0443F003030949184604F0E5F900BF20
:1007400005B05DF804FB00BF600000203C5F0000C6
:100750000C5E0000985D0000685D0000685E0000AF
:1007600000B589B038238DF8103003AB00210A465C
:100770001A800A469A7002AB00210A461A800A467D
:100780009A700420FFF7F5FE0A20FFF729FE2C4B94
:1007900000221A7004A90023009300230122294893
:1007A000FFF742FE0790079B002B06D0264A8B21BD
:1007B000079802F0D5FC00E020BF214B1B78DBB28C
:1007C00083F00103DBB2002BF6D10A20FFF708FE0D
:1007D00000BF1C20FFF7F3FE0346012BF9D0184B96
:1007E00000221A7003AB02A90322009203221548CB
:1007F000FFF71AFE0690069B002B06D0124A97219F
:10080000069802F0ADFC00E020BF0D4B1B78DBB278
:1008100083F00103DBB2002BF6D10420FFF795FE35
:100820009DF80C301A049DF80D301B0213439DF8FF
:100830000E2013430593059B184609B05DF804FB91
:10084000600000203C5F00000C5E00000000000023
:1008500000B585B00190019805F0C0F94FF0000295
:10086000134B05F0C7F802460B46CDE902234FF0C3
:100870000002104BDDE9020105F020F802460B46AC
:100880001046194608A3D3E9002305F01BF80246D9
:100890000B4643EC172BB0EE470AF0EE670A05B0A3
:1008A0005DF804FBAFF30080333333333333074059
:1008B000000060410000F03F00B587B003900B4698
:1008C0008DF80B300620FFF754FE134B00221A70F0
:1008D0009DF80B2000230093002303990F48FFF796
:1008E000A3FD0590059B002B06D00D4AB521059868
:1008F00002F036FC00E020BF074B1B78DBB283F030
:100900000103DBB2002BF6D10620FFF71EFE00BF6D
:1009100007B05DF804FB00BF600000203C5F0000F2
:100920000C5E000082B0019000BF02B07047000072
:1009300000B587B013490020FFF7A4FE0590059B82
:100940000493049B002B04D00F4AC721049802F0A3
:1009500007FC0E4A6B4607CA03C31A706B4619465A
:10096000002001F0ADFD0590059B0393039B002B38
:1009700004D0054ACB21039802F0F2FB00BF07B078
:100980005DF804FB250900000C5E0000785E0000A5
:1009900000B583B04FF48041002003F0EBFD0190DF
:1009A000019B002B04D0054AD421019802F0D8FB0A
:1009B00003F076FD00BF03B05DF804FB0C5E0000A1
:1009C00010B590B0012000F0D3FAFFF7E1FF9D4A87
:1009D0009D4BD31ADB081B0443F003039B491846C5
:1009E00004F092F89A4B03AC0FCB84E80F000B2372
:1009F0008DF80D301C238DF80E3007238DF80C3048
:100A0000FF238DF80F304FF08063059302238DF89C
:100A1000183000238DF8193003A900238D4A8E4821
:100A200000F0E0FE0C900C9B002B04D08B4AE721D9
:100A30000C9802F095FB834A834BD31ADB081B0406
:100A400043F003038649184604F05EF81220FFF7CE
:100A500056FD0320FFF753FD0A20FFF750FD052048
:100A6000FFF74DFD0820FFF74AFD0420FFF747FD83
:100A70000620FFF744FD0420FFF767FD0620FFF77F
:100A800064FD03211C20FFF74BFD6E4A6E4BD31A09
:100A9000DB081B0443F003037249184604F034F8E2
:100AA000FFF746FF674A684BD31ADB081B0443F085
:100AB00003036D49184604F027F8032319466B48D1
:100AC000FFF7FAFE5F4A604BD31ADB081B0443F0C2
:100AD00003036749184604F017F85F48FFF798FCCE
:100AE00003238DF8183003A900235A4A5A4800F00E
:100AF00079FE0B900B9B002B05D0584A40F2071152
:100B00000B9802F02DFB4F4A4F4BD31ADB081B0406
:100B100043F003035749184603F0F6FFFFF7D2FDF1
:100B200000230293002000F0D5F901230F93032343
:100B30000E931FE002AA0E9B13441B781A460F9BCC
:100B400013440793079B002B03F00103B8BF5B42DC
:100B5000002B14BF01230023D9B202AA0E9B134419
:100B60000A461A70079BDA0F13445B100F930E9B13
:100B7000013B0E930E9B002BDCDA9DF808301946E2
:100B80000520FFF70AFD9DF8093019460A20FFF7F6
:100B900004FD9DF80A3019460320FFF7FEFC9DF87E
:100BA0000B3019461220FFF7F8FC01210820FFF74F
:100BB000F4FC00230D9310E002AA0D9B13441B7854
:100BC000002B01D0312100E030216A460D9B1344F7
:100BD0000A461A700D9B01330D930D9B032BEBDD21
:100BE00000238DF804304FF4FA70FFF735FDFFF75E
:100BF000B7FD0A900A98FFF72BFE8DED080B114AFE
:100C0000114BD31ADB081B0443F00304DDE9080190
:100C100004F0D2FF03461A461749204603F082FF2C
:100C2000084A094BD31ADB081B0443F003006A4649
:100C30000A9B124903F087FF03F0C2FF0346002B13
:100C4000FAD16FE7985D0000685D0000845E0000E7
:100C50002C5F0000AD0600003C5F00000C5E000051
:100C60009C5E0000B05E0000C45E0000000000203A
:100C7000D85E0000E85E0000005F0000245F000016
:100C800000B583B00190019B1B68184600F0D7F8AF
:100C90000346002B04D105494FF4F67002F062FBC5
:100CA0004FF0A043184603B05DF804FB5C5F000002
:100CB00000B585B00190084611461A4603468DF8E6
:100CC00003300B468DF8023013468DF8013001AB2E
:100CD0001846FFF7D5FF03909DF803209DF80230DA
:100CE0005B001A439DF801309B001A439DF81830B1
:100CF0001B0242EA03019DF81C301B04019A1943B0
:100D0000039B02F5E07243F8221000BF05B05DF8C6
:100D100004FB00B585B003900023019300230093EA
:100D20000023012201210398FFF7C2FF00BF05B095
:100D30005DF804FB00B585B003900B468DF80B30D1
:100D40009DF80B3000220192002200920022002127
:100D50000398FFF7ADFF00BF05B05DF804FB00B5D9
:100D600085B0019001AB1846FFF78AFF0390019B05
:100D7000012202FA03F31946039800F04CF800BF71
:100D800005B05DF804FB00B585B0019001AB1846D5
:100D9000FFF776FF0390019B012202FA03F3194645
:100DA000039800F042F800BF05B05DF804FB00B501
:100DB00085B0019001AB1846FFF762FF0390039BDB
:100DC000D3F804350293029BDA43019B012101FA17
:100DD00003F31A40039BC3F80825019B01229A40A4
:100DE000029B1A40039BC3F80C2500BF05B05DF8B9
:100DF00004FB00B583B001900091009B002B03D150
:100E00000198FFF7C0FF02E00198FFF7A8FF00BFBD
:100E100003B05DF804FB82B001900091019B009A41
:100E2000C3F8082500BF02B0704782B0019000915E
:100E3000019B009AC3F80C2500BF02B0704784B034
:100E40000190019B5B09029300230393029B002BFB
:100E500003D14FF0FF33039300BF019B03F01F0347
:100E60000193039A019B22FA03F303F00103DBB21F
:100E7000184604B07047000000B583B00190019B94
:100E8000032B03D90749472002F06CFA064A019B5D
:100E900013441B7801211846FFF7ABFF00BF03B0D6
:100EA0005DF804FB8C5F0000E45F000000B583B0D8
:100EB0000023019305E00198FFF7DEFF019B01335A
:100EC0000193019B032BF6D900BF00BF03B05DF86F
:100ED00004FB000000B583B00190019B032B03D9F4
:100EE00007495F2002F03EFA064A019B13441B7833
:100EF0001846FFF75CFF00BF03B05DF804FB00BFBE
:100F00008C5F0000E45F000000B583B00023019314
:100F100009E0094A019B13441B781846FFF7F9FEC4
:100F2000019B01330193019B032BF2D9FFF7BEFF15
:100F300000BF03B05DF804FBE45F000000B583B0C0
:100F4000002301930AE0094A019B13441B78032103
:100F50001846FFF7EFFE019B01330193019B032B22
:100F6000F1D900BF00BF03B05DF804FBE85F0000EB
:100F700000B583B00190019B03F00103002B01D069
:100F8000FFF7C2FF019B03F00203002B01D0FFF724
:100F9000D5FF00BF03B05DF804FB0000BFF34F8F27
:100FA00000BF064BDB6803F4E0620449044B1343C3
:100FB000CB60BFF34F8F00BF00BFFDE700ED00E047
:100FC0000400FA0582B01B4B1B68B3F1FF3F0AD146
:100FD000194B1B68DBB20193184B1B681B0903F00C
:100FE0000F03009305E0134B1B680193144B1B6820
:100FF0000093019B062B19D1009B033B032B13D8B5
:1010000001A252F823F000BF191000001D100000CB
:101010002110000025100000012308E0012306E054
:10102000012304E0012302E0012300E0002318462D
:1010300002B0704730010010E00F00F0E80F00F040
:101040003401001082B0154B1B68DBB20193144BC6
:101050001B681B0903F00F030093019B062B19D19A
:10106000009B033B032B13D801A252F823F000BFCF
:101070008110000085100000891000008D10000014
:10108000012308E0002306E0002304E0002302E03F
:10109000002300E00023184602B07047E00F00F084
:1010A000E80F00F082B01B4B1B68B3F1FF3F0AD181
:1010B000194B1B68DBB20193184B1B681B0903F02B
:1010C0000F03009305E0134B1B680193144B1B683F
:1010D0000093019B062B19D1009B033B032B13D8D4
:1010E00001A252F823F000BFF9100000FD1000002B
:1010F0000111000005110000012308E0012306E0B2
:10110000012304E0012302E0012300E0002318464C
:1011100002B0704730010010E00F00F0E80F00F05F
:101120003401001082B0154B1B68DBB20193144BE5
:101130001B681B0903F00F030093019B062B19D1B9
:10114000009B033B032B13D801A252F823F000BFEE
:101150006111000065110000691100006D110000AF
:10116000012308E0002306E0002304E0002302E05E
:10117000002300E00023184602B07047E00F00F0A3
:10118000E80F00F082B01B4B1B68B3F1FF3F0AD1A0
:10119000194B1B68DBB20193184B1B681B0903F04A
:1011A0000F03009305E0134B1B680193144B1B685E
:1011B0000093019B062B19D1009B033B032B13D8F3
:1011C00001A252F823F000BFD9110000DD11000088
:1011D000E1110000E5110000012308E0012306E011
:1011E000012304E0012302E0012300E0002318466C
:1011F00002B0704730010010E00F00F0E80F00F07F
:101200003401001082B0154B1B68DBB20193144B04
:101210001B681B0903F00F030093019B062B19D1D8
:10122000009B033B032B13D801A252F823F000BF0D
:101230004112000045120000491200004D1200004A
:10124000012308E0002306E0002304E0002302E07D
:10125000002300E00023184602B07047E00F00F0C2
:10126000E80F00F082B0154B1B68DBB20193144B02
:101270001B681B0903F00F030093019B062B19D178
:10128000009B033B032B13D801A252F823F000BFAD
:10129000A1120000A5120000A9120000AD1200006A
:1012A000012308E0002306E0002304E0002302E01D
:1012B000002300E00023184602B07047E00F00F062
:1012C000E80F00F082B01B4B1B68B3F1FF3F0AD15F
:1012D000194B1B68DBB20193184B1B681B0903F009
:1012E0000F03009305E0134B1B680193144B1B681D
:1012F0000093019B062B19D1009B033B032B13D8B2
:1013000001A252F823F000BF191300001D130000C2
:101310002113000025130000002308E0002306E04D
:10132000012304E0012302E0012300E0002318462A
:1013300002B0704730010010E00F00F0E80F00F03D
:101340003401001082B01B4B1B68B3F1FF3F0AD180
:10135000194B1B68DBB20193184B1B681B0903F088
:101360000F03009305E0134B1B680193144B1B689C
:101370000093019B062B19D1009B033B032B13D831
:1013800001A252F823F000BF991300009D13000042
:10139000A1130000A5130000012308E0012306E0CB
:1013A000012304E0012302E0012300E000231846AA
:1013B00002B0704730010010E00F00F0E80F00F0BD
:1013C0003401001082B01B4B1B68B3F1FF3F0AD100
:1013D000194B1B68DBB20193184B1B681B0903F008
:1013E0000F03009305E0134B1B680193144B1B681C
:1013F0000093019B062B19D1009B033B032B13D8B1
:1014000001A252F823F000BF191400001D140000BF
:101410002114000025140000012308E0012306E048
:10142000012304E0012302E0012300E00023184629
:1014300002B0704730010010E00F00F0E80F00F03C
:101440003401001082B0134B1B680193124B1B68D0
:101450000093019B062B19D1009B033B032B13D850
:1014600001A252F823F000BF791400007D1400009F
:101470008114000085140000002308E0002306E02A
:10148000002304E0012302E0012300E000231846CA
:1014900002B070473001001034010010024B034AC3
:1014A0001A6000BF704700BF040000200090D00306
:1014B00008B5FFF787FD0346002B06D0A04B1B683D
:1014C0001B0AA04A03F01F031360FFF7BBFD03468E
:1014D000002B02D09C4B9D4A1A60FFF7E3FD0346A8
:1014E000002B06D09A4B1B685B0B9A4A03F007034C
:1014F0001360FFF717FE0346002B05D0964BDB6801
:10150000954A23F08073D360FFF73CFE0346002B1F
:101510000ED04FF080430022C3F80C214FF08043DF
:101520000022C3F810214FF080430022C3F8382571
:10153000FFF768FE0346002B02D0884B03221A6097
:10154000FFF790FE0346002B0BD0854B05221A6057
:10155000844B01221A60844B00221A60834B3F2285
:101560001A60FFF7AFFE0346002B76D04FF0805392
:101570007F4AD3F80434C2F820354FF080537C4AB8
:10158000D3F80834C2F824354FF08053784AD3F8A2
:101590000C34C2F828354FF08053754AD3F8103414
:1015A000C2F82C354FF08053714AD3F81434C2F886
:1015B00030354FF080536E4AD3F81834C2F83435C2
:1015C0004FF080536A4AD3F81C34C2F840354FF0CC
:1015D0008053674AD3F82034C2F844354FF0805323
:1015E000634AD3F82434C2F848354FF08053604A38
:1015F000D3F82834C2F84C354FF080535C4AD3F806
:101600002C34C2F850354FF08053594AD3F8303457
:10161000C2F854354FF08053554AD3F83434C2F8E9
:1016200060354FF08053524AD3F83834C2F86435ED
:101630004FF080534E4AD3F83C34C2F868354FF02F
:1016400080534B4AD3F84034C2F86C354FF0805386
:10165000474AD3F84434C2F87035FFF773FE0346A7
:10166000002B05D0434B1B68434A03F04F03136024
:10167000FFF7A8FE0346002B0DD04FF08043D3F8B0
:10168000003403F00103002B05D04FF080436FF0CE
:101690000102C3F80024FFF7D5FE0346002B05D056
:1016A000364B1B68354A43F480631360344BD3F8E0
:1016B0008830334A43F47003C2F88830BFF34F8F49
:1016C00000BFBFF36F8F00BF4FF01023D3F800327D
:1016D000002B05DB4FF01023D3F80432002B2BDA5C
:1016E000284B0122C3F8042500BF264BD3F8003451
:1016F000002BFAD04FF010231522C3F8002200BFB0
:10170000204BD3F80034002BFAD04FF010231522D1
:10171000C3F8042200BF1B4BD3F80034002BFAD0CF
:10172000184B0022C3F8042500BF164BD3F8003431
:10173000002BFAD0FFF732FCFFF7B0FE00BF08BD68
:10174000240300104035014074C007400DF0ADBACD
:10175000440200103C050040F0ED00E0A005004010
:10176000105600408856004018560040145600405D
:1017700000C0004058020010E40E00403C1700403A
:1017800000ED00E000E0014000B589B0019000915B
:10179000009B0793019B1B788DF80830019B5B68C9
:1017A0000393019B9B68DBB28DF81030019BDB68D3
:1017B0000593019B1B69DBB28DF81830074A079B24
:1017C00052F823300649079A51F8221002AA10460F
:1017D000984700BF09B05DF804FB00BF640000201B
:1017E0007000002010B58AB003900291019200931E
:1017F000039B1B7809932249099B019A41F82320F6
:101800002049099B009A41F82320002308931E4B8E
:1018100004AC0FCB84E80F00029B1B788DF81030CE
:10182000029B5B788DF81130029B9B788DF812300B
:10183000029BDB788DF81330029B1B798DF81530F5
:10184000029B5B798DF81630029B9B680693029B86
:101850001B7B8DF81C30029B5B7B8DF81D30039B3E
:10186000181D019B002B01D0084A00E00022099BB3
:1018700004A901F03FF90890089B18460AB010BD72
:101880006400002070000020EC5F00008917000059
:1018900000B583B00346ADF80630BDF806301846F3
:1018A00000F026F803461B68012B0CBF0123002320
:1018B000DBB2184603B05DF804FB00B585B0034603
:1018C000ADF80630BDF80630184600F011F80346B2
:1018D0001A4600231360BDF80630184600F008F8D9
:1018E00003461B680393039B00BF05B05DF804FB30
:1018F00082B00346ADF80630BDF8063003F18043F0
:1019000003F5C043184602B07047000082B0019052
:10191000034BD3F80423019B1340184602B07047D1
:101920000060004082B00190054A019B03F5A2735C
:1019300052F823301B0A03F01F03184602B0704709
:101940000060004082B00190064A019B03F5A2733B
:1019500052F823301B0C03F00303DBB2184602B02D
:10196000704700BF0060004000B583B00190019B4C
:101970001B68184600F095F80346002B04D1054972
:101980004FF4F67001F0EEFC4FF0A043184603B0A0
:101990005DF804FB2C60000000B585B001900B469B
:1019A0008DF8033001AB1846FFF7DEFF0390019A74
:1019B000039B02F5E07253F82230019A23F4403180
:1019C000039B02F5E07243F82210019A039B02F593
:1019D000E07253F822109DF803301B04019A19435A
:1019E000039B02F5E07243F8221000BF05B05DF8DA
:1019F00004FB00B585B0019001AB1846FFF7B4FFBA
:101A00000390019A039B02F5E07253F822301B0CFD
:101A100003F00303DBB2184605B05DF804FB86B0A3
:101A20000390029101924FF0A0430493039B05930E
:101A300019E0059B9B0018336B4453F8083CD3F81E
:101A40002025019B1A60059B9B0018336B4453F8BB
:101A5000083C019A1268C3F82025019B04330193C6
:101A6000059B01330593039A029B1344059A9A42FE
:101A7000DFD300BF00BF06B0704700B585B001904E
:101A800001AB1846FFF770FF0390019B012202FA99
:101A900003F31A46039BC3F8202500BF05B05DF889
:101AA00004FB84B00190019B5B0902930023039324
:101AB000029B002B03D14FF0FF33039300BF019B28
:101AC00003F01F030193039A019B22FA03F303F02F
:101AD0000103DBB2184604B0704784B00190009156
:101AE000009B0393019BDB080293019B03F0070318
:101AF00001930122019B02FA03F30399029A0A441B
:101B000012781340184604B07047000082B001906C
:101B1000044A019B1344303393F90030184602B055
:101B2000704700BF7C00002082B00190034A019BF7
:101B300052F82330184602B0704700BF7C000020E6
:101B400084B00190074A019B1344503393F900304D
:101B50008DF80F309DF80F3023F0C003184604B005
:101B6000704700BF7C00002084B00190074A019BB1
:101B70001344503393F900308DF80F309DF80F3037
:101B80009B09DBB2184604B0704700BF7C00002000
:101B900000B585B00190019A01210020FFF73FFFB9
:101BA000002303930BE0039B9B00019A13441B68E3
:101BB000002B01D0012306E0039B01330393039B19
:101BC000002BF0D00023184605B05DF804FB0000A0
:101BD00000B587B00190002305935BE0344A059B74
:101BE0001344503393F90030B3F1FF3F4ED00598C2
:101BF000FFF7A6FF049001990498FFF76EFF0346D4
:101C0000002B44D00598FFF7AFFF03468DF80F3047
:101C10000498FFF7EEFE03468DF80E309DF80E3067
:101C2000022B01D1032300E002238DF80D309DF833
:101C30000D3019460498FFF7AFFE0498FFF71DFF1B
:101C40000498FFF763FF03461846FFF76DFF029005
:101C5000029B002B1BD09DF80F30032B0FD09DF85B
:101C60000E30022B03D19DF80F30012B07D09DF8C9
:101C70000E30032B0BD19DF80F30022B07D19DF8AE
:101C80000F20029B11460498984700E000BF059B77
:101C900001330593059B032BA0D90198FFF778FF2B
:101CA0000346002B97D100BF00BF07B05DF804FBCF
:101CB0007C00002000B589B0002306930023009328
:101CC0004FF48073ADF8123001230793002305937E
:101CD00021E0BDF812301846FFF7DAFD0346002B6D
:101CE0000ED00798FFF712FE0346002B08D0BDF870
:101CF00012301846FFF7E1FD069A079B134306933F
:101D0000079B5B000793BDF812300433ADF8123027
:101D1000059B01330593059B072BDAD94FF4BE7061
:101D2000FFF7B6FD0346002B0DD04FF4BE70FFF752
:101D3000C4FD069B43F0004306936B461A460121FF
:101D40000020FFF76CFE069BDBB2002B29D001239D
:101D500007930023059321E0079A069B1340002B6D
:101D600016D00598FFF7DEFD03900598FFF7EAFD12
:101D700003468DF80B300598FFF7D6FE0190019BC6
:101D8000002B05D09DF80B20019B11460398984726
:101D9000079B5B000793059B01330593059B072B6E
:101DA000DAD9069B002B03DA6B461846FFF710FFC3
:101DB00000BF09B05DF804FB08B5064B1B68002B9B
:101DC00003D10549512001F0CDFA024B1B68984719
:101DD00008BD00BFD8000020CC60000082B0019098
:101DE000019B044A934201D1034B00E000231846B3
:101DF00002B0704700200040D800002000B587B036
:101E000001900091019B002B03D11849772001F02C
:101E1000A9FA0198FFF7E2FF0590059B002B1ED061
:101E200000238DF81330002001F046FA059B1B7942
:101E3000002B03D001238DF8133005E0059B009A99
:101E40001A60059B01221A71002001F049FA9DF8E1
:101E50001330002B03D011230393039B02E00023D4
:101E60000393039B184607B05DF804FBCC600000A9
:101E700000B585B00190019B002B03D10A499B203E
:101E800001F070FA0198FFF7A9FF0390039B002B64
:101E900005D0039B00221A60039B00221A7100BF29
:101EA00005B05DF804FB00BFCC60000082B00346C3
:101EB0008DF807309DF90730002B0CDB9DF80730BB
:101EC00003F01F0205499DF907305B09012000FA64
:101ED00002F241F8232000BF02B0704700E100E0A9
:101EE00082B0034600918DF807309DF90730002B32
:101EF0000ADB009BDAB20C499DF907305201D2B2DD
:101F00000B4483F800230BE0009BDAB207499DF8ED
:101F1000073003F00F03043B5201D2B20B441A7690
:101F200000BF02B0704700BF00E100E000ED00E03C
:101F300000B583B003460A468DF8073013468DF886
:101F400006309DF80630072B03D908496B2001F0B5
:101F500009FA9DF806209DF9073011461846FFF74B
:101F6000BFFF00BF03B05DF804FB00BF306100009D
:101F700000B583B003468DF807309DF90730184649
:101F8000FFF794FF00BF03B05DF804FB82B0034687
:101F90008DF807309DF8073003F1804303F5E043E7
:101FA00001221A6000BF02B0704782B00346ADF84C
:101FB0000630BDF8063003F1804303F5E0431B68AB
:101FC000002B14BF01230023DBB2184602B0704778
:101FD00084B00346ADF80630BDF8063003F1804307
:101FE00003F5E04300221A60BDF8063003F1804398
:101FF00003F5E0431B680393039B00BF04B07047E5
:1020000082B003468DF807300B468DF80630134634
:102010008DF805300A499DF807309DF805205133A9
:102020001B010B4404331A6005499DF807309DF8E5
:10203000062051331B010B441A6000BF02B07047E9
:102040000070004082B00190034A019BC2F8043343
:1020500000BF02B0704700BF0070004082B0019026
:10206000034A019BC2F8083300BF02B0704700BFAB
:1020700000700040024B0122C3F8002500BF7047EA
:1020800000700040024B0022C3F8002500BF7047DB
:102090000070004082B001900091054A019BC2F897
:1020A0002C36034A009BC2F8303600BF02B070479E
:1020B0000070004082B003468DF80730034A9DF857
:1020C0000730C2F8F03500BF02B070470070004022
:1020D00082B003468DF80730034A9DF80730C2F8F6
:1020E000F43500BF02B0704700700040024BD3F8D7
:1020F000F435DBB2184670470070004000B583B07D
:10210000034600918DF80730009B1B7803F0030213
:10211000009B5B781B0103F030031A43009B9B7804
:102120001B0203F4E0631A43009BDB781B0303F4F8
:1021300080531A43009B1B791B0403F4E0231A43CA
:10214000009B5B791B0503F4801342EA0301009BAB
:102150009B791B0603F080720A489DF807300A43FA
:102160001B01034403F5A3631A60009BD979009B0C
:102170001A7A9DF807301846FFF742FF00BF03B0F8
:102180005DF804FB0070004000B58FB04FF4827022
:10219000FFF70BFF0346002B46D04FF48270FFF78A
:1021A00017FF8E4B93F82E3083F00103DBB2002B28
:1021B00004D18A4B93F82F30002B35D000238DF8B3
:1021C0001C30864B5B680893844B1B899BB2ADF82F
:1021D0002430824BDB68002B03D1804B00221A7421
:1021E00019E07E4B1A8B7D4B5A837C4BDB687B4A14
:1021F00053607A4B1A8B794B1A81784B0022DA6044
:10220000764B93F82E3083F00103DBB2002B02D023
:102210000020FFF7BBFE714B1B6807AA10469847CA
:102220006E4B002283F82F206C4B93F82E30002B3E
:102230005ED04FF48070FFF7B8FE0346002B57D0F6
:102240004FF48070FFF7C4FE644B5B8B634A92F8D7
:102250002D2093421BD9614B5B8B604A92F82D2055
:102260009B1A9AB25D4B5A835C4B5A685B4B1B8935
:102270009BB21946594B5B8BCB1A5B001344574AF0
:1022800092F82D2011461846FFF704FF29E0534B22
:102290005B8B524A92F82D20934214D14F4BDB684E
:1022A000002B10D04D4B012283F82F204B4B0022E6
:1022B0005A834A4BDB68494A92F82D20114618464A
:1022C000FFF7E8FE0DE0454B5B8B444A92F82D206A
:1022D000934206D1414B012283F82F203F4B00222D
:1022E0005A834FF48270FFF773FE0420FFF74EFE0F
:1022F0004FF48870FFF759FE0346002B0ED04FF4C1
:102300008870FFF765FE354B00221A7402238DF8A2
:102310001030324B1B6804AA104698474FF48A705D
:10232000FFF743FE0346002B07D04FF48A70FFF7F8
:102330004FFE2A4B00221A744CE0284B5B690D9328
:1023400045E00D9B0A930A9B002B01D1202303E05B
:102350000A9BB3FA83F3DBB20C934FF000420C9B61
:1023600022FA03F3DB430D9A13400D930C9B9BB2AF
:1023700046339BB29B00ADF82E30BDF82E30184688
:10238000FFF713FE0346002B21D0BDF82E30184670
:10239000FFF71EFE01238DF80430BDF82E30A3F5A3
:1023A0008C73DB08DBB28DF80830BDF82E30A3F556
:1023B0008C7303F00403002B0CBF01230023DBB25A
:1023C0008DF80930054B1B6801AA104698470D9BF4
:1023D000002BB6D100BF0FB05DF804FBE000002079
:1023E00000B585B001900091019B002B03D13249CB
:1023F000D82000F0B7FF009B002B03D12E49D92035
:1024000000F0B0FF2D4B93F82C30002B03D00823A5
:102410000393039B4CE0294A009B1360019B1B78AC
:102420001846FFF747FE019B5B781846FFF750FE02
:10243000019BDA78214B83F82E20204B012283F870
:102440002C201E4B00221A741C4B002283F82D20D6
:102450001A4B00225A61194B002283F82F206FF08B
:102460000040FFF7FBFD4FF48270FFF7B1FD4FF422
:102470008070FFF7ADFD4FF48A70FFF7A9FD019B57
:102480009B7819460720FFF753FD0720FFF770FDE3
:102490000220FFF7D7FD094B93F82E30002B02D016
:1024A0000120FFF7CFFDFFF7E5FD00230393039B1A
:1024B000184605B05DF804FB98610000E0000020BC
:1024C00000B585B0034600918DF80730434B93F873
:1024D0002C30002B04D1424940F2251000F042FF7D
:1024E0009DF80730072B04D93D494FF4937000F055
:1024F00039FFFFF7FBFD0346002B09D0374B93F85C
:102500002D30002B04D036494FF4947000F02AFF90
:10251000009BDB79092B03D8009BDB79002B04D1CE
:102520002F494FF4987000F01DFF009B1B7A092B78
:1025300004D92B494FF4997000F014FF274B1B7CF2
:10254000DBB2002B03D011230393039B41E0009BDC
:102550001B79002B03D0009B1B79012B01D1FFF7C6
:1025600091FD9DF807301D4A0C335B0013441B7925
:10257000002B07D1194B93F82D300133DAB2174BEA
:1025800083F82D209DF80730009AD179134A0C3337
:102590005B0013440A461A719DF80730009A117ABD
:1025A0000E4A0C335B0013440A465A719DF80730FB
:1025B00000991846FFF7A2FD009B1B79002B03D062
:1025C000009B1B79012B01D1FFF754FD00230393DE
:1025D000039B184605B05DF804FB00BFE000002037
:1025E0009861000082B003468DF807309DF90730EE
:1025F000002B0CDB9DF8073003F01F0205499DF905
:1026000007305B09012000FA02F241F8232000BFE5
:1026100002B0704700E100E082B003468DF8073059
:102620009DF90730002B13DB9DF8073003F01F02E4
:1026300009499DF907305B09012000FA02F22033B5
:1026400041F82320BFF34F8F00BFBFF36F8F00BF50
:1026500000BF02B0704700BF00E100E082B0034657
:1026600000918DF807309DF90730002B0ADB009BA5
:10267000DAB20C499DF907305201D2B20B4483F80B
:1026800000230BE0009BDAB207499DF8073003F006
:102690000F03043B5201D2B20B441A7600BF02B0C2
:1026A000704700BF00E100E000ED00E082B0019063
:1026B000019B03F06043B3F1005F0CBF01230023D3
:1026C000DBB2184602B0704782B00190019B1B0B31
:1026D0005BB2184602B0704700B583B003460A46A5
:1026E0008DF8073013468DF806309DF80630072B1D
:1026F00003D908496B2000F035FE9DF806209DF9AE
:10270000073011461846FFF7A9FF00BF03B05DF878
:1027100004FB00BFFC61000000B583B003468DF8E8
:1027200007309DF907301846FFF75CFF00BF03B084
:102730005DF804FB00B583B003468DF807309DF9C2
:1027400007301846FFF768FF00BF03B05DF804FBD1
:1027500082B001900B468DF803309DF80330019A4A
:10276000134401221A6000BF02B0704784B0019088
:102770000B46ADF80230BDF80230019A1344002236
:102780001A60BDF80230019A13441B680393039B3F
:1027900000BF04B0704782B001900B46ADF8023024
:1027A000BDF80230019A13441B68002B14BF0123AB
:1027B0000023DBB2184602B0704782B0019000914E
:1027C000019B009AC3F8042300BF02B0704782B097
:1027D00001900091019B009AC3F8082300BF02B04A
:1027E000704782B00190019B0722C3F8002500BF0B
:1027F00002B0704782B00190019B0022C3F800250F
:1028000000BF02B0704784B0039002910192009320
:10281000039B029AC3F80825039B019AC3F80C2571
:10282000039B009AC3F8102500BF04B0704782B024
:1028300001900091009A019BC3F8242500BF02B0CB
:10284000704784B0039002910192029A039BC3F8EF
:102850004425039B019AC3F8482500BF04B0704784
:1028600084B0039002910192029A039BC3F834252D
:10287000039B019AC3F8382500BF04B0704784B0A9
:1028800001900B468DF8033013468DF802309DF809
:102890000230002B14BF01230023DBB203939DF809
:1028A0000330032B10D0032B13DC012B02D0022B9F
:1028B00005D00EE0039B43F0020303930AE0039B61
:1028C00043F00403039305E0039B43F006030393E3
:1028D00000E000BF019B039AC3F8542500BF04B079
:1028E000704782B001900B468DF803309DF80320AD
:1028F000019BC3F8C02500BF02B0704782B00190B1
:10290000019B0122C3F8502500BF02B0704782B07E
:102910000190019B0022C3F8502500BF02B0704710
:1029200082B00190019B0122C3F8402500BF02B094
:10293000704782B00190019B0022C3F8402500BF80
:1029400002B0704700B583B00190019B1B68184628
:1029500000F0B4F80346002B04D105494FF4F6709B
:1029600000F000FD4FF0A043184603B05DF804FBF3
:102970002C62000000B585B00190084611461A4649
:1029800003468DF803300B468DF8023013468DF860
:10299000013001AB1846FFF7D5FF03909DF80320E7
:1029A0009DF802305B001A439DF801309B001A43EA
:1029B0009DF818301B0242EA03019DF81C301B04ED
:1029C000019A1943039B02F5E07243F8221000BFFD
:1029D00005B05DF804FB00B585B0039000230193BA
:1029E000002300930023012201210398FFF7C2FF77
:1029F00000BF05B05DF804FB00B585B003900B4641
:102A00008DF80B309DF80B300022019200220092CD
:102A1000002200210398FFF7ADFF00BF05B05DF86D
:102A200004FB00B585B003900023019300230093BD
:102A30000023012200210398FFF79CFF00BF05B08F
:102A40005DF804FB00B585B0019001AB1846FFF7B7
:102A500079FF0390019B012202FA03F319460398C0
:102A600000F018F800BF05B05DF804FB00B585B0B4
:102A7000019001AB1846FFF765FF0390019B01220F
:102A800002FA03F31946039800F00EF800BF05B0F0
:102A90005DF804FB82B001900091019B009AC3F89D
:102AA000082500BF02B0704782B001900091019BE1
:102AB000009AC3F80C2500BF02B0704784B00190A3
:102AC000019B5B09029300230393029B002B03D11C
:102AD0004FF0FF33039300BF019B03F01F030193EB
:102AE000039A019B22FA03F303F00103DBB21846B9
:102AF00004B0704700B58DB0059004910392029325
:102B0000049B002B03D16C49AD2000F02BFC059BEE
:102B10001B791A461346DB0013449B00674A134493
:102B20000A930A9B1B7F002B03D008230793079B64
:102B3000BDE0059B1B680993059B1A68059B1B79E3
:102B400019465F4B53F8213019461046FFF756F9E6
:102B50000346002B03D011230793079BA7E00A9B92
:102B6000039A1A600A9B029A5A60049B1B7B012BF2
:102B700005D8049B1B781846FFF778FF04E0049BF8
:102B80001B781846FFF75EFF049B1B78184600234E
:102B9000019300230093002300220121FFF7EAFEA6
:102BA000049B5B78FF2B09D0049B5B780B930B98FD
:102BB000FFF75CFF0B98FFF70EFF02E04FF0FF33CB
:102BC0000B93049B9B78FF2B07D0049B9B78089367
:102BD00001210898FFF710FF02E04FF0FF33089340
:102BE000049B9A780A9B83F82020049BDA780A9B3E
:102BF000DA77049BDB78FF2B17D0049B1B79002B23
:102C000005D0049BDB781846FFF730FF04E0049BF7
:102C1000DB781846FFF716FF049BDB781846FFF7B2
:102C2000DAFE049B1A790A9B9A77049B1B78194653
:102C3000089B0B9A0998FFF7E6FD049B9B681946D1
:102C40000998FFF7F4FD049B197B049B5B7B1A46F4
:102C50000998FFF714FE049B9B7919460998FFF722
:102C600040FE0998FFF7BDFD0A9B1B68002B15D09D
:102C7000059B1B681846FFF727FD03461A46049B71
:102C80005B7919461046FFF727FD059B1B68184620
:102C9000FFF71AFD03461846FFF73EFD0A9B002288
:102CA0005A770A9B01221A7700230793079B18463D
:102CB0000DB05DF804FB00BF64620000100100204D
:102CC000D862000000B585B00190019B1B791A46BF
:102CD0001346DB0013449B002A4A13440393039BCF
:102CE0001B7F002B04D128494FF4AE7000F03AFB53
:102CF000039B1B68002B08D0019B1B681846FFF73D
:102D0000E3FC03461846FFF715FD019B1B68029381
:102D1000039B1B68002B1BD01C490298FFF757FD33
:102D2000039B5B7FDBB2002B12D014210298FFF7CC
:102D30000FFD00BF4FF482710298FFF72CFD034690
:102D400083F00103DBB2002BF4D1039B00225A77FE
:102D5000039B93F82030FF2B05D0039B93F8203082
:102D60001846FFF75EFE0298FFF744FD019B1B68C3
:102D70001846FFF77DF8039B00221A7700BF05B0C5
:102D80005DF804FB1001002064620000520108009D
:102D900000B583B00190019BDB7FFF2B0ED0019B20
:102DA0009B7F002B05D0019BDB7F1846FFF75EFE63
:102DB00004E0019BDB7F1846FFF744FE019B0022E5
:102DC0005A77019B00221A72019B1B68019A02F13B
:102DD0000800019A52681146984700BF03B05DF899
:102DE00004FB00B583B001900B468DF803309DF8CD
:102DF000033083F00103DBB2002B04D040210198A3
:102E0000FFF7E5FC03E040210198FFF7D6FC00BF87
:102E100003B05DF804FB00B583B001900091009B06
:102E200003F00103002B03D00198FFF767FD02E0D8
:102E30000198FFF76CFD009B03F00203002B03D009
:102E40000198FFF76DFD02E00198FFF772FD00BFEA
:102E500003B05DF804FB00B587B0039002910192C6
:102E60000093019B1B68002B0AD0019B1B6818462E
:102E7000FFF71CFC034683F00103DBB2002B0ED1ED
:102E8000019B9B68002B11D0019B9B681846FFF7A4
:102E90000DFC034683F00103DBB2002B06D0029B3E
:102EA00000225A7710230593059B54E0019B196873
:102EB000019B5B681A460398FFF7C3FC019B996866
:102EC000019BDB681A460398FFF7CAFC4FF48C712C
:102ED0000398FFF74BFC00990398FFF79CFF009BBA
:102EE00003F00803002B03D110210398FFF730FCF7
:102EF000029B1B68002B1FD100BF4FF48C710398FD
:102F0000FFF749FC034683F00103DBB2002BF4D149
:102F1000029BDB7FFF2B1BD0029B9B7F002B05D0EE
:102F2000029BDB7F1846FFF7A1FD11E0029BDB7FD0
:102F30001846FFF787FD0BE0009B03F00403002B0E
:102F40000CBF01230023DBB219460398FFF749FFAA
:102F500000230593059B184607B05DF804FB0000AD
:102F600010B586B0039002910192039B1B791A461B
:102F70001346DB0013449B00394A13440593059B19
:102F80001B7F002B04D1374940F22D2000F0EAF9D5
:102F9000029B1B68002B08D1029B5B68002B04D0AE
:102FA000304940F22E2000F0DDF9029B9B68002B97
:102FB00008D1029BDB68002B04D02A4940F22F2065
:102FC00000F0D0F9039B1B79002B07D1029BDB6833
:102FD000FF2B03D8029B5B68FF2B04D921494FF4D8
:102FE0000C7000F0BFF900230493059B5B7FDBB2FC
:102FF000002B03D011230493049B2EE0059B1B6838
:10300000002B07D0019B03F01403002B02D1059B7A
:1030100001225A77059B029A03F10C0413460FCB49
:1030200084E80F00059BDB7FFF2B0ED0059B9B7F69
:10303000002B05D0059BDB7F1846FFF703FD04E05E
:10304000059BDB7F1846FFF711FD039B1868019B6A
:10305000029A0599FFF7FFFE0346184606B010BD19
:10306000100100206462000000B583B0019000915F
:103070004FF48C710198FFF78EFB0346002B10D0A4
:103080004FF48C710198FFF771FB009B1B68002BBC
:1030900004D1064940F2972000F064F90098FFF748
:1030A00077FE00BF03B05DF804FB00BF6462000060
:1030B00008B503490348FFF7D7FF00BF08BD00BFAD
:1030C000100100200030004086B003900291019270
:1030D00001238DF817309DF81730204A039B1360A9
:1030E0001E4A029B53601D4A019B9360039B44F25E
:1030F0000102934212D0039B44F20202934220D178
:10310000019B164AD360154BDB681B68134A936119
:10311000124BDB685B68114AD36112E0019B0F4AD6
:1031200013610E4B1B699B680C4A53610B4B1B6967
:103130001B680A4A9361094B1B695B68074AD361A4
:1031400000BF72B600BF00BF9DF81730DBB2002B86
:10315000FAD162B600BF00BF06B07047340100204C
:1031600000B583B002900091019244F201007146D3
:103170006A4600F003F803B000BD00BF30B58BB065
:1031800007900691059272B600BF01F057FF01F05B
:1031900017FD0346002BFAD1079B44F2010293422C
:1031A00016D0079B44F2020293423ED1059B09933D
:1031B0002C4A2D4BD31ADB081B0443F00100099B5A
:1031C0005B681A46099B1B68284901F0BCFC39E082
:1031D000059B0893234A244BD31ADB081B0443F0B6
:1031E0000104089B9D68089B9B68184600F0E2FF5D
:1031F00003461846089B5B681946089B1B68069A9D
:1032000002920193009103462A461949204601F093
:10321000AEFC144A144BD31ADB081B0443F0010321
:103220001449184601F070FC0CE00E4A0E4BD31AFC
:10323000DB081B0443F00103069A0F49184601F00E
:1032400071FC00BF0D4B1B6803F00103002B00D085
:1032500000BE059A06990798FFF736FF00BF0BB02E
:1032600030BD00BF985D0000685D0000E0640000B4
:10327000FC6400002465000038650000F0ED00E00B
:1032800072B600BF034B1B680133024A136000BFD4
:10329000704700BF54010020064B1B68013B054AE4
:1032A0001360044B1B68002B01D162B600BF00BF46
:1032B000704700BF5401002000B583B0019000F0BA
:1032C00025F80346012B03D00449432000F04AF8B7
:1032D000FFF7D6FF00BF03B05DF804FBC465000034
:1032E00000B583B003468DF8073000F00FF80346B1
:1032F000012B03D00449512000F034F8FFF7CCFF34
:1033000000BF03B05DF804FBC465000084B0EFF3B8
:1033100005830193019BC3F308030393039B002BD5
:103320000DD1EFF314830093009B0293029B03F0F3
:103330000103002B0CBF01230023DBB200E00123BB
:10334000184604B07047000008B5044B1B68044AD7
:1033500012681046984700BF08BD00BF5801002002
:103360005C01002000B585B003460091ADF8063041
:10337000BDF806300293009B039302AB1A4600216E
:1033800044F20200FFF7FAFE00BF05B05DF804FB4F
:1033900010B487B001900091019B009A53E8004F50
:1033A000104643E8000191F0000FF7D10594049016
:1033B0000391059B184607B05DF8044B704710B4A5
:1033C00087B001900091019B009A53E8004F44EAB6
:1033D000020043E8000191F0000FF6D1059404903B
:1033E0000391049B184607B05DF8044B704710B476
:1033F00087B001900091019B009A53E8004F04EAC6
:10340000020043E8000191F0000FF6D1059404900A
:103410000391059B184607B05DF8044B704710B444
:1034200087B001900091019B009A53E8004F04EB94
:10343000020043E8000191F0000FF6D105940490DA
:103440000391049B184607B05DF8044B704710B415
:1034500087B001900091019B009A53E8004FA4EBC4
:10346000020043E8000191F0000FF6D105940490AA
:103470000391049B184607B05DF8044B704700B5F4
:1034800083B0019001210198FFF799FF0346184688
:1034900003B05DF804FB00B583B0019000210198F2
:1034A000FFF7A5FF0346184603B05DF804FB0000D4
:1034B00000B583B001900B468DF80330019B002BC3
:1034C00003D10849E820FFF74DFF019BDA689DF81A
:1034D00003300199098A01FB03F31344184603B032
:1034E0005DF804FB3066000000B583B001900091E8
:1034F000019B002B03D10849F520FFF733FF009B08
:10350000019AD2689B1A019A128AB3FBF2F3DBB2DA
:10351000184603B05DF804FB3066000000B585B0C6
:103520000190019B002B01D10E234CE0019B1B68F5
:10353000002B03D12649FF20FFF714FF019B5B6896
:10354000002B04D122494FF48070FFF70BFF019B41
:103550009B68002B04D11E4940F20110FFF702FFC7
:10356000019BDB68002B04D119494FF48170FFF7F0
:10357000F9FE019B1B8A002B04D1154940F2031070
:10358000FFF7F0FE019B9A68019B5B68D31A8DF8E8
:103590000F30019B1B68019A52681A6007E0019B7B
:1035A0001A681368591C11609DF80F201A709DF855
:1035B0000F305A1E8DF80F20002BF0D1019B1B6895
:1035C00000221A710023184605B05DF804FB00BF05
:1035D0003066000000B585B00190019B002B04D13E
:1035E0001C494FF49270FFF7BDFE002303930020A7
:1035F000FFF762FE019B1B681A68019B5B689A4299
:103600001FD9019B1B681A68013A1A601B681B7856
:1036100019460198FFF74CFF0390019B9A68019BA4
:103620001B681B68D31A8DF80B30019B1B681B7934
:103630009DF80B209A4204D9019B1B689DF80B2032
:103640001A710020FFF74CFE039B184605B05DF889
:1036500004FB00BF3066000010B584B001900091FB
:10366000019B002B04D1114940F24710FFF77AFE6D
:10367000009B002B04D10D494FF4A470FFF772FE9C
:10368000009B03930020FFF717FE019B1B681C683B
:10369000621C1A6003990198FFF726FF0346237006
:1036A0000020FFF71DFE00BF04B010BD3066000013
:1036B00000B583B00190019B002B03D10C49312050
:1036C000FFF750FE019B9B68002B0CD0019B5B69B0
:1036D000019A1069019A1168019A92689847019BB2
:1036E00000229A6000E000BF03B05DF804FB00BF59
:1036F000946600000EB400B584B00190019B002BCD
:1037000003D118494220FFF72DFE019B5B69002B76
:1037100003D114494320FFF725FE019B1B68002BB2
:1037200003D110494420FFF71DFE019B5B68002B6D
:1037300003D10C494520FFF715FE059B002B0AD04D
:103740000023039306AB039303AB1A460599019834
:1037500000F0B8F900E000BF04B05DF804EB03B07E
:10376000704700BF9466000000B583B001900B461F
:103770008DF803309DF803300A2B03D10D210198F9
:10378000FFF7F2FF019B1A68019B9B68581C019987
:10379000886013449DF803201A70019B9A68019B6E
:1037A0005B689A4202D30198FFF782FF00BF03B023
:1037B0005DF804FB00B587B003900291019200937D
:1037C00000230593009B03F00103002B24D00BE0A2
:1037D000029B01330293059B013305939DF813303F
:1037E00019460398FFF7C0FF029B1B788DF8133032
:1037F0009DF81330002BEBD106E0019B013B0193B8
:1038000020210398FFF7B0FF019A059B9A422ED919
:10381000019B002BF1D12AE0029B002B0BD00298D8
:1038200002F0F5F9059006E0019B013B0193202190
:103830000398FFF799FF019A059B9A420FD9019BC4
:10384000002BF1D10BE0029B01330293059B013366
:1038500005939DF8133019460398FFF785FF029BE7
:103860001B788DF813309DF81330002BEBD100BF7F
:1038700007B05DF804FB000000B589B00390029129
:1038800001920093029B07930123069307E0079A96
:10389000019BB2FBF3F30793069B01330693079A50
:1038A000019B9A42F3D2009A069B9A4201D9009B4F
:1038B00006930B9B03F00103002B22D10A9B002BE4
:1038C0001FD00B9B03F00203002B06D0009B002BA4
:1038D00003D130238DF8173002E020238DF8173004
:1038E00008E00A9B013B0A939DF81730194603989C
:1038F000FFF73AFF0A9B002B03D0069A0A9B9A42D5
:10390000EFD301230793009B012B03D9009B013BBD
:10391000009309E0029A079BB2FBF3F30493049A25
:10392000019B9A4200D205E0079B019A02FB03F338
:103930000793E8E7029A079BB2FBF3F30493049B17
:10394000079A02FB03F3029AD31A0293154A049BC7
:1039500013441B7819460398FFF706FF079A019B4B
:10396000B2FBF3F30793079B002BE3D10B9B03F010
:103970000103002B11D00A9B002B0ED006E00A9BFE
:10398000013B0A9320210398FFF7EEFE0A9B002BD0
:1039900003D0069A0A9B9A42F1D300BF09B05DF8A2
:1039A00004FB00BF5467000000B589B00590049186
:1039B00003920293049B002BB8BF5B420693012342
:1039C000079307E0039B069A92FBF3F30693079B8A
:1039D00001330793039B069A9A42F3DA029A079BF4
:1039E0009A4201D9029B07930A9B002B0AD0049BA1
:1039F000002B04DB0B9B03F00403002B02D00A9B7B
:103A0000013B0A930B9B03F00203002B02D0029BA5
:103A1000002B16D00B9B03F00103002B11D10A9B46
:103A2000002B0ED006E00A9B013B0A93202105984B
:103A3000FFF79AFE0A9B002B03D0079A0A9B9A4233
:103A4000F1D3049B002B07DA049B5B4204932D21E6
:103A50000598FFF789FE08E00B9B03F00403002B99
:103A600003D02B210598FFF77FFE0B9B03F0020389
:103A7000002B19D00B9B03F00103002B14D1029BE8
:103A8000002B11D10A9B002B0ED006E00A9B013BB4
:103A90000A9330210598FFF767FE0A9B002B03D09D
:103AA000079A0A9B9A42F1D304990B9B01930A9BB4
:103AB0000093029B039A0598FFF7DEFE00BF09B052
:103AC0005DF804FB00B58FB0059004910392059B4F
:103AD000002B04D1AD4940F25220FFF743FC059B77
:103AE0005B69002B04D1A9494FF41570FFF73AFC2C
:103AF000059B1B68002B04D1A44940F25520FFF719
:103B000031FC059B5B68002B04D1A04940F2562094
:103B1000FFF728FC049B002B00F09381049B1B788B
:103B20008DF83730049B013304939DF83730002B18
:103B300000F07E819DF83730252B40F06D81002309
:103B40000A9301230C93049B1B788DF837309DF862
:103B50003730302B0DD0302B1BDC2B2B11D02D2BE5
:103B600017D10A9B43F001030A93049B013304938A
:103B700012E00A9B43F002030A93049B013304936F
:103B80000AE00A9B43F004030A93049B0133049365
:103B900002E000230C9300BF0C9B002BD3D1002329
:103BA00009939DF837302A2B0CD1039B1B68191DF4
:103BB000039A11601B68099A13440993049B01330B
:103BC00004931AE0049B1B788DF837309DF837304A
:103BD0002F2B12D99DF83730392B0ED8049B013387
:103BE0000493099A13469B0013445B001A469DF800
:103BF00037301344303B0993D3E700230B93049BE6
:103C00001B788DF837309DF837302E2B1DD1049B53
:103C100001330493049B1B788DF837309DF83730BF
:103C20002F2B12D99DF83730392B0ED8049B013336
:103C300004930B9A13469B0013445B001A469DF8AD
:103C400037301344303B0B93E4E7049B1B788DF82B
:103C500037309DF837306C2B03D09DF83730682B08
:103C600007D1049B01330493049B1B788DF83730F4
:103C7000EFE79DF83730252B00F0C480252BC0F2EC
:103C8000C680782B00F3C380582BC0F2C080583B0D
:103C9000202B00F2BC8001A252F823F0913D0000DD
:103CA0000F3E00000F3E00000F3E00000F3E0000E0
:103CB0000F3E00000F3E00000F3E00000F3E0000D0
:103CC0000F3E00000F3E0000213D0000433D00007C
:103CD0000F3E00000F3E00000F3E00000F3E0000B0
:103CE000433D00000F3E00000F3E00000F3E00006D
:103CF0000F3E00000F3E00000F3E0000D13D0000CF
:103D00000F3E00000F3E0000B53D00000F3E0000DA
:103D1000673D00000F3E00000F3E0000913D000097
:103D2000039B1B68191D039A11601B680C930C9B65
:103D30008DF81F309DF81F3019460598FFF714FDC8
:103D400066E0039B1B68191D039A11601B680C93A6
:103D50000A9B0193099B00930B9B0A220C990598DF
:103D6000FFF722FE54E0039B1B68191D039A1160A4
:103D70001B680C930C990A9B0193099B00930B9B66
:103D80000A220598FFF778FD42E000BFF0660000C8
:103D9000039B1B68191D039A11601B680C930C99F7
:103DA0000A9B0193099B00930B9B10220598FFF738
:103DB00063FD2DE0039B1B68191D039A11601B68AE
:103DC00008930A9B099A08990598FFF7F3FC1FE0EE
:103DD000039B1B68191D039A11601B680C9330210B
:103DE0000598FFF7C1FC78210598FFF7BDFC0C99F9
:103DF0000023019308230093082310220598FFF75E
:103E00003BFD05E025210598FFF7AEFC00E000BF73
:103E1000049B0133049305E09DF83730194605985B
:103E2000FFF7A2FC049B1B78002B7FF477AE00E029
:103E300000BF059B1B7B002B04D00598FFF738FCC7
:103E400000E000BF0FB05DF804FB00BF00B583B019
:103E500001900198FFF762FB0346184603B05DF836
:103E600004FB00B58BB001900091019B1B8A043BC1
:103E70000793009A079B1344DA1C079BB2FBF3F3EA
:103E80008DF81B300198FFF7A5FB0590059B002BD3
:103E900001D1002338E0059B00221A71059B012205
:103EA0005A71079B9AB2059BDA80059B09939DF88E
:103EB0001B30013B0493099B019A1A60002308936D
:103EC0001DE00198FFF786FB0390039B002B0ED0AB
:103ED000059B5B790133DAB2059B5A71099B039A02
:103EE0001A60039B019A1A60039B099304E00598EA
:103EF00000F00EF8002307E0089B01330893089AAE
:103F0000049B9A42DDD3059B18460BB05DF804FB79
:103F100000B58BB00190019B0793079B5B798DF8EF
:103F20001B30019B08939DF81B30013B0593002338
:103F3000099305E0089B1B680893099B01330993CB
:103F4000099A059B9A42F5D3089B1B680493019B31
:103F50000893002309930BE0089B1B6803930899BF
:103F60000498FFF779FB039B0893099B013309939E
:103F70009DF81B30099A9A42EED300BF00BF0BB0E8
:103F80005DF804FB00B585B00190019B0393039B92
:103F9000043301211846FFF742FA00BF05B05DF86F
:103FA00004FB00B587B00190019B0593059B04338A
:103FB00001211846FFF74BFA0346039303AB049322
:103FC000049B1B78002B02D10198FFF7A1FF00BFD3
:103FD00007B05DF804FB000000B591B003900291BA
:103FE00001920093039B002B03D14349B620FFF7B6
:103FF000B9F9039B0993039B0F93099BDB881A462E
:10400000099B5B7902FB03F3043B0893009A089B2E
:104010009A4203D33849C420FFF7A4F9099BDB88EF
:104020000793009B1A1D079BB2FBF3F30E93009BB3
:104030000433079AB3FBF2F2079901FB02F29B1AD1
:104040000D93019B1A68009B1344089A9A4203D26D
:10405000089A009BD31A01E0019B1B680C93019BFB
:104060000C9A1A6005E00F9B1B680F930E9B013B97
:104070000E930E9B002BF6D100230B93079A0D9BFA
:10408000D31A0A930A9A0C9B934228BF13460A93A9
:104090002AE0029A0B9B134406930F9A0D9B13443C
:1040A000043305939DF84830002B05D00A9A0599F2
:1040B000069801F0C1FD04E00A9A0699059801F0FE
:1040C000BBFD00230D930F9B1B680F930C9A0A9B5B
:1040D000D31A0C930B9A0A9B13440B93079A0C9BCD
:1040E000934228BF13460A930C9B002BD1D100BFEB
:1040F00000BF11B05DF804FB6467000000B589B033
:104100000590049103920293039B079307AA00234F
:104110000093029B04990598FFF75EFF079B039AA3
:104120009A4203D00349F620FFF71CF900BF09B0FB
:104130005DF804FB6467000000B589B00590049148
:1041400003920293039B079307AA01230093029B08
:1041500004990598FFF740FF079B039A9A4204D001
:1041600004494FF48070FFF7FDF800BF09B05DF817
:1041700004FB00BF6467000082B00190019B9B6854
:1041800000229A60019B9B6800221A61019B9B6838
:1041900000225A61019B9B680022DA60019B9B68A8
:1041A00000225A60019B9B6800221A6000BF02B087
:1041B0007047000000B585B00190019800F00EF83E
:1041C0000390039B002B01D0039B00E0024B184699
:1041D00005B05DF804FB00BF3C68000086B00190AC
:1041E000164B0593164B04931FE0049A059BD31AB4
:1041F000DB10DA0F13445B10DB00059A13440393C2
:10420000039B1B680293029A019B9A4202D9039B6B
:1042100004930AE0029A019B9A4203D2039B08335B
:10422000059302E0039B5B6804E0059A049B9A42B5
:10423000DBD30023184606B0704700BF106C0000A7
:10424000286D000000B585B00190019B002B0AD0BD
:10425000074B43F001030393019B9B010293039BD4
:104260000298984700E000BF05B05DF804FB00BF6E
:10427000406D000000B583B00190019B002B0AD077
:104280004FF47A70FFF7DEFF019B013B0193019B26
:10429000002BF5D100E000BF03B05DF804FB08B5CA
:1042A00001F0E6F900BF08BD00B589B003900291A6
:1042B0000192019B002B33D0002307930623069322
:1042C000029A079B1344019A1946002001F080F9D5
:1042D0000590079A059B13440793019A059BD31AEF
:1042E0000193059B002B13D10F4B1B7883F0010327
:1042F000DBB2002B13D10120FFF7BCFF069B013B73
:104300000693069B002B03D1074B00221A7007E08F
:10431000054B01221A70019B002BD1D100E000BF98
:1043200000BF09B05DF804FB6401002000B585B052
:1043300003900291054B00934023054A029903988C
:1043400000F012F800BF05B05DF804FBA9420000C0
:104350006801002082B0019000BF02B0704782B0B7
:10436000019000BF02B0704700B5A1B00590049164
:10437000039202930498FFF705FE039B1593029B9B
:1043800016930023179300238DF8603000231993B0
:10439000229B1A9300231F930FA91F9B08220498A6
:1043A000FFF7CAFE08231F93119B1293BDF84030FC
:1043B000ADF84C30BDF84230ADF84E3000238DF8EA
:1043C00051309DF83C3003F00303DBB2012B26D1C2
:1043D0000F9BC3F395231C939DF83C30C3F3C2039A
:1043E000DBB28DF85030BDF83C30C3F38313DBB241
:1043F0001B931B9B9A0009A91F9B0498FFF79CFE27
:104400001B9B9B001F9A13441F9312AA09A915AB6B
:10441000009313461B9A1C9800F0BCFE2FE09DF8F9
:104420003C3003F00303DBB2022B28D1BDF83E3051
:10443000C3F389139BB21E939DF83C30C3F3C203B0
:10444000DBB28DF850301E9B082B28BF08231D932C
:1044500007A91F9B1D9A0498FFF76EFE1F9A1D9BCC
:1044600013441F931E9A1D9BD31A1E9315AB12AAB9
:1044700007A81D9900F030FF1E9B002BE3D1049884
:10448000FFF78FFD00BF21B05DF804FB82B0019003
:10449000019BDB6801225A7100BF02B07047000027
:1044A00000B583B04FF0FF330193FFF7F8FE04210E
:1044B000084800F08BFD0190019B002B03DA0649B0
:1044C0004120FEF74FFF0348FFF7E0FF00BF03B0B6
:1044D0005DF804FBB85D0000586D000000B583B0C6
:1044E00001900091019B1B681B68009901989847F7
:1044F00000BF03B05DF804FB00B583B00190019BE1
:104500001B685B680198984700BF03B05DF804FB27
:1045100000B583B00190019B1B689B680198984788
:1045200000BF03B05DF804FB82B001900B468DF82C
:104530000330019BDB689DF803201A7100BF02B0B5
:10454000704782B00190019BDB681B79184602B06E
:10455000704782B00190019BDB6801225A7100BF55
:1045600002B0704782B00190019BDB685B7918460E
:1045700002B0704700B585B0019000910C4B00224D
:104580001A700C48FFF762FC0390039B002B01D0CC
:10459000039B08E00848FFF7EFFD084A084BD31AD1
:1045A000DB0802930023184605B05DF804FB00BF4A
:1045B0002C050020C85D0000CC6D0000B85D000037
:1045C000685D0000024A034BD31ADB0818467047A7
:1045D000B85D0000685D000000B587B001900B4633
:1045E0008DF803309DF80330002B1FD0FFF7EAFF52
:1045F00004900023059313E0059B9B000E4A13448F
:104600000393039B1B881A46019B1B689A4204D1A3
:10461000019B059A1A60002309E0059B013305936D
:10462000059A049B9A42E7D3052300E0002318462D
:1046300007B05DF804FB00BF0000002000B585B0A6
:1046400001900B468DF803309DF8032001AB114615
:104650001846FFF7C1FF0346002B07D1019BDB0083
:10466000054A13440393039B1B6800E0002318468C
:1046700005B05DF804FB00BF685D000084B00190E8
:104680000B468DF80330019BDB00174A134402935D
:104690009DF80330013B032B1CD801A252F823F0F4
:1046A000B1460000B9460000C1460000CB460000FC
:1046B00002238DF80F3011E004238DF80F300DE048
:1046C000029B1B798DF80F3008E0029B5B798DF817
:1046D0000F3003E000238DF80F3000BF9DF80F303E
:1046E000184604B0704700BF685D000084B00190B8
:1046F000009100238DF80F30019B1B7803F0040319
:10470000DBB2002B24D0019B1B78C3F30103DBB287
:10471000012B02D0022B0CD017E0009B1B68019AE2
:104720001288C2F38312D2B213449A1C009B1A60FF
:104730000BE0009B1B68019A5288C2F3891292B267
:1047400013449A1C009B1A6000BF01238DF80F30A0
:104750009DF80F30184604B07047000000B58BB0CC
:104760000023ADF826303E48FEF789FE3D48FEF7AF
:1047700086FE3D4B9B6804933C4B1B680693049A52
:10478000069B134002339B00374A134404330893BB
:1047900004AB19460898FFF7A9FF0346002B09D080
:1047A000049A069B134002339B002F4A13440433A0
:1047B0000893EDE700BF0023079311E0049B5A1C08
:1047C0000492069A1340079A920001A90A442649C6
:1047D00002339B000B445B681360079B0133079314
:1047E000079B012BEAD99DF80430C3F30103DBB228
:1047F000012B10D0022B1CD1BDF80A30ADF82630A9
:10480000BDF80630C3F389139BB203339A08049BA7
:104810001344049313E0BDF80A30ADF82630BDF818
:104820000430C3F38313DBB21A46049B134404938E
:1048300005E00F494FF4C270FEF794FD00BF094830
:10484000FEF729FE0590059B002B02D0049B064A2B
:104850009360BDF8263018460BB05DF804FB00BF2E
:1048600044090020400900202C05002010000020F1
:10487000DC6D000000B585B000210748FEF788FD1B
:104880000390039B0293029B83F310030193019B0C
:10489000184605B05DF804FB4809002000B589B052
:1048A0000390029101920093039B1B0C0793FFF767
:1048B000E1FF0690FFF786FE0246079B934204D372
:1048C000214940F2A910FEF74DFD069B1904009BFB
:1048D0005A1C0A9B1340079A0A431C4902339B0047
:1048E0000B445A60009A0A9B134002339B00174AFC
:1048F000134404330593039B03F00703D9B2059ACD
:10490000137861F3C5031370019B03F00F03D9B251
:10491000059A138861F389131380029BC3F3150171
:10492000059A136861F39F231360059A1378012198
:1049300061F301031370059A137823F004031370D5
:1049400000BF09B05DF804FBDC6D00002C05002001
:1049500000B58BB00390029113468DF80730039B8E
:104960000233089301238DF81F300020FEF7A4FCCA
:104970003E4B5A68029B1A603D4B1A683B4B996844
:104980003A4B5B68CB1A13440133099314E00121BD
:104990003848FEF744FDFFF7E1FE059005993548DC
:1049A000FEF73DFD324B1A68304B99682F4B5B6820
:1049B000CB1A134401330993089A099B9A42E6D80B
:1049C0009DF81F30002B48D0002304939DF807303A
:1049D000002B17D09DF81030012262F301038DF8EF
:1049E00010309DF8103043F004038DF81030039B15
:1049F00003F00F03DAB2BDF8103062F38913ADF89B
:104A0000103016E09DF81030022262F301038DF899
:104A100010309DF8103043F004038DF81030039BE4
:104A2000C3F309039AB2BDF8123062F38F13ADF8E5
:104A300012300E4B5A680E4B1B68134002339B001A
:104A40000A4A134404330693049A069B1A60074BE0
:104A50005A68089B1344054A53600020FEF740FC47
:104A60009DF81F3018460BB05DF804FB2C050020A4
:104A7000100000204809002000B58BB0059004917B
:104A8000039202931E4B1B68079306AB0122194643
:104A90000298FFF75DFF0346002B24D0069B0233EC
:104AA00009930023089311E0089B9B00039A1A4482
:104AB000099B591C099107990B401268114902334F
:104AC0009B000B445A60089B01330893089A029B91
:104AD0009A42E9D3069A079B00931346029A0499D7
:104AE0000598FFF7DBFE074B1B78002B04D000F086
:104AF00067F80346002BFAD100BF0BB05DF804FB4A
:104B0000100000202C05002000B583B0019000911A
:104B10000023002200990198FFF7AEFF00BF03B009
:104B20005DF804FB00B587B0039002910192019BF0
:104B3000059305AA012302990398FFF79DFF00BF83
:104B400007B05DF804FB00B587B0039002910192B5
:104B50000093019B0493009B059304AA02230299EE
:104B60000398FFF789FF00BF07B05DF804FB00B5AD
:104B70008BB00390029101920093019B0593009BDF
:104B800006930C9B07930D9B08930E9B099305AA14
:104B9000052302990398FFF76FFF00BF0BB05DF884
:104BA00004FB0000054B9A68044B5B689A420CBFFB
:104BB00001230023DBB21846704700BF2C050020FC
:104BC00000B599B0FFF7EEFF0346002B01D000239C
:104BD000BBE19C4B0022C3F81824BFF34F8F00BFEA
:104BE000984B9B680493984B1B681093049A109BF6
:104BF000134002339B00934A134404331193002360
:104C000017930023169300230F9304AB19461198B2
:104C1000FFF76CFD0346002B19D08A4BD3F81834EC
:104C2000002B14D1874B5A68049B9A4205D8854BB8
:104C30005B68844A9360002387E1049A109B1340C9
:104C400002339B007F4A134404331193DDE70023B2
:104C5000159311E0049B5A1C0492109A1340159A64
:104C6000920001A90A44774902339B000B445B6818
:104C70001360159B01331593159B012BEAD99DF801
:104C8000043003F00303DBB2022B40F09E80BDF83A
:104C90000630C3F389139BB20D93BDF80630C3F3FE
:104CA00089139BB2B3F5967F28BF4FF496739BB2DE
:104CB0000C930C9BC3F309039AB2BDF8063062F360
:104CC0008F13ADF806300C9B08330B939DF804301E
:104CD000C3F3C203DBB20F930B995C48FFF7C1F833
:104CE0001790179B002B00F0D3801798FFF74AF915
:104CF00001A9169B08221798FFF700FA169B0833A4
:104D00001693049BDA43109B134001339B000A93D4
:104D10000C9A0A9B9A4242D90A9B002B08D0049A0B
:104D2000109B134002339B00464A1344043300E0B7
:104D3000474B08930A9B002B02D00A9BDBB201E091
:104D40000C9BDBB28DF81F300A9B002B01D0404B2F
:104D500000E0002306930A9B002B06D00C9BDAB2DE
:104D60000A9BDBB2D31ADBB200E000238DF81730C8
:104D70009DF81F20169B08991798FFF7BFF99DF81B
:104D80001F30169A13441693069B002B16D09DF8DD
:104D90001720169B06991798FFF7B0F90EE0049AB2
:104DA000109B134002339B00264A1344043309939B
:104DB000169B0C9A09991798FFF7A0F90D9B0333DE
:104DC0009A08049B1344049362E09DF8043003F0B6
:104DD0000303DBB2012B5BD1BDF80430C3F38313B3
:104DE000DBB2062B28BF0623DAB2BDF8043062F32B
:104DF0008913ADF80430BDF80430C3F38313DBB27C
:104E000002330E939DF80430C3F3C203DBB20F9359
:104E10000E9B9B0019460D48FFF723F81790179B30
:104E2000002B35D01798FFF7ADF801A9169B082283
:104E30001798FFF763F9169B083316930023159311
:104E40001DE000BF2C05002010000020C85D000000
:104E500038050020049B5A1C0492109A1340023318
:104E60009B003C4A1344191D169B04221798FFF718
:104E700045F9169B04331693159B01331593BDF822
:104E80000430C3F38313DBB21A46159B9342E1D37C
:104E9000179B002B39D02F4BD3F8103414932D4B84
:104EA000D3F81834002B1BD01798FFF77AF846E098
:104EB00000238DF84F301498FFF754FB0346002B66
:104EC00002D001238DF84F309DF84F30002B03D0D6
:104ED00017991498FFF702FB149BDB681B68149367
:104EE000149B002BE4D11798FFF75BF80020FEF726
:104EF000E3F9184BD3F81834002B02D1049B154A60
:104F000093600020FEF7ECF919E0124BD3F810344F
:104F1000129306E01298FFF7FBFA129BDB681B68FE
:104F20001293129B002BF5D10B4A0C4BD31ADB08C2
:104F30001B0443F002030A491846FFF7E5FDFFF79B
:104F400031FE034683F00103DBB2184619B05DF869
:104F500004FB00BF2C050020985D0000685D000088
:104F6000486E000000B585B00023039323E0164B84
:104F7000D3F81034029301238DF807300FE0029824
:104F8000FFF7DFFA03461A46039B934203D100233F
:104F90008DF8073006E0029BDB681B680293029BDA
:104FA000002BECD19DF80730002B01D0039B07E0CC
:104FB000039B01330393039B092BD8DD4FF0FF3391
:104FC000184605B05DF804FB2C05002000B585B03F
:104FD00001900B468DF80330FFF7C4FF0390039B4D
:104FE000B3F1FF3F01D1039B22E0039BDBB21946E3
:104FF0000198FFF799FA104BD3F81034002B08D121
:105000000D4A019BC2F81034019BDB6800221A6034
:105010000DE0094BD3F81034DA68019BDB681268A5
:105020001A60054BD3F81034DB68019A1A60039BB1
:10503000184605B05DF804FB2C05002000B583B0D0
:105040000C4BD3F8103401930A4B01221A7009E07B
:105050000198FFF77EFA0198FFF74EFA019BDB6893
:105060001B680193019B002BF2D100BF00BF03B06E
:105070005DF804FB2C05002082B00190009100BF78
:1050800002B0704710B584B003900291039BDB8897
:10509000002B0AD0039BDB881A461F4B0093134654
:1050A0001E4A1F490298FEF725FB039B1B7A052B1E
:1050B0002ED0039B5B7A002B12D0039B9B881A4651
:1050C000039B1B7A19461046FFF7D8FA03461A4687
:1050D000144B53F822301A4613490298FEF70AFB84
:1050E000039B1B6819460298FFF7C6FF039B1B7AB8
:1050F0001A460E4B53F82240039B9B88002118460A
:10510000FFF79CFA0346224609490298FEF7F2FA95
:1051100000BF04B010BD00BF7C6E00008C6E0000AC
:10512000C46E000028000020DC6E00001400002087
:10513000E06E000000B585B00390029113468DF833
:105140000730039B1B7A052B0FD0039B5B7A002B48
:1051500006D00D4B1B681A460C490298FEF7CAFA96
:105160000B490298FEF7C6FA07E09DF80730002BBE
:1051700003D007490298FEF7BDFA0298FEF798FAA5
:1051800000BF05B05DF804FB28000020DC6E0000C5
:10519000EC6E000030B58BB0079006910592049339
:1051A0000E9B1B7B8DF827300E9B00221A730E99E5
:1051B0000498FFF767FF059B062B7FD801A252F8E2
:1051C00023F000BFE1510000EB510000FB51000053
:1051D0000F5200002D520000555200008552000071
:1051E00007990E98FEF786FA69E0069B1B681A4637
:1051F00007990E98FEF77EFA61E0069B1A68069BF7
:1052000004331B6807990E98FEF774FA57E0069B63
:105210001A68069B04331968069B08331B680093C1
:105220000B4607990E98FEF765FA48E0069B196849
:10523000069B04331868069B08331B68069A0C32D9
:1052400012680192009303460A4607990E98FEF7EA
:1052500051FA34E0069B1868069B04331C68069BD1
:1052600008331B68069A0C321268069910310968D7
:105270000291019200932346024607990E98FEF789
:1052800039FA1CE0069B1C68069B04331D68069BCC
:1052900008331B68069A0C321268069910310968A7
:1052A00006981430006803900291019200932B46F7
:1052B000224607990E98FEF71DFA00E000BF002273
:1052C0000E990498FFF736FF0E9B9DF827201A735E
:1052D00000BF0BB030BD00BF00B587B00390029196
:1052E00001920093029B082B60D8009B1B7B8DF8DA
:1052F0001330009B00221A7300990198FFF7C2FE39
:105300000023059314E0059A029B9A4209D2039A5E
:10531000059B13441B781A4626490098FEF7EAF9C4
:1053200003E025490098FEF7E5F9059B0133059355
:10533000059B072BE7D921490098FEF7DBF90023ED
:10534000059326E0059A029B9A421BD2039A059B7D
:1053500013441B788DF812309DF812307E2B0AD83A
:105360009DF81230184600F0B5FC0346002B02D021
:105370009DF8123000E02E231A4611490098FEF7DE
:10538000B9F903E00F490098FEF7B4F9059B013322
:105390000593059B072BD5D9012200990198FFF7AA
:1053A000C9FE009B9DF813201A7300E000BF07B0F0
:1053B0005DF804FBF06E0000F86E0000FC6E00006B
:1053C000006F0000046F000082B0204B0193019B2E
:1053D00002221A61019B02225A61019B1C4A9A61B6
:1053E000019B1C4ADA61019B4FF400721A62019B17
:1053F00000229A62019B00225A62019B0022DA621B
:10540000019B134A9A64019B134ADA64019B1022A0
:105410001A65019B00229A65019B00225A65019B37
:105420000022DA65019B07330C4A10681860019B63
:105430000B4A106818609188927999809A71019B43
:1054400020229A7100BF02B0704700BF4C090020B3
:10545000086F0000C4090020C40B0020146F000076
:10546000186F000000B589B00390029101920023EB
:105470000693039BDB680593039B1B690493049AC3
:10548000059B9A4205D9049A059BD31A013B0793C1
:1054900007E0039B9A680499059BCB1A1344013BD0
:1054A0000793039B9A68059BD31A079A934228BFD8
:1054B00013460793079A019B934228BF134607930D
:1054C000039B5A68059B1344079A0299184600F0FB
:1054D000B3FB069A079B13440693029A079B134457
:1054E0000293019A079BD31A0193059A079B1344D1
:1054F0000593039B9B68059A9A4201D1002305936B
:10550000039B059ADA60019B002BB5D1069B1846D8
:1055100009B05DF804FB00B589B0039002910192D7
:10552000039BDB680793039B9A68079BD31A069338
:10553000069A019B9A420ED9039B5A68079B134413
:10554000019A0299184600F077FB079A019B1A44CA
:10555000039BDA601AE0069B0593039B5A68079B3E
:105560001344059A0299184600F066FB019A069BBF
:10557000D31A0593039B5868029A069B1344059A15
:10558000194600F059FB039B059ADA6000BF09B089
:105590005DF804FB86B00190019B1B690493019B9D
:1055A000DB680393049A039B9A4208D8019B9A688C
:1055B000039BD21A049B1344013B059304E0049A15
:1055C000039BD31A013B0593059B184606B0704711
:1055D00000B589B0039002910192029B0693039B50
:1055E0005A1C13465B001344DB00204A1344059306
:1055F000059B5B69022B29D0022B2ED8002B02D0F1
:10560000012B13D029E00598FFF7C4FF0490049AFA
:10561000019B9A4202D20023079321E0019B07934A
:10562000019A06990598FFF776FF19E00598FFF7AC
:10563000B1FF0490019A049B934228BF134607933D
:10564000079A06990598FFF766FF09E0019A0699FF
:105650000598FFF707FF079002E00023079300BFBC
:10566000079B184609B05DF804FB00BF4C090020F9
:1056700008B5FFF7A9FE00BF08BD000030B591EAEC
:10568000030F00F18280841A71EB030C05D212190A
:1056900053EB0C03001B71EB0C0140F2000CCFF636
:1056A000E07C1CEA430F52D0BCEB410F5FD90C0DDC
:1056B000A4EB135E5FF0010C6CF31F516CF31F53EE
:1056C000DEF1200C2AD303FA0CF5401941F1000158
:1056D00022FA0EF5401923FA0EF5694112FA0CF27E
:1056E000CD0208D349085FEA30005FEA320228BFE2
:1056F00042F001020134013C5FEA500C72F10042B9
:1057000050F1000051EB04514FF4001313EB410F23
:1057100038BF30BD6FF31301002030BDBEF1200E45
:10572000BEF1200F1ED223FA0EF5401941F10001FF
:10573000CEF1200C124218BF012203FA0CF52A43C5
:10574000CEE711EA5C0F04BF0020002130BD1CEA47
:10575000410F04BF01F00041002030BD01F00041C5
:10576000002030BD21F4801101EB045130BD004216
:1057700018BF41F00101BCEB410F08BF30BD4FF035
:10578000FE4141F47801002030BD83F00043841ACB
:1057900071EB030E07D28EF0004E001B71EB0E0171
:1057A000121953EB0E0340F2000CCFF6E07C1CEA1A
:1057B000430FC6D0BCEB410F72D90C0DA4EB135EA6
:1057C000C90241EA5051C00241F00041DB0243EA04
:1057D0005253D20243F00043DEF1200C41D312FABF
:1057E0000CF522FA0EF203FA0CF542EA050218BF94
:1057F00042F0010223FA0EF3801A9941E30AC4F33E
:105800000A0411F0404F03D418D0013C4000494134
:10581000013C23D44205C00A40EA4150C90A51EA7A
:10582000C3715FEA500C72F1004250F1000051EB7D
:10583000045130BD01002FD00020203C0029F9D0B8
:10584000B1FA81FCDCF1200E11FA0CF130FA0EF500
:1058500010FA0CF02943A4EB0C04D9E70020D90777
:1058600030BDAEF1200EBEF1200F0DD2CEF1200CD6
:1058700003FA0CF533FA0EF32A4318BF43F0010381
:10588000C01A61F10001B9E721F00041C00A40EA05
:105890004150C90A01EB045130BD0020002130BD48
:1058A000004218BF41F00101BCEB410F7FF467AF2C
:1058B000BCEB430F3FF463AF30BD00BF83F0004348
:1058C000FFF7DCBEF0B540F2FF7681EA030C16EA82
:1058D000115E1EBFB64516EA1355B54252D021EAF5
:1058E000465141F48011A1FB024723EA465343F499
:1058F0008013AE44A0FB03650CF0004C36197D41CB
:10590000A1FB034747F10003A0FB0217F61965410D
:1059100053F10003094218BF46F0010640F2FE743D
:10592000B3F5007F13D2AEF5806EA64523D24CEAC4
:105930000331280341EA155140EA16503203450865
:1059400072F1004250F1000051EB0E51F0BDAEF289
:10595000FF3EA6450FD24CEAC321E80241EA555169
:1059600040EA5650F202450872F1004250F1000040
:1059700051EB0E51F0BD1EEA0E0F2DD50CF000417B
:105980000020F0BD16EA115F04BF01F000410020C5
:10599000004218BF41F0010116EA135F04BF03F093
:1059A00000430022124218BF43F0010306EA1354D9
:1059B000B44218BFB64503D00CF000410020F0BD42
:1059C00021F0004123F00043B1EB065F0CD8B3EBAC
:1059D000065F09D841B13BB10CF0004141F0FE41F6
:1059E00041F470010020F0BD40F20001C7F6F871EB
:1059F0000020F0BD2DE9F04391EA030E0EF0004EB9
:105A000040F20007CFF6E07717EA41051EBFBD421E
:105A100017EA4305BD4200F09F807F0D17EA135639
:105A200023EA475343F4801317EA115521EA4751FB
:105A300041F48011AD1B05F2FD354FEAD31C1CF17A
:105A4000010C4FF00047B7FBFCF77F01A2FB079C5E
:105A50000024E3FB07C4D9F100096CEB4C0CA0FB5C
:105A600007620020E1FB072000275FEAC628E0FB71
:105A70000987760D46EAC226520DF61900277A41AB
:105A8000E0FB0C625FEAC823E2FB09375FEA585883
:105A900048EAC628760D18EB070800214E41E2FBC4
:105AA0000C8602EBC020DA02E6FB09215B0D43EA1B
:105AB000C8235FEA58585B18002758EB0708E6FB35
:105AC0000C38D102E8FB0917520D42EAC3225B0DE4
:105AD000D21900277B41E8FB0C2308EBC6265FEABE
