:1000000000000120190200000102000003020000AC
:1000100005020000070200000902000000000000C5
:100020000000000000000000000000000B020000C3
:100030000D020000000000000F020000110200008D
:100040001302000013020000A9200000552F000039
:100050001302000013020000A51F0000312200005F
:10006000130200001302000013020000130200003C
:10007000130200001302000013020000130200002C
:10008000130200006D400000130200001302000084
:10009000130200001302000013020000130200000C
:1000A00013020000130200001302000013020000FC
:1000B0001302000013020000000000000000000016
:1000C00013020000130200001302000013020000DC
:1000D00013020000130200001302000000000000E1
:1000E0000000000000000000000000000000000010
:1000F0000000000000000000000000000000000000
:1001000000000000000000000000000000000000EF
:1001100000000000000000000000000000000000DF
:1001200000000000000000000000000000000000CF
:1001300000000000000000000000000000000000BF
:1001400000000000000000000000000000000000AF
:10015000000000000000000000000000000000009F
:10016000000000000000000000000000000000008F
:10017000000000000000000000000000000000007F
:10018000000000000000000000000000000000006F
:10019000000000000000000000000000000000005F
:1001A000000000000000000000000000000000004F
:1001B000000000000000000000000000000000003F
:1001C000000000000000000000000000000000002F
:1001D000000000000000000000000000000000001F
:1001E000000000000000000000000000000000000F
:1001F00000000000000000000000000000000000FF
:10020000FEE7FEE7FEE7FEE7FEE7FEE7FEE7FEE7C6
:10021000FEE7FEE700F002B8FFF7FCBF0F484FF023
:100220000701884385460E4880470E48016841F41F
:1002300070010160BFF34F8FBFF36F8F00F01AB8EA
:1002400009480A490A4A884207D0521A05D0037859
:1002500001300B700131013AF9D1704700000120E3
:100260004517000088ED00E0D46800000000002081
:100270000000002039493A480A1A02D00722914367
:100280008D46384938480A1A06D00722914381F32F
:100290000988022282F3148834483549354A00F02F
:1002A0003EF835483549364A00F039F83548364980
:1002B000364A00F034F836483649374A00F02FF80D
:1002C00036483749374A00F02AF837483749384A1C
:1002D00000F025F837483849384A00F020F8384807
:1002E0003849002200F033F837483849002200F03E
:1002F0002EF837483749091A06F0F9F9364A904777
:1003000024482549884205D00268043003B4904748
:1003100003BCF7E700200021304A9047FEE78842FF
:1003200014D0521A12D003460B4313430324234222
:1003300006D1036804300B600431043AF9D17047E8
:10034000037801300B700131013AF9D170478842CE
:1003500002D002700130FAE770470000000001206F
:1003600000E000200000012000000120747E000059
:10037000000000206C000020E0030000E00300000B
:1003800060680000747E0000000000200000002073
:10039000D4680000D4680000D4680000D46800006D
:1003A000D4680000D4680000D4680000D46800005D
:1003B000717E0000E07E00006C0000206C000020D8
:1003C0006C000020D4570020D4570020D4570020C0
:1003D000D4570020D477002041020000F10B000028
:1003E00000B585B00190019B002B0AD0074B43F06C
:1003F00001030393019B9B010293039B029898477F
:1004000000E000BF05B05DF804FB00BF606B0000BA
:1004100000B583B00190019B0433184602F0A4FBA1
:1004200000BF03B05DF804FB00B58FB003900291EC
:10043000009313468DF8073000230D93029B099318
:100440009DF807300A93009B0B939DF840300C9366
:10045000039B043309A90022184602F0D3FC0D9037
:100460000D9B18460FB05DF804FB000000B583B08B
:100470000190019B1B68184600F0A0F80346002B72
:1004800004D105494FF4F67003F0FEFD4FF0A04390
:10049000184603B05DF804FBD468000000B585B0D1
:1004A0000190084611461A4603468DF803300B4664
:1004B0008DF8023013468DF8013001AB1846FFF776
:1004C000D5FF03909DF803209DF802305B001A438E
:1004D0009DF801309B001A439DF818301B0242EA38
:1004E00003019DF81C301B04019A1943039B02F57C
:1004F000E07243F8221000BF05B05DF804FB00B5C0
:1005000085B0039000230193002300930023012270
:1005100001210398FFF7C2FF00BF05B05DF804FB9F
:1005200000B585B0019001AB1846FFF79FFF03901F
:10053000019B012202FA03F31946039800F02AF8FE
:1005400000BF05B05DF804FB00B585B0019001ABBC
:100550001846FFF78BFF0390019B012202FA03F379
:100560001946039800F020F800BF05B05DF804FBC1
:1005700000B583B001900091009B002B03D101983E
:10058000FFF7E2FF02E00198FFF7CAFF00BF03B0E8
:100590005DF804FB82B001900091019B009AC3F8C2
:1005A000082500BF02B0704782B001900091019B06
:1005B000009AC3F80C2500BF02B0704784B00190C8
:1005C000019B5B09029300230393029B002B03D141
:1005D0004FF0FF33039300BF019B03F01F03019310
:1005E000039A019B22FA03F303F00103DBB21846DE
:1005F00004B0704700B583B00190019B002B0AD076
:100600004FF47A70FFF7ECFE019B013B0193019BD5
:10061000002BF5D100E000BF03B05DF804FB000043
:1006200082B00190034B1B680133024A136000BF84
:1006300002B07047D04B002000B585B003F020F821
:100640000390039B002B04D0124A7021039802F000
:10065000D9FC114A0121114803F050F80290029B85
:10066000002B04D00B4A7321029802F0CBFC0C4BF8
:1006700000221021184603F075F80190019B002B11
:1006800004D0044A7821019802F0BCFC00BF05B0F8
:100690005DF804FB0469000021060000506B0000B7
:1006A000B04B002082B001900091034B01221A70E0
:1006B00000BF02B0704700BF6C00002000B587B0DB
:1006C000224A03AB92E80300186004331970042037
:1006D000FFF73AFF0120FFF783FE1D4B00221A703F
:1006E00003A900230093002305221A48FFF79CFE6C
:1006F0000590059B002B06D0174A9621059802F01D
:1007000081FC00E020BF124B1B78DBB283F00103B9
:10071000DBB2002BF6D10420FFF702FF0A20FFF71F
:1007200069FF0E4B1B680A330C4A13600C4A0D4BD1
:10073000D31ADB081B0443F003030B49184605F0EA
:100740001DFA00BF07B05DF804FB00BF7069000030
:100750006C000020406B000004690000D04B0020BA
:1007600090680000606800006069000000B587B014
:100770000823ADF810300023ADF80C300420FFF74B
:10078000E3FE0120FFF72CFE144B00221A7003AB8E
:1007900004A90222009202221148FFF745FE0590AB
:1007A000059B002B06D00F4AAB21059802F02AFCCE
:1007B00000E020BF094B1B78DBB283F00103DBB202
:1007C000002BF6D10420FFF7ABFE0A20FFF708FE4E
:1007D0009DF80D30184607B05DF804FB6C00002052
:1007E000406B00000469000000B587B01823ADF825
:1007F00010300023ADF80C300420FFF7A5FE0120D7
:10080000FFF7EEFD144B00221A7003AB04A902227D
:10081000009202221148FFF707FE0590059B002B6E
:1008200006D00F4AC021059802F0ECFB00E020BF83
:10083000094B1B78DBB283F00103DBB2002BF6D14E
:100840000420FFF76DFE0A20FFF7CAFD9DF80D306A
:10085000184607B05DF804FB6C000020406B0000F8
:100860000469000000B585B0019000230393FFF7F1
:100870007DFF03468DF80B309DF90B30002B14DB08
:100880009DF80B3003F04003002B0CD0174A184B97
:10089000D31ADB081B0443F002039DF80B20154913
:1008A000184605F079F901231CE00A20FFF7A2FEA3
:1008B000114B1B680A33104A1360039B0A330393DE
:1008C000039A019B9A42D2D3084A094BD31ADB08F8
:1008D0001B0443F002039DF80B200849184605F05D
:1008E0005BF90023184605B05DF804FB9068000032
:1008F0006068000078690000D04B0020A469000007
:1009000000B589B003468DF80F309DF90F3003F024
:1009100003035BB243F010035BB2DBB28DF8173018
:1009200002238DF816300420FFF70EFE0120FFF79A
:1009300057FD2D4B00221A700DF117010023009373
:10094000002301222948FFF76FFD0790079B002B2A
:1009500006D0274AF921079802F054FB00E020BF97
:10096000214B1B78DBB283F00103DBB2002BF6D105
:100970001D4B00221A700DF1160100230093002375
:1009800001221A48FFF750FD0690069B002B06D067
:10099000174AFD21069802F035FB00E020BF124BFC
:1009A0001B78DBB283F00103DBB2002BF6D104200D
:1009B000FFF7B6FD9620FFF71DFE0E4B1B68963322
:1009C0000C4A13600C4A0D4BD31ADB081B0443F08E
:1009D00003039DF80F200A49184605F0DDF800BF13
:1009E00009B05DF804FB00BF6C000020406B000004
:1009F00004690000D04B002090680000606800008F
:100A0000D069000000B587B0C820FFF72BFF034670
:100A100083F00103DBB2002B0DD0264A264BD31AFC
:100A2000DB081B0443F001032449184605F0A6F82F
:100A30004FF0FF333AE0382303930023029304205E
:100A4000FFF782FD0120FFF7CBFC1D4B00221A703F
:100A500002AB03A90422009204221A48FFF7E4FC27
:100A60000590059B002B07D0174A4FF48D71059810
:100A700002F0C8FA00E020BF114B1B78DBB283F014
:100A80000103DBB2002BF6D10420FFF749FD0A2059
:100A9000FFF7A6FC9DF809301A049DF80A301B02E6
:100AA00013439DF80B2013430493049B184607B08F
:100AB0005DF804FB9068000060680000E8690000D1
:100AC0006C000020406B00000469000000B583B09A
:100AD0001A4A1B4BD31ADB081B0443F003031949C2
:100AE000184605F04BF80020FFF70AFFFFF77CFEE1
:100AF00003468DF80730114A114BD31ADB081B044B
:100B000043F003039DF807200F49184605F044F809
:100B1000FFF72CFE03468DF80630084A084BD31A1F
:100B2000DB081B0443F003039DF806200749184621
:100B300005F032F800BF03B05DF804FB90680000D8
:100B400060680000F8690000286A0000406A000040
:100B500000B587B003900B468DF80B300620FFF7E9
:100B6000F3FC134B00221A709DF80B200023009316
:100B7000002303990F48FFF757FC0590059B002BB6
:100B800007D00D4A40F24B11059802F03BFA00E005
:100B900020BF074B1B78DBB283F00103DBB2002BD5
:100BA000F6D10620FFF7BCFC00BF07B05DF804FBE0
:100BB0006C000020406B00000469000000B583B0A9
:100BC0004FF48041002004F00FFD0190019B002BA9
:100BD00005D0064A40F25F11019802F013FA04F0C2
:100BE00099FC00BF03B05DF804FB00BF046900007E
:100BF00010B58EB0012000F005FBFFF7DFFFFFF717
:100C00001BFDB34AB34BD31ADB081B0443F00303A9
:100C1000B149184604F0B2FFB04B04AC0FCB84E8E6
:100C20000F0000238DF811301C238DF8123007239C
:100C30008DF81030FF238DF813304FF0806306934A
:100C400002238DF81C3000238DF81D3004A90023E9
:100C5000A34AA44800F03EFF0C900C9B002B05D04B
:100C6000A14A40F275110C9802F0CCF9984A994BC0
:100C7000D31ADB081B0443F003039C49184604F015
:100C80007DFF1420FFF73BFC0320FFF738FC0A2010
:100C9000FFF735FC0520FFF732FC0820FFF72FFC9B
:100CA0000420FFF72CFC0620FFF729FC0420FFF7A7
:100CB00037FC0620FFF734FC854A864BD31ADB0845
:100CC0001B0443F003038A49184604F057FF03232B
:100CD00019468848FFF73CFF032319468648FFF76B
:100CE00037FF7B4A7B4BD31ADB081B0443F003031B
:100CF0008249184604F042FF7A48FFF789FB032334
:100D00008DF81C3004A90023754A764800F0E2FEF5
:100D10000B900B9B002B05D0734A4FF4C7710B98B7
:100D200002F070F90420FFF7FBFB0620FFF7F8FB49
:100D3000674A684BD31ADB081B0443F0030370496E
:100D4000184604F01BFFFFF7B9FCFFF70FFD034641
:100D50008DF82B305E4A5F4BD31ADB081B0443F03F
:100D600003039DF82B206749184604F015FFFFF791
:100D7000ADFE574A574BD31ADB081B0443F003035D
:100D80006149184604F0FAFE0F238DF83730002031
:100D900000F0EAF99DF8373001338DF837309DF8CF
:100DA00037300F2B02D900238DF837309DF83730BC
:100DB000DB08DBB203F0010319460520FFF7D8FB7F
:100DC0009DF837309B08DBB203F0010319460A2077
:100DD000FFF7CEFB9DF837305B08DBB203F0010371
:100DE00019460320FFF7C4FB9DF8373003F00103D9
:100DF00019461420FFF7BCFB01210820FFF7B8FBC0
:100E00004FF4FA70FFF7F6FB404B1B6803F5FA73DB
:100E10003E4A1360FFF7F6FD0990FFF7A7FC034673
:100E20008DF82330394B1B680193099B02939DF881
:100E3000233003F04003002B14BF01230023DBB257
:100E40008DF80C309DF83730314A40F2B44101FB47
:100E500003F3134403F596631B88ADF83430BDF8F3
:100E60003430632B02D90023ADF834309DF83710AD
:100E7000BDF83420264813465B0013449B0040F223
:100E8000B44201FB02F2134403441C4601AB93E855
:100E9000070084E807009DF837301D4940F2B4424E
:100EA00003FB02F20A4402F596621288013290B204
:100EB000174A40F2B44101FB03F3134403F5966370
:100EC00002461A8004F0B6FE0346002BFAD15EE714
:100ED0009068000060680000586A0000306B0000F5
:100EE000A5060000406B000004690000706A000065
:100EF000946A00000000002004000020A86A00009E
:100F0000C06A0000E86A0000106B0000D04B0020AF
:100F10007000002000B583B00190019B1B6818464B
:100F200000F0D7F80346002B04D105494FF4F670C2
:100F300003F0AAF84FF0A043184603B05DF804FB95
:100F4000686B000000B585B00190084611461A464E
:100F500003468DF803300B468DF8023013468DF8AA
:100F6000013001AB1846FFF7D5FF03909DF8032031
:100F70009DF802305B001A439DF801309B001A4334
:100F80009DF818301B0242EA03019DF81C301B0437
:100F9000019A1943039B02F5E07243F8221000BF47
:100FA00005B05DF804FB00B585B003900023019304
:100FB000002300930023012201210398FFF7C2FFC1
:100FC00000BF05B05DF804FB00B585B003900B468B
:100FD0008DF80B309DF80B30002201920022009218
:100FE000002200210398FFF7ADFF00BF05B05DF8B8
:100FF00004FB00B585B0019001AB1846FFF78AFFEE
:101000000390019B012202FA03F31946039800F0B2
:101010004CF800BF05B05DF804FB00B585B0019049
:1010200001AB1846FFF776FF0390019B012202FAFD
:1010300003F31946039800F042F800BF05B05DF8CD
:1010400004FB00B585B0019001AB1846FFF762FFC5
:101050000390039BD3F804350293029BDA43019B70
:10106000012101FA03F31A40039BC3F80825019BF1
:1010700001229A40029B1A40039BC3F80C2500BF33
:1010800005B05DF804FB00B583B001900091009BB2
:10109000002B03D10198FFF7C0FF02E00198FFF792
:1010A000A8FF00BF03B05DF804FB82B0019000917F
:1010B000019B009AC3F8082500BF02B0704782B0B8
:1010C00001900091019B009AC3F80C2500BF02B06B
:1010D000704784B00190019B5B0902930023039346
:1010E000029B002B03D14FF0FF33039300BF019B02
:1010F00003F01F030193039A019B22FA03F303F009
:101100000103DBB2184604B07047000000B583B09D
:101110000190019B032B03D90749472002F0B4FF3C
:10112000064A019B13441B7801211846FFF7ABFFC9
:1011300000BF03B05DF804FB986B0000F06B00008B
:1011400000B583B00023019305E00198FFF7DEFFAF
:10115000019B01330193019B032BF6D900BF00BF14
:1011600003B05DF804FB000000B583B00190019B63
:10117000032B03D907495F2002F086FF064A019B33
:1011800013441B781846FFF75CFF00BF03B05DF8FF
:1011900004FB00BF986B0000F06B000000B583B04B
:1011A0000023019309E0094A019B13441B78184668
:1011B000FFF7F9FE019B01330193019B032BF2D949
:1011C000FFF7BEFF00BF03B05DF804FBF06B00004B
:1011D00000B583B0002301930AE0094A019B134440
:1011E0001B7803211846FFF7EFFE019B01330193A3
:1011F000019B032BF1D900BF00BF03B05DF804FBD6
:10120000F46B000000B583B00190019B03F0010373
:10121000002B01D0FFF7C2FF019B03F00203002B5C
:1012200001D0FFF7D5FF00BF03B05DF804FB00005D
:10123000BFF34F8F00BF064BDB6803F4E062044945
:10124000044B1343CB60BFF34F8F00BF00BFFDE7DC
:1012500000ED00E00400FA0582B01B4B1B68B3F1FF
:10126000FF3F0AD1194B1B68DBB20193184B1B6877
:101270001B0903F00F03009305E0134B1B68019358
:10128000144B1B680093019B062B19D1009B033B59
:10129000032B13D801A252F823F000BFAD120000B7
:1012A000B1120000B5120000B9120000012308E0DD
:1012B000012306E0012304E0012302E0012300E012
:1012C0000023184602B0704730010010E00F00F014
:1012D000E80F00F03401001082B0154B1B68DBB240
:1012E0000193144B1B681B0903F00F030093019B30
:1012F000062B19D1009B033B032B13D801A252F8F4
:1013000023F000BF15130000191300001D13000087
:1013100021130000012308E0002306E0002304E07D
:10132000002302E0002300E00023184602B07047CB
:10133000E00F00F0E80F00F082B01B4B1B68B3F128
:10134000FF3F0AD1194B1B68DBB20193184B1B6896
:101350001B0903F00F03009305E0134B1B68019377
:10136000144B1B680093019B062B19D1009B033B78
:10137000032B13D801A252F823F000BF8D130000F5
:10138000911300009513000099130000012308E059
:10139000012306E0012304E0012302E0012300E031
:1013A0000023184602B0704730010010E00F00F033
:1013B000E80F00F03401001082B0154B1B68DBB25F
:1013C0000193144B1B681B0903F00F030093019B4F
:1013D000062B19D1009B033B032B13D801A252F813
:1013E00023F000BFF5130000F9130000FD13000007
:1013F00001140000012308E0002306E0002304E0BC
:10140000002302E0002300E00023184602B07047EA
:10141000E00F00F0E80F00F082B01B4B1B68B3F147
:10142000FF3F0AD1194B1B68DBB20193184B1B68B5
:101430001B0903F00F03009305E0134B1B68019396
:10144000144B1B680093019B062B19D1009B033B97
:10145000032B13D801A252F823F000BF6D14000033
:10146000711400007514000079140000012308E0D5
:10147000012306E0012304E0012302E0012300E050
:101480000023184602B0704730010010E00F00F052
:10149000E80F00F03401001082B0154B1B68DBB27E
:1014A0000193144B1B681B0903F00F030093019B6E
:1014B000062B19D1009B033B032B13D801A252F832
:1014C00023F000BFD5140000D9140000DD14000083
:1014D000E1140000012308E0002306E0002304E0FB
:1014E000002302E0002300E00023184602B070470A
:1014F000E00F00F0E80F00F082B0154B1B68DBB284
:101500000193144B1B681B0903F00F030093019B0D
:10151000062B19D1009B033B032B13D801A252F8D1
:1015200023F000BF35150000391500003D150000FF
:1015300041150000012308E0002306E0002304E039
:10154000002302E0002300E00023184602B07047A9
:10155000E00F00F0E80F00F082B01B4B1B68B3F106
:10156000FF3F0AD1194B1B68DBB20193184B1B6874
:101570001B0903F00F03009305E0134B1B68019355
:10158000144B1B680093019B062B19D1009B033B56
:10159000032B13D801A252F823F000BFAD150000B1
:1015A000B1150000B5150000B9150000002308E0D2
:1015B000002306E0012304E0012302E0012300E010
:1015C0000023184602B0704730010010E00F00F011
:1015D000E80F00F03401001082B01B4B1B68B3F120
:1015E000FF3F0AD1194B1B68DBB20193184B1B68F4
:1015F0001B0903F00F03009305E0134B1B680193D5
:10160000144B1B680093019B062B19D1009B033BD5
:10161000032B13D801A252F823F000BF2D160000AF
:10162000311600003516000039160000012308E0CD
:10163000012306E0012304E0012302E0012300E08E
:101640000023184602B0704730010010E00F00F090
:10165000E80F00F03401001082B01B4B1B68B3F19F
:10166000FF3F0AD1194B1B68DBB20193184B1B6873
:101670001B0903F00F03009305E0134B1B68019354
:10168000144B1B680093019B062B19D1009B033B55
:10169000032B13D801A252F823F000BFAD160000AF
:1016A000B1160000B5160000B9160000012308E0CD
:1016B000012306E0012304E0012302E0012300E00E
:1016C0000023184602B0704730010010E00F00F010
:1016D000E80F00F03401001082B0134B1B68019337
:1016E000124B1B680093019B062B19D1009B033BF7
:1016F000032B13D801A252F823F000BF0D170000EE
:10170000111700001517000019170000002308E04A
:10171000002306E0002304E0012302E0012300E0AF
:101720000023184602B07047300100103401001049
:10173000024B034A1A6000BF704700BF0800002038
:101740000090D00308B5FFF787FD0346002B06D0B5
:10175000B74B1B681B0AB74A03F01F031360FFF760
:10176000BBFD0346002B02D0B34BB44A1A60FFF70F
:10177000E3FD0346002B06D0B14B1B685B0BB14A5F
:1017800003F007031360FFF717FE0346002B05D095
:10179000AD4BDB68AC4A23F08073D360FFF73CFEAF
:1017A0000346002B0ED04FF080430022C3F80C21DB
:1017B0004FF080430022C3F810214FF080430022F5
:1017C000C3F83825FFF768FE0346002B02D09F4B75
:1017D00003221A60FFF790FE0346002B0BD09C4BB0
:1017E00005221A609B4B01221A609B4B00221A6053
:1017F0009A4B3F221A60FFF7AFFE0346002B76D0CC
:101800004FF08053964AD3F80434C2F820354FF095
:101810008053934AD3F80834C2F824354FF08053EC
:101820008F4AD3F80C34C2F828354FF080538C4AD5
:10183000D3F81034C2F82C354FF08053884AD3F8CF
:101840001434C2F830354FF08053854AD3F8183439
:10185000C2F834354FF08053814AD3F81C34C2F8B3
:1018600040354FF080537E4AD3F82034C2F84435D7
:101870004FF080537A4AD3F82434C2F848354FF0F9
:101880008053774AD3F82834C2F84C354FF0805350
:10189000734AD3F82C34C2F850354FF08053704A55
:1018A000D3F83034C2F854354FF080536C4AD3F833
:1018B0003434C2F860354FF08053694AD3F8383475
:1018C000C2F864354FF08053654AD3F83C34C2F80F
:1018D00068354FF08053624AD3F84034C2F86C3513
:1018E0004FF080535E4AD3F84434C2F87035FFF7A6
:1018F00073FE0346002B05D05A4B1B685A4A03F06F
:101900004F031360FFF7A8FE0346002B0DD04FF0E6
:101910008043D3F8003403F00103002B05D04FF0CF
:1019200080436FF00102C3F80024FFF7D5FE0346A1
:10193000002B05D04D4B1B684C4A43F48063136069
:101940004B4BD3F888304A4A43F47003C2F88830CE
:10195000BFF34F8F00BFBFF36F8F00BF4FF0102357
:10196000D3F80C3203F00103012B25D1414B0122A6
:10197000C3F8042500BF3F4BD3F80034002BFAD046
:101980004FF01023D3F80C324FF0102223F0010354
:10199000C2F80C3200BF374BD3F80034002BFAD01A
:1019A000344B0022C3F8042500BF324BD3F8003477
:1019B000002BFAD0FFF73CFC4FF01023D3F8003295
:1019C000002B05DB4FF01023D3F80432002B2BDA69
:1019D000284B0122C3F8042500BF264BD3F800345E
:1019E000002BFAD04FF010231522C3F8002200BFBD
:1019F000204BD3F80034002BFAD04FF010231522DF
:101A0000C3F8042200BF1B4BD3F80034002BFAD0DC
:101A1000184B0022C3F8042500BF164BD3F800343E
:101A2000002BFAD0FFF704FCFFF782FE00BF08BDD1
:101A3000240300104035014074C007400DF0ADBADA
:101A4000440200103C050040F0ED00E0A00500401D
:101A5000105600408856004018560040145600406A
:101A600000C0004058020010E40E00403C17004047
:101A700000ED00E000E0014000B589B00190009168
:101A8000009B0793019B1B788DF80830019B5B68D6
:101A90000393019B9B68DBB28DF81030019BDB68E0
:101AA0000593019B1B69DBB28DF81830074A079B31
:101AB00052F823300649079A51F8221002AA10461C
:101AC000984700BF09B05DF804FB00BFD44B00206D
:101AD000E04B002010B58AB0039002910192009370
:101AE000039B1B7809932249099B019A41F8232003
:101AF0002049099B009A41F82320002308931E4B9C
:101B000004AC0FCB84E80F00029B1B788DF81030DB
:101B1000029B5B788DF81130029B9B788DF8123018
:101B2000029BDB788DF81330029B1B798DF8153002
:101B3000029B5B798DF81630029B9B680693029B93
:101B40001B7B8DF81C30029B5B7B8DF81D30039B4B
:101B5000181D019B002B01D0084A00E00022099BC0
:101B600004A900F019FF0890089B18460AB010BDA0
:101B7000D44B0020E04B0020F86B0000791A0000E5
:101B800000B583B00346ADF80630BDF80630184600
:101B900000F026F803461B68012B0CBF012300232D
:101BA000DBB2184603B05DF804FB00B585B0034610
:101BB000ADF80630BDF80630184600F011F80346BF
:101BC0001A4600231360BDF80630184600F008F8E6
:101BD00003461B680393039B00BF05B05DF804FB3D
:101BE00082B00346ADF80630BDF8063003F18043FD
:101BF00003F5C043184602B07047000082B0019060
:101C0000034BD3F80423019B1340184602B07047DE
:101C10000060004082B00190054A019B03F5A27369
:101C200052F823301B0A03F01F03184602B0704716
:101C30000060004082B00190064A019B03F5A27348
:101C400052F823301B0C03F00303DBB2184602B03A
:101C5000704700BF0060004000B583B00190019B59
:101C60001B68184600F095F80346002B04D105497F
:101C70004FF4F67002F008FA4FF0A043184603B094
:101C80005DF804FB386C000000B585B001900B4690
:101C90008DF8033001AB1846FFF7DEFF0390019A81
:101CA000039B02F5E07253F82230019A23F440318D
:101CB000039B02F5E07243F82210019A039B02F5A0
:101CC000E07253F822109DF803301B04019A194367
:101CD000039B02F5E07243F8221000BF05B05DF8E7
:101CE00004FB00B585B0019001AB1846FFF7B4FFC7
:101CF0000390019A039B02F5E07253F822301B0C0B
:101D000003F00303DBB2184605B05DF804FB86B0B0
:101D10000390029101924FF0A0430493039B05931B
:101D200019E0059B9B0018336B4453F8083CD3F82B
:101D30002025019B1A60059B9B0018336B4453F8C8
:101D4000083C019A1268C3F82025019B04330193D3
:101D5000059B01330593039A029B1344059A9A420B
:101D6000DFD300BF00BF06B0704700B585B001905B
:101D700001AB1846FFF770FF0390019B012202FAA6
:101D800003F31A46039BC3F8202500BF05B05DF896
:101D900004FB84B00190019B5B0902930023039331
:101DA000029B002B03D14FF0FF33039300BF019B35
:101DB00003F01F030193039A019B22FA03F303F03C
:101DC0000103DBB2184604B0704784B00190009163
:101DD000009B0393019BDB080293019B03F0070325
:101DE00001930122019B02FA03F30399029A0A4428
:101DF00012781340184604B07047000082B001907A
:101E0000044A019B1344303393F90030184602B062
:101E1000704700BFEC4B002082B00190034A019B49
:101E200052F82330184602B0704700BFEC4B002038
:101E300084B00190074A019B1344503393F900305A
:101E40008DF80F309DF80F3023F0C003184604B012
:101E5000704700BFEC4B002084B00190074A019B03
:101E60001344503393F900308DF80F309DF80F3044
:101E70009B09DBB2184604B0704700BFEC4B002052
:101E800000B585B00190019A01210020FFF73FFFC6
:101E9000002303930BE0039B9B00019A13441B68F0
:101EA000002B01D0012306E0039B01330393039B26
:101EB000002BF0D00023184605B05DF804FB0000AD
:101EC00000B587B00190002305935BE0344A059B81
:101ED0001344503393F90030B3F1FF3F4ED00598CF
:101EE000FFF7A6FF049001990498FFF76EFF0346E1
:101EF000002B44D00598FFF7AFFF03468DF80F3055
:101F00000498FFF7EEFE03468DF80E309DF80E3074
:101F1000022B01D1032300E002238DF80D309DF840
:101F20000D3019460498FFF7AFFE0498FFF71DFF28
:101F30000498FFF763FF03461846FFF76DFF029012
:101F4000029B002B1BD09DF80F30032B0FD09DF868
:101F50000E30022B03D19DF80F30012B07D09DF8D6
:101F60000E30032B0BD19DF80F30022B07D19DF8BB
:101F70000F20029B11460498984700E000BF059B84
:101F800001330593059B032BA0D90198FFF778FF38
:101F90000346002B97D100BF00BF07B05DF804FBDC
:101FA000EC4B002000B589B000230693002300937A
:101FB0004FF48073ADF8123001230793002305938B
:101FC00021E0BDF812301846FFF7DAFD0346002B7A
:101FD0000ED00798FFF712FE0346002B08D0BDF87D
:101FE00012301846FFF7E1FD069A079B134306934C
:101FF000079B5B000793BDF812300433ADF8123035
:10200000059B01330593059B072BDAD94FF4BE706E
:10201000FFF7B6FD0346002B0DD04FF4BE70FFF75F
:10202000C4FD069B43F0004306936B461A4601210C
:102030000020FFF76CFE069BDBB2002B29D00123AA
:1020400007930023059321E0079A069B1340002B7A
:1020500016D00598FFF7DEFD03900598FFF7EAFD1F
:1020600003468DF80B300598FFF7D6FE0190019BD3
:10207000002B05D09DF80B20019B11460398984733
:10208000079B5B000793059B01330593059B072B7B
:10209000DAD9069B002B03DA6B461846FFF710FFD0
:1020A00000BF09B05DF804FB08B5064B1B68002BA8
:1020B00003D10549512001F0E7FF024B1B68984707
:1020C00008BD00BF484C0020D86C000082B00190D1
:1020D000019B044A934201D1034B00E000231846C0
:1020E00002B0704700200040484C002000B587B087
:1020F00001900091019B002B03D11849772001F03A
:10210000C3FF0198FFF7E2FF0590059B002B1ED04F
:1021100000238DF81330002001F08EFB059B1B7906
:10212000002B03D001238DF8133005E0059B009AA6
:102130001A60059B01221A71002001F091FB9DF8A5
:102140001330002B03D011230393039B02E00023E1
:102150000393039B184607B05DF804FBD86C00009E
:1021600000B585B00190019B002B03D10A499B204B
:1021700001F08AFF0198FFF7A9FF0390039B002B52
:1021800005D0039B00221A60039B00221A7100BF36
:1021900005B05DF804FB00BFD86C000082B00346B8
:1021A0008DF807309DF8073003F1804303F5E043D5
:1021B00001221A6000BF02B0704782B00346ADF83A
:1021C0000630BDF8063003F1804303F5E0431B6899
:1021D000002B14BF01230023DBB2184602B0704766
:1021E00084B00346ADF80630BDF8063003F18043F5
:1021F00003F5E04300221A60BDF8063003F1804386
:1022000003F5E0431B680393039B00BF04B07047D2
:1022100082B001900091054A019BC2F82C36034A16
:10222000009BC2F8303600BF02B07047007000401B
:1022300000B58FB04FF48270FFF7BFFF0346002B4D
:1022400046D04FF48270FFF7CBFF8E4B93F82E30C1
:1022500083F00103DBB2002B04D18A4B93F82F30BB
:10226000002B35D000238DF81C30864B5B6808931B
:10227000844B1B899BB2ADF82430824BDB68002B6A
:1022800003D1804B00221A7419E07E4B1A8B7D4BD0
:102290005A837C4BDB687B4A53607A4B1A8B794BB1
:1022A0001A81784B0022DA60764B93F82E3083F057
:1022B0000103DBB2002B02D00020FFF76FFF714B50
:1022C0001B6807AA104698476E4B002283F82F2000
:1022D0006C4B93F82E30002B5ED04FF48070FFF7DC
:1022E0006CFF0346002B57D04FF48070FFF778FF48
:1022F000644B5B8B634A92F82D2093421BD9614B50
:102300005B8B604A92F82D209B1A9AB25D4B5A83E0
:102310005C4B5A685B4B1B899BB21946594B5B8BD4
:10232000CB1A5B001344574A92F82D2011461846E9
:10233000FFF76EFF29E0534B5B8B524A92F82D203A
:10234000934214D14F4BDB68002B10D04D4B012230
:1023500083F82F204B4B00225A834A4BDB68494AB3
:1023600092F82D2011461846FFF752FF0DE0454B1D
:102370005B8B444A92F82D20934206D1414B0122B7
:1023800083F82F203F4B00225A834FF48270FFF7CF
:1023900027FF0420FFF702FF4FF48870FFF70DFFBF
:1023A0000346002B0ED04FF48870FFF719FF354B12
:1023B00000221A7402238DF81030324B1B6804AAD5
:1023C000104698474FF48A70FFF7F7FE0346002B3C
:1023D00007D04FF48A70FFF703FF2A4B00221A74CC
:1023E0004CE0284B5B690D9345E00D9B0A930A9BDB
:1023F000002B01D1202303E00A9BB3FA83F3DBB265
:102400000C934FF000420C9B22FA03F3DB430D9A2E
:1024100013400D930C9B9BB246339BB29B00ADF8CF
:102420002E30BDF82E301846FFF7C7FE0346002BAE
:1024300021D0BDF82E301846FFF7D2FE01238DF8CB
:102440000430BDF82E30A3F58C73DB08DBB28DF8B9
:102450000830BDF82E30A3F58C7303F00403002B75
:102460000CBF01230023DBB28DF80930054B1B683C
:1024700001AA104698470D9B002BB6D100BF0FB0A4
:102480005DF804FB504C002082B003468DF8073005
:102490009DF90730002B0CDB9DF8073003F01F027D
:1024A00005499DF907305B09012000FA02F241F865
:1024B000232000BF02B0704700E100E082B0034675
:1024C0008DF807309DF90730002B13DB9DF807309E
:1024D00003F01F0209499DF907305B09012000FA4A
:1024E00002F2203341F82320BFF34F8F00BFBFF328
:1024F0006F8F00BF00BF02B0704700BF00E100E077
:1025000082B0034600918DF807309DF90730002B0B
:102510000ADB009BDAB20C499DF907305201D2B2B6
:102520000B4483F800230BE0009BDAB207499DF8C7
:10253000073003F00F03043B5201D2B20B441A766A
:1025400000BF02B0704700BF00E100E000ED00E016
:1025500082B00190019B03F06043B3F1005F0CBFB8
:1025600001230023DBB2184602B0704782B001900D
:10257000019B1B0B5BB2184602B0704700B583B0DD
:1025800003460A468DF8073013468DF806309DF84D
:102590000630072B03D908496B2001F075FD9DF823
:1025A00006209DF9073011461846FFF7A9FF00BF26
:1025B00003B05DF804FB00BF086E000000B583B0F7
:1025C00003468DF807309DF907301846FFF75CFF8A
:1025D00000BF03B05DF804FB00B583B003468DF87F
:1025E00007309DF907301846FFF768FF00BF03B0BA
:1025F0005DF804FB82B001900B468DF803309DF826
:102600000330019A134401221A6000BF02B07047E0
:1026100084B001900B46ADF80230BDF80230019A4B
:10262000134400221A60BDF80230019A13441B685B
:102630000393039B00BF04B0704782B001900B4628
:10264000ADF80230BDF80230019A13441B68002B2C
:1026500014BF01230023DBB2184602B0704782B0DA
:1026600001900091019B009AC3F8042300BF02B0BF
:10267000704782B001900091019B009AC3F8082333
:1026800000BF02B0704782B00190019B0722C3F8DF
:10269000002500BF02B0704782B00190019B00226C
:1026A000C3F8002500BF02B0704784B003900291C8
:1026B00001920093039B029AC3F80825039B019A99
:1026C000C3F80C25039B009AC3F8102500BF04B083
:1026D000704782B001900091009A019BC3F82425B5
:1026E00000BF02B0704784B0039002910192029A39
:1026F000039BC3F84425039B019AC3F8482500BFF8
:1027000004B0704784B0039002910192029A039B37
:10271000C3F83425039B019AC3F8382500BF04B0E1
:10272000704784B001900B468DF8033013468DF846
:1027300002309DF80230002B14BF01230023DBB2CE
:1027400003939DF80330032B10D0032B13DC012BD4
:1027500002D0022B05D00EE0039B43F0020303934B
:102760000AE0039B43F00403039305E0039B43F05B
:102770000603039300E000BF019B039AC3F85425AE
:1027800000BF04B0704782B001900B468DF8033053
:102790009DF80320019BC3F8C02500BF02B070471D
:1027A00082B00190019B0122C3F8502500BF02B006
:1027B000704782B00190019B0022C3F8502500BFF2
:1027C00002B0704782B00190019B0122C3F84025FE
:1027D00000BF02B0704782B00190019B0022C3F895
:1027E000402500BF02B0704700B583B00190019B47
:1027F0001B68184600F0B4F80346002B04D10549C5
:102800004FF4F67001F040FC4FF0A043184603B0BF
:102810005DF804FB386E000000B585B001900846F5
:1028200011461A4603468DF803300B468DF80230E8
:1028300013468DF8013001AB1846FFF7D5FF039022
:102840009DF803209DF802305B001A439DF801308B
:102850009B001A439DF818301B0242EA03019DF8C1
:102860001C301B04019A1943039B02F5E07243F8E4
:10287000221000BF05B05DF804FB00B585B00390E1
:1028800000230193002300930023012201210398D8
:10289000FFF7C2FF00BF05B05DF804FB00B585B0CF
:1028A00003900B468DF80B309DF80B3000220192FF
:1028B00000220092002200210398FFF7ADFF00BF25
:1028C00005B05DF804FB00B585B0039000230193CB
:1028D000002300930023012200210398FFF79CFFAF
:1028E00000BF05B05DF804FB00B585B0019001ABF9
:1028F0001846FFF779FF0390019B012202FA03F3C8
:102900001946039800F018F800BF05B05DF804FB05
:1029100000B585B0019001AB1846FFF765FF039045
:10292000019B012202FA03F31946039800F00EF806
:1029300000BF05B05DF804FB82B001900091019BDF
:10294000009AC3F8082500BF02B0704782B001901A
:102950000091019B009AC3F80C2500BF02B070479C
:1029600084B00190019B5B09029300230393029BB7
:10297000002B03D14FF0FF33039300BF019B03F003
:102980001F030193039A019B22FA03F303F001034F
:10299000DBB2184604B0704700B58DB005900491C5
:1029A00003920293049B002B03D16C49AD2001F0EC
:1029B0006BFB059B1B791A461346DB0013449B00F7
:1029C000674A13440A930A9B1B7F002B03D00823FA
:1029D0000793079BBDE0059B1B680993059B1A683D
:1029E000059B1B7919465F4B53F821301946104659
:1029F000FFF77CFB0346002B03D011230793079BB3
:102A0000A7E00A9B039A1A600A9B029A5A60049BE9
:102A10001B7B012B05D8049B1B781846FFF778FF1A
:102A200004E0049B1B781846FFF75EFF049B1B78AD
:102A30001846002301930023009300230022012164
:102A4000FFF7EAFE049B5B78FF2B09D0049B5B78C1
:102A50000B930B98FFF75CFF0B98FFF70EFF02E05C
:102A60004FF0FF330B93049B9B78FF2B07D0049B05
:102A70009B78089301210898FFF710FF02E04FF0C0
:102A8000FF330893049B9A780A9B83F82020049BC9
:102A9000DA780A9BDA77049BDB78FF2B17D0049B4C
:102AA0001B79002B05D0049BDB781846FFF730FF1D
:102AB00004E0049BDB781846FFF716FF049BDB78E5
:102AC0001846FFF7DAFE049B1A790A9B9A77049B53
:102AD0001B781946089B0B9A0998FFF7E6FD049BA3
:102AE0009B6819460998FFF7F4FD049B197B049B2A
:102AF0005B7B1A460998FFF714FE049B9B791946E5
:102B00000998FFF740FE0998FFF7BDFD0A9B1B6877
:102B1000002B15D0059B1B681846FFF727FD0346C1
:102B20001A46049B5B7919461046FFF727FD059B63
:102B30001B681846FFF71AFD03461846FFF73EFDCF
:102B40000A9B00225A770A9B01221A7700230793D7
:102B5000079B18460DB05DF804FB00BF706E0000C7
:102B6000804C0020E46E000000B585B00190019B10
:102B70001B791A461346DB0013449B002A4A134470
:102B80000393039B1B7F002B04D128494FF4AE70A5
:102B900001F07AFA039B1B68002B08D0019B1B688D
:102BA0001846FFF7E3FC03461846FFF715FD019BA7
:102BB0001B680293039B1B68002B1BD01C490298C7
:102BC000FFF757FD039B5B7FDBB2002B12D0142174
:102BD0000298FFF70FFD00BF4FF482710298FFF7D4
:102BE0002CFD034683F00103DBB2002BF4D1039BE1
:102BF00000225A77039B93F82030FF2B05D0039BCC
:102C000093F820301846FFF75EFE0298FFF744FD68
:102C1000019B1B681846FFF7A3FA039B00221A7753
:102C200000BF05B05DF804FB804C0020706E000012
:102C30005201080000B583B00190019BDB7FFF2BA0
:102C40000ED0019B9B7F002B05D0019BDB7F18469C
:102C5000FFF75EFE04E0019BDB7F1846FFF744FEB2
:102C6000019B00225A77019B00221A72019B1B686C
:102C7000019A02F10800019A52681146984700BF74
:102C800003B05DF804FB00B583B001900B468DF8EE
:102C900003309DF8033083F00103DBB2002B04D036
:102CA00040210198FFF7E5FC03E040210198FFF780
:102CB000D6FC00BF03B05DF804FB00B583B0019003
:102CC0000091009B03F00103002B03D00198FFF754
:102CD00067FD02E00198FFF76CFD009B03F0020323
:102CE000002B03D00198FFF76DFD02E00198FFF77C
:102CF00072FD00BF03B05DF804FB00B587B0039020
:102D0000029101920093019B1B68002B0AD0019B4A
:102D10001B681846FFF71CFC034683F00103DBB277
:102D2000002B0ED1019B9B68002B11D0019B9B684F
:102D30001846FFF70DFC034683F00103DBB2002BBE
:102D400006D0029B00225A7710230593059B54E07E
:102D5000019B1968019B5B681A460398FFF7C3FC47
:102D6000019B9968019BDB681A460398FFF7CAFC30
:102D70004FF48C710398FFF74BFC00990398FFF711
:102D80009CFF009B03F00803002B03D11021039844
:102D9000FFF730FC029B1B68002B1FD100BF4FF4D4
:102DA0008C710398FFF749FC034683F00103DBB203
:102DB000002BF4D1029BDB7FFF2B1BD0029B9B7F60
:102DC000002B05D0029BDB7F1846FFF7A1FD11E029
:102DD000029BDB7F1846FFF787FD0BE0009B03F0AB
:102DE0000403002B0CBF01230023DBB21946039818
:102DF000FFF749FF00230593059B184607B05DF8D0
:102E000004FB000010B586B0039002910192039B71
:102E10001B791A461346DB0013449B00394A1344BE
:102E20000593059B1B7F002B04D1374940F22D20D1
:102E300001F02AF9029B1B68002B08D1029B5B68FA
:102E4000002B04D0304940F22E2001F01DF9029BE6
:102E50009B68002B08D1029BDB68002B04D02A4919
:102E600040F22F2001F010F9039B1B79002B07D1B2
:102E7000029BDB68FF2B03D8029B5B68FF2B04D906
:102E800021494FF40C7001F0FFF800230493059BD7
:102E90005B7FDBB2002B03D011230493049B2EE055
:102EA000059B1B68002B07D0019B03F01403002B2C
:102EB00002D1059B01225A77059B029A03F10C046B
:102EC00013460FCB84E80F00059BDB7FFF2B0ED052
:102ED000059B9B7F002B05D0059BDB7F1846FFF7EA
:102EE00003FD04E0059BDB7F1846FFF711FD039B04
:102EF0001868019B029A0599FFF7FFFE03461846E2
:102F000006B010BD804C0020706E000000B583B08C
:102F1000019000914FF48C710198FFF78EFB0346EE
:102F2000002B10D04FF48C710198FFF771FB009BC0
:102F30001B68002B04D1064940F2972001F0A4F849
:102F40000098FFF777FE00BF03B05DF804FB00BFF9
:102F5000706E000008B503490348FFF7D7FF00BFB4
:102F600008BD00BF804C00200030004086B00390B8
:102F70000291019201238DF817309DF81730204AF5
:102F8000039B13601E4A029B53601D4A019B936082
:102F9000039B44F20102934212D0039B44F20202CB
:102FA000934220D1019B164AD360154BDB681B6806
:102FB000134A9361124BDB685B68114AD36112E0DC
:102FC000019B0F4A13610E4B1B699B680C4A5361AE
:102FD0000B4B1B691B680A4A9361094B1B695B68B1
:102FE000074AD36100BF72B600BF00BF9DF817301B
:102FF000DBB2002BFAD162B600BF00BF06B070474B
:10300000A44C002000B583B002900091019244F2DC
:10301000010071466A4600F003F803B000BD00BF2E
:1030200030B58BB007900691059272B600BF03F0E1
:103030003FF802F0FFFD0346002BFAD1079B44F254
:103040000102934216D0079B44F2020293423ED102
:10305000059B09932C4A2D4BD31ADB081B0443F024
:103060000100099B5B681A46099B1B68284902F00E
:10307000A4FD39E0059B0893234A244BD31ADB08AF
:103080001B0443F00104089B9D68089B9B6818463D
:1030900002F0CAF803461846089B5B681946089B6D
:1030A0001B68069A02920193009103462A46194929
:1030B000204602F096FD144A144BD31ADB081B0479
:1030C00043F001031449184602F058FD0CE00E4A83
:1030D0000E4BD31ADB081B0443F00103069A0F4979
:1030E000184602F059FD00BF0D4B1B6803F00103A9
:1030F000002B00D000BE059A06990798FFF736FF0F
:1031000000BF0BB030BD00BF9068000060680000D9
:10311000EC70000008710000307100004471000084
:10312000F0ED00E02DE9F04383B0144800F083FF98
:10313000034600221C461546114BD3E9002314EB2D
:10314000020845EB0309CDE900890E4BD3E90023C2
:10315000DDE90001904271EB030307D2DDE90023B2
:1031600012F1807643F10007CDE90067DDE9002325
:103170001046194603B0BDE8F08300BF0C000020E4
:10318000D04C0020D84C002088B001900091019BC9
:103190000793009B0693079BD3E90223CDE9042301
:1031A000069BD3E90223CDE90223DDE90423DDE90F
:1031B0000201904271EB03032CBF01230023DBB219
:1031C000184608B070470000F0B585B00190019B2B
:1031D0005B69002B03D12B49A22000F055FF00238F
:1031E0008DF80F30284B1B78002B45D0019B002B0E
:1031F00042D0019B1B7FDBB2002B3DD0FFF792FF3B
:10320000019BD3E90223904271EB03032CD3019B72
:103210001B69002B02D1019B00221A77019B5B697D
:10322000019A926910469847019B1B69002B23D095
:10323000019B1B7FDBB2002B1ED0019BD3E9022335
:103240000199096900200C460546161943EB05074C
:10325000019BC3E90267019B19460C4801F03EFF40
:1032600001238DF80F3007E0019B1946074801F054
:1032700035FF01238DF80F309DF80F30184605B04B
:10328000F0BD00BF68710000C84C0020D071000084
:10329000F0B589B0019000910D230793009B0022A7
:1032A0001A70019BD3E90245FFF73CFF02460B462B
:1032B000A61A65EB0307CDE90467DDE90423012ABB
:1032C00073F100031BDB049BB3F5350F05D300F04E
:1032D0008DFA0246154B134403E0019BD3E9022308
:1032E000134603934FF49603039A0021104800F00D
:1032F00095FD0790079B002B05D1012313E00021CA
:103300000B4800F063FE079B0D2B07D10198FFF7D8
:103310005BFF03461A46009B1A7003E00549F5203F
:1033200000F0B2FE0023184609B0F0BDFFFFB40064
:103330000C0000206871000000B583B0044801F063
:1033400007FF0190019B184603B05DF804FB00BF26
:10335000D071000000B583B0044801F01BFF01905C
:10336000019B184603B05DF804FB00BFD07100005C
:1033700000B583B0FFF7E0FF0190019B002B02D066
:10338000019B00221A77019B002BF3D100BF00BFE5
:1033900003B05DF804FB0000054BD3E9002312F1F4
:1033A000807043F10001024BC3E9000100BF704788
:1033B000D04C002010B582B00190124B1B68002B3E
:1033C0001DD0019800F037FE04460021019800F05E
:1033D00023FE03461946204600F0FCF90346B3F5E8
:1033E000960F04D308494FF4957000F04DFE054B3D
:1033F0001B681846FFF7E8FE024B00221A6000BF68
:1034000002B010BDC44C00206871000000B583B04C
:103410000190FFF787FE02460B460349C1E90023EE
:1034200000BF03B05DF804FBD84C002000B585B0A8
:103430000190FFF78FFF039000238DF80B30039B63
:10344000002B48D02B4B1B68002B03D101238DF898
:103450000B3019E0039BD3E90201264B1B68D3E92B
:103460000223904271EB03030ED201238DF80B303F
:10347000204B1B681B7FDBB2002B05D01D4B1B684C
:1034800019461D4801F02AFE9DF80B30002B2AD06A
:10349000FFF752FF03900DF10A0319460398FFF757
:1034A000F7FE0346002B12D0124B1B68002B02D1F3
:1034B000019800F0BFFB0F4A039B13609DF80A3090
:1034C00083F00103DBB2002BB3D000BF0EE0094B49
:1034D00000221A60ADE7074B1B68002B05D101984D
:1034E00000F0BEFB01E000BF00E000BF00BF05B080
:1034F0005DF804FBC44C0020D071000000B587B01B
:1035000001902C4A03AB1946104600F0A8FE059026
:1035100048E0059B1B78022B2ED0022B32DC002BBF
:1035200002D0012B14D02DE0059B5B681B7FDBB222
:1035300083F00103DBB2002B26D0059B5B680122E0
:103540001A77059B5B6819461B4801F0C7FD1BE015
:10355000059B5A68194B1B689A4203D1174B0022EE
:103560001A6012E0059B5B681946134801F026FEBD
:1035700003468DF8133008E0FFF7FAFE104B0122E6
:103580001A7002E000BF00E000BF0A4A03AB194610
:10359000104600F07DFE074A03AB1946104600F0C6
:1035A0005EFE0590059B002BB3D100BF00BF07B0A6
:1035B0005DF804FB384D0020D0710000C44C0020A1
:1035C000C84C002000B583B00190019800F0F1FCD8
:1035D0000346002B01D0FFF7DFFE0021019800F029
:1035E00006FD0346002B02D00198FFF7E3FE012100
:1035F000019800F0FCFC0346002B02D00198FFF775
:1036000005FF0198FFF77AFF0198FFF70FFF00BF52
:1036100003B05DF804FB000008B5024800F018FD97
:1036200000BF08BD0C00002000B585B00346009126
:103630008DF80730114A02AB1946104600F0E2FD42
:103640000390039B002B13D0039B9DF807201A7057
:10365000039B009A5A60094A02AB1946104600F0D3
:10366000EAFD0346002B01D0FFF7D6FF002300E060
:103670000423184605B05DF804FB00BF384D002058
:1036800000B583B0164B1B680093164808235822D8
:10369000154900F084FD0190019B002B01D0019B96
:1036A00019E06B46114A1946114800F045FA01909D
:1036B000019B002B01D0019B0DE001210C4800F083
:1036C00067FC01230B4A0121094800F0DFFA0A4B8D
:1036D00001221A70019B184603B05DF804FB00BF7D
:1036E000CC710000384D0020E04C0020C5350000B2
:1036F0000C000020FFFF7F00C84C002000B587B001
:1037000003900B4601928DF80B30039B002B04D1E4
:10371000134940F22E2000F0B7FC019B002B04D18E
:103720000F4940F22F2000F0AFFC019B002B01D18C
:10373000072310E0039B1B680593059B019A5A61C0
:103740009DF80B30012B0CBF01230023DBB21A467E
:10375000059B1A610023184607B05DF804FB00BF03
:1037600068710000F0B587B0039002910192039B4D
:10377000002B04D1164940F23E2000F085FC039B4B
:103780000593059B1B7FDBB2002B01D000231CE0BF
:10379000059B019A9A61FFF7C5FC02460B46029908
:1037A00000200C460546161943EB0507059BC3E9A7
:1037B0000267059B1B69002B02D0059B029A1A61C8
:1037C00005990020FFF730FF0346184607B0F0BD0B
:1037D0006871000082B001900091019A009BD31A99
:1037E00023F07F43184602B07047000008B5034835
:1037F00000F021FC0346184608BD00BF0C00002065
:1038000072B600BF034B1B680133024A136000BF4E
:10381000704700BF4C4D0020064B1B68013B054A1A
:103820001360044B1B68002B01D162B600BF00BFC0
:10383000704700BF4C4D002000B583B0019000F0F0
:1038400025F80346012B03D00449432000F01CFC5B
:10385000FFF7D6FF00BF03B05DF804FBDC7100008A
:1038600000B583B003468DF8073000F00FF803462B
:10387000012B03D00449512000F006FCFFF7CCFFD8
:1038800000BF03B05DF804FBDC71000084B0EFF30F
:1038900005830193019BC3F308030393039B002B50
:1038A0000DD1EFF314830093009B0293029B03F06E
:1038B0000103002B0CBF01230023DBB200E0012336
:1038C000184604B07047000082B003468DF80730F8
:1038D0009DF90730002B0CDB9DF8073003F01F0229
:1038E00005499DF907305B09012000FA02F241F811
:1038F000232000BF02B0704700E100E082B0034621
:103900008DF807309DF90730002B0DDB9DF807304F
:1039100003F01F0206499DF907305B09012000FAF8
:1039200002F2403341F8232000BF02B0704700BFCD
:1039300000E100E082B0034600918DF807309DF968
:103940000730002B0ADB009BDAB20C499DF90730E7
:103950005201D2B20B4483F800230BE0009BDAB291
:1039600007499DF8073003F00F03043B5201D2B220
:103970000B441A7600BF02B0704700BF00E100E0C0
:1039800000ED00E000B583B003460A468DF807302D
:1039900013468DF806309DF80630072B03D90849E9
:1039A0006B2000F071FB9DF806209DF90730114651
:1039B0001846FFF7BFFF00BF03B05DF804FB00BF70
:1039C0004872000000B583B003468DF807309DF9BA
:1039D00007301846FFF778FF00BF03B05DF804FB1F
:1039E00000B585B00190019B002B0AD0074B43F036
:1039F00001030393019B9B010293039B0298984749
:103A000000E000BF05B05DF804FB00BF607300007C
:103A100084B0039002910192039B029A02F5A8726E
:103A2000019943F8221000BF04B0704782B00190A2
:103A30000091019B009A02F5A87253F822301846B3
:103A400002B0704782B001900091019B009AC3F8C8
:103A5000042300BF02B0704782B001900091019B27
:103A6000009AC3F8082300BF02B0704782B00190EB
:103A70000B46ADF80230BDF80230019A13441B68C2
:103A8000184602B0704784B001900B46ADF8023082
:103A9000BDF80230019A134400221A60BDF80230CA
:103AA000019A13441B680393039B00BF04B0704743
:103AB00082B00190019BD3F80435184602B07047DC
:103AC00000B583B001900091009BB3F5805F04D3F3
:103AD00006494FF4BE7000F0D7FA019B009AC3F874
:103AE000082500BF03B05DF804FB00BF787200003A
:103AF00082B001900B468DF803309DF80320019BA6
:103B000013441A460123136000BF02B0704782B00D
:103B100001900091019B009AC3F8442300BF02B0BA
:103B2000704782B001900091019B009AC3F848232E
:103B300000BF02B07047000000B587B0039002914B
:103B40000192039B002B03D13349552000F09CFACE
:103B5000029B002B03D13049562000F095FA019BBF
:103B6000002B03D12C49572000F08EFA039B5B7980
:103B700019462A4A019B42F82130039B5B79284A67
:103B8000DB0013441B79002B0ED008230593254A34
:103B9000254BD31ADB081B0443F0020323491846C4
:103BA00001F0ECFF059B32E0039B1A68029B1B8827
:103BB00019461046FFF784FF039B93F90420029BEC
:103BC0009B7819461046FFF7DDFE039B93F90430FE
:103BD0001846FFF7F7FE039B5B79114ADB0013449D
:103BE00001221A71039B5B7919460D4A039B42F827
:103BF0003130002305930B4A0B4BD31ADB081B040F
:103C000043F003030A49184601F0B8FF059B184624
:103C100007B05DF804FB00BFA8720000504D002003
:103C2000544D0020A0680000606800000873000088
:103C30002C73000000B583B00190019B002B03D1D1
:103C40000649872000F020FA019B1B6800211846D6
:103C5000FFF74EFF00BF03B05DF804FBA872000041
:103C600000B583B00190019B002B03D106498D2044
:103C700000F00AFA019B1B6804211846FFF738FF81
:103C800000BF03B05DF804FBA872000000B587B068
:103C90000390029101928DF80330039B002B03D116
:103CA0002149962000F0F0F94FF48032029B02FA8D
:103CB00003F30593029B50339BB29B00ADF8123087
:103CC000019B23F07F430193039B1B6805991846D2
:103CD000FFF7C2FE039B1B6805991846FFF721FFFB
:103CE000039B1B68BDF8122011461846FFF7CBFE58
:103CF000039B1B68019A02991846FFF789FE039BF4
:103D00001B6805991846FFF702FF9DF80330002B4A
:103D100005D0039B1B6805991846FFF793FE00BF6B
:103D200007B05DF804FB00BFA872000000B585B0C5
:103D30000390029113468DF80730039B002B03D1AB
:103D40000B49A92000F0A0F9039B1B6802991846B3
:103D5000FFF7DDFE9DF80730002B05D0039B1B68A5
:103D600002991846FFF76EFE00BF05B05DF804FB30
:103D7000A872000000B583B001900091019B002B58
:103D800003D10A49B32000F07FF9019B1B68009919
:103D90001846FFF7C6FE019B1B6800991846FFF7FF
:103DA0005BFE00BF03B05DF804FB00BFA87200001B
:103DB00000B583B001900B46ADF80230019B002B9B
:103DC00003D10F49BA2000F05FF9019B1B68BDF8D1
:103DD000022011461846FFF749FE0346002B09D082
:103DE000019B1B68BDF8022011461846FFF74BFEE9
:103DF000012300E00023184603B05DF804FB00BF78
:103E0000A872000082B001900091019A009BD31A21
:103E100023F07F43184602B07047000000B58BB016
:103E20000390029101920093039B002B03D1574909
:103E3000CD2000F029F94FF48032029B02FA03F3FF
:103E40000993029B50339BB29B00ADF82230019B3B
:103E500023F07F43019309990398FFF78BFF039B9E
:103E60001B681846FFF724FE0790039B1B68029906
:103E70001846FFF7DBFD0690039B1B68079A029923
:103E80001846FFF7C5FD039B1B68BDF822201146AD
:103E90001846FFF7F8FD07990698FFF7B3FF0346AA
:103EA000012B0AD11020FFF79BFD039B1B68BDF877
:103EB000222011461846FFF7E6FD039B1B681846B3
:103EC000FFF7F6FD079007990198FFF79BFF059014
:103ED000039B1B6809991846FFF719FE059B012BE8
:103EE00015D1039B1868019B01331A460299FFF70D
:103EF0008FFD1020FFF774FD039B1B681846FFF72A
:103F0000D7FD0246079B934235D00D2339E0039B32
:103F10001B68019A02991846FFF77AFD039B1B68FC
:103F20001846FFF7C5FD0790019B013B079918460E
:103F3000FFF768FF0590009BC3F1FF1303F57F4374
:103F4000059A9A4201D90D231BE0059B002B12D143
:103F5000039B1868019B01331A460299FFF758FD2D
:103F6000039B1B681846FFF7A3FD0246079B93427D
:103F700001D00D2305E0012209990398FFF7D6FE31
:103F8000002318460BB05DF804FB00BFA8720000C8
:103F900000B583B001900B468DF803309DF80330D7
:103FA0001A4602210198FFF7C1FE00BF03B05DF879
:103FB00004FB00B583B001904FF482710198FFF7C4
:103FC000F7FE0346184603B05DF804FB00B583B066
:103FD000019000914FF48032009B02FA03F31946DE
:103FE0000198FFF7C7FE00BF03B05DF804FB00B502
:103FF00085B001900091009B50339BB29B00ADF8BF
:104000000E30BDF80E3019460198FFF7D1FE034679
:10401000184605B05DF804FB00B583B0019000912F
:10402000019B1B6800991846FFF700FD03461846E0
:1040300003B05DF804FB00B583B00190019B1B68E1
:104040001846FFF735FD0346184603B05DF804FB3C
:1040500000B583B00190019B93F904301846FFF737
:104060004DFC00BF03B05DF804FB000008B5044B35
:104070001B68044A12681046984700BF08BD00BF7D
:10408000504D0020544D002000B585B003460091EE
:10409000ADF80630BDF806300293009B039302ABE7
:1040A0001A46002144F20200FEF7BAFF00BF05B035
:1040B0005DF804FB86B001900091019B53E8011F5D
:1040C0008AB2D88902449889824228BF121A188974
:1040D000824202BFBFF32F8F002307E0C2EA010232
:1040E00043E801200028E9D14FF001038DF80F309B
:1040F000059002910492029A009B1A609DF80F307D
:10410000DBB2184606B0704784B00190019951E8BF
:10411000013FC3EA034341E80132002AF7D1039289
:10412000029300BF04B0704786B001900091019BDC
:1041300053E8021F1FFAA1F2D888824202BFBFF3E0
:104140002F8F00230DE0D88902449889824228BF2E
:10415000121AC1EA024243E802200028E8D14FF0D7
:1041600001038DF80F30059002910492029A009B92
:104170001A609DF80F30DBB2184606B0704784B065
:104180000190019951E8023FC3EA234341E802321A
:10419000002AF7D10392029300BF04B0704784B0A5
:1041A0000390029111461A460B46ADF806301346AD
:1041B000ADF80430029B002B01D10E231FE0BDF8A7
:1041C0000630BDF80420B3FBF2F101FB02F29B1AAA
:1041D0009BB2002B01D0092311E0039B029A1A60C5
:1041E000039B00225A60039B00229A60039BBDF848
:1041F00006209A81039BBDF80420DA81002318462B
:1042000004B0704700B585B001900091009B19463D
:104210000198FFF74FFF0346002B07D0019B1B6857
:10422000009A128813440393039B00E0002318466E
:1042300005B05DF804FB00B583B001900091009BD0
:104240001A88009B5B889A4204D10198FFF75CFFB3
:10425000012300E00023184603B05DF804FB00B51D
:1042600085B001900091009B19460198FFF75CFF13
:104270000346002B07D0019B1B68009A5288134409
:104280000393039B00E00023184605B05DF804FB90
:1042900000B583B001900091009B1A88009B5B8859
:1042A0009A4204D10198FFF76AFF012300E000233E
:1042B000184603B05DF804FB10B487B0019000917C
:1042C000019B009A53E8004F104643E8000191F02B
:1042D000000FF7D1059404900391059B184607B091
:1042E0005DF8044B704710B487B001900091019BBA
:1042F000009A53E8004F44EA020043E8000191F0BD
:10430000000FF6D1059404900391049B184607B062
:104310005DF8044B704710B487B001900091019B89
:10432000009A53E8004F04EA020043E8000191F0CC
:10433000000FF6D1059404900391059B184607B031
:104340005DF8044B704710B487B001900091019B59
:10435000009A53E8004F04EB020043E8000191F09B
:10436000000FF6D1059404900391049B184607B002
:104370005DF8044B704710B487B001900091019B29
:10438000009A53E8004FA4EB020043E8000191F0CB
:10439000000FF6D1059404900391049B184607B0D2
:1043A0005DF8044B704700B583B00190012101987E
:1043B000FFF799FF0346184603B05DF804FB00B50C
:1043C00083B0019000210198FFF7A5FF034618462E
:1043D00003B05DF804FB000000B583B001900B460C
:1043E0008DF80330019B002B03D10849E820FFF72B
:1043F0004BFE019BDA689DF803300199098A01FBA5
:1044000003F31344184603B05DF804FB687300001F
:1044100000B583B001900091019B002B03D10849A6
:10442000F520FFF731FE009B019AD2689B1A019A92
:10443000128AB3FBF2F3DBB2184603B05DF804FB5B
:104440006873000000B585B00190019B002B01D17D
:104450000E234CE0019B1B68002B03D12649FF2053
:10446000FFF712FE019B5B68002B04D122494FF439
:104470008070FFF709FE019B9B68002B04D11E4949
:1044800040F20110FFF700FE019BDB68002B04D116
:1044900019494FF48170FFF7F7FD019B1B8A002B30
:1044A00004D1154940F20310FFF7EEFD019B9A6815
:1044B000019B5B68D31A8DF80F30019B1B68019A32
:1044C00052681A6007E0019B1A681368591C116052
:1044D0009DF80F201A709DF80F305A1E8DF80F208E
:1044E000002BF0D1019B1B6800221A710023184693
:1044F00005B05DF804FB00BF6873000000B585B02F
:104500000190019B002B04D11C494FF49270FFF7DE
:10451000BBFD002303930020FFF78EF9019B1B686E
:104520001A68019B5B689A421FD9019B1B681A6835
:10453000013A1A601B681B7819460198FFF74CFF77
:104540000390019B9A68019B1B681B68D31A8DF826
:104550000B30019B1B681B799DF80B209A4204D9F4
:10456000019B1B689DF80B201A710020FFF778F95A
:10457000039B184605B05DF804FB00BF687300009C
:1045800010B584B001900091019B002B04D111491A
:1045900040F24710FFF778FD009B002B04D10D4936
:1045A0004FF4A470FFF770FD009B03930020FFF70A
:1045B00043F9019B1B681C68621C1A6003990198EF
:1045C000FFF726FF034623700020FFF749F900BFDD
:1045D00004B010BD6873000000B583B00190019B6A
:1045E000002B03D10C493120FFF74EFD019B9B6846
:1045F000002B0CD0019B5B69019A1069019A11682C
:10460000019A92689847019B00229A6000E000BFDF
:1046100003B05DF804FB00BFCC7300000EB400B51E
:1046200084B00190019B002B03D118494220FFF771
:104630002BFD019B5B69002B03D114494320FFF73D
:1046400023FD019B1B68002B03D110494420FFF779
:104650001BFD019B5B68002B03D10C494520FFF734
:1046600013FD059B002B0AD00023039306AB039395
:1046700003AB1A460599019800F0B8F900E000BFB5
:1046800004B05DF804EB03B0704700BFCC730000CA
:1046900000B583B001900B468DF803309DF80330D0
:1046A0000A2B03D10D210198FFF7F2FF019B1A6835
:1046B000019B9B68581C0199886013449DF8032056
:1046C0001A70019B9A68019B5B689A4202D3019819
:1046D000FFF782FF00BF03B05DF804FB00B587B0B1
:1046E000039002910192009300230593009B03F035
:1046F0000103002B24D00BE0029B01330293059BA6
:10470000013305939DF8133019460398FFF7C0FF56
:10471000029B1B788DF813309DF81330002BEBD1E2
:1047200006E0019B013B019320210398FFF7B0FFB6
:10473000019A059B9A422ED9019B002BF1D12AE0C8
:10474000029B002B0BD0029801F0DCFF059006E0E5
:10475000019B013B019320210398FFF799FF019AE8
:10476000059B9A420FD9019B002BF1D10BE0029BD4
:1047700001330293059B013305939DF813301946CD
:104780000398FFF785FF029B1B788DF813309DF887
:104790001330002BEBD100BF07B05DF804FB000025
:1047A00000B589B00390029101920093029B079398
:1047B0000123069307E0079A019BB2FBF3F30793EB
:1047C000069B01330693079A019B9A42F3D2009A03
:1047D000069B9A4201D9009B06930B9B03F00103B1
:1047E000002B22D10A9B002B1FD00B9B03F002034E
:1047F000002B06D0009B002B03D130238DF81730FF
:1048000002E020238DF8173008E00A9B013B0A9351
:104810009DF8173019460398FFF73AFF0A9B002BC3
:1048200003D0069A0A9B9A42EFD301230793009B79
:10483000012B03D9009B013B009309E0029A079BDF
:10484000B2FBF3F30493049A019B9A4200D205E071
:10485000079B019A02FB03F30793E8E7029A079B81
:10486000B2FBF3F30493049B079A02FB03F3029A4F
:10487000D31A0293154A049B13441B7819460398D4
:10488000FFF706FF079A019BB2FBF3F30793079B21
:10489000002BE3D10B9B03F00103002B11D00A9BEB
:1048A000002B0ED006E00A9B013B0A9320210398BF
:1048B000FFF7EEFE0A9B002B03D0069A0A9B9A4252
:1048C000F1D300BF09B05DF804FB00BF8C74000099
:1048D00000B589B00590049103920293049B002BCC
:1048E000B8BF5B4206930123079307E0039B069A38
:1048F00092FBF3F30693079B01330793039B069AFE
:104900009A42F3DA029A079B9A4201D9029B0793D3
:104910000A9B002B0AD0049B002B04DB0B9B03F0AB
:104920000403002B02D00A9B013B0A930B9B03F06C
:104930000203002B02D0029B002B16D00B9B03F02E
:104940000103002B11D10A9B002B0ED006E00A9B1D
:10495000013B0A9320210598FFF79AFE0A9B002B42
:1049600003D0079A0A9B9A42F1D3049B002B07DAE3
:10497000049B5B4204932D210598FFF789FE08E014
:104980000B9B03F00403002B03D02B210598FFF7AA
:104990007FFE0B9B03F00203002B19D00B9B03F04F
:1049A0000103002B14D1029B002B11D10A9B002B79
:1049B0000ED006E00A9B013B0A9330210598FFF7D1
:1049C00067FE0A9B002B03D0079A0A9B9A42F1D3F9
:1049D00004990B9B01930A9B0093029B039A0598F1
:1049E000FFF7DEFE00BF09B05DF804FB00B58FB035
:1049F000059004910392059B002B04D1AD4940F230
:104A00005220FFF741FB059B5B69002B04D1A949AC
:104A10004FF41570FFF738FB059B1B68002B04D182
:104A2000A44940F25520FFF72FFB059B5B68002B44
:104A300004D1A04940F25620FFF726FB049B002B2F
:104A400000F09381049B1B788DF83730049B013371
:104A500004939DF83730002B00F07E819DF83730AD
:104A6000252B40F06D8100230A9301230C93049BB6
:104A70001B788DF837309DF83730302B0DD0302B28
:104A80001BDC2B2B11D02D2B17D10A9B43F00103DC
:104A90000A93049B0133049312E00A9B43F0020340
:104AA0000A93049B013304930AE00A9B43F0040336
:104AB0000A93049B0133049302E000230C9300BF8C
:104AC0000C9B002BD3D1002309939DF837302A2B60
:104AD0000CD1039B1B68191D039A11601B68099A6E
:104AE00013440993049B013304931AE0049B1B783D
:104AF0008DF837309DF837302F2B12D99DF837308D
:104B0000392B0ED8049B01330493099A13469B005A
:104B100013445B001A469DF837301344303B099329
:104B2000D3E700230B93049B1B788DF837309DF857
:104B300037302E2B1DD1049B01330493049B1B782B
:104B40008DF837309DF837302F2B12D99DF837303C
:104B5000392B0ED8049B013304930B9A13469B0008
:104B600013445B001A469DF837301344303B0B93D7
:104B7000E4E7049B1B788DF837309DF837306C2BB9
:104B800003D09DF83730682B07D1049B0133049381
:104B9000049B1B788DF83730EFE79DF83730252BD5
:104BA00000F0C480252BC0F2C680782B00F3C380B0
:104BB000582BC0F2C080583B202B00F2BC8001A2D1
:104BC00052F823F0B94C0000374D0000374D00007B
:104BD000374D0000374D0000374D0000374D0000C5
:104BE000374D0000374D0000374D0000374D0000B5
:104BF000494C00006B4C0000374D0000374D000061
:104C0000374D0000374D00006B4C0000374D000061
:104C1000374D0000374D0000374D0000374D000084
:104C2000374D0000F94C0000374D0000374D0000B3
:104C3000DD4C0000374D00008F4C0000374D000068
:104C4000374D0000B94C0000039B1B68191D039AE7
:104C500011601B680C930C9B8DF81F309DF81F3062
:104C600019460598FFF714FD66E0039B1B68191DA4
:104C7000039A11601B680C930A9B0193099B009394
:104C80000B9B0A220C990598FFF722FE54E0039B28
:104C90001B68191D039A11601B680C930C990A9BE1
:104CA0000193099B00930B9B0A220598FFF778FD5F
:104CB00042E000BF28740000039B1B68191D039A83
:104CC00011601B680C930C990A9B0193099B00933C
:104CD0000B9B10220598FFF763FD2DE0039B1B68DB
:104CE000191D039A11601B6808930A9B099A089979
:104CF0000598FFF7F3FC1FE0039B1B68191D039A3F
:104D000011601B680C9330210598FFF7C1FC7821D6
:104D10000598FFF7BDFC0C9900230193082300932D
:104D2000082310220598FFF73BFD05E02521059893
:104D3000FFF7AEFC00E000BF049B0133049305E0E5
:104D40009DF8373019460598FFF7A2FC049B1B78A5
:104D5000002B7FF477AE00E000BF059B1B7B002B90
:104D600004D00598FFF738FC00E000BF0FB05DF8F5
:104D700004FB00BF00B583B001900198FFF762FB10
:104D80000346184603B05DF804FB00B58BB00190F4
:104D90000091019B1B8A043B0793009A079B1344D5
:104DA000DA1C079BB2FBF3F38DF81B300198FFF779
:104DB000A5FB0590059B002B01D1002338E0059B46
:104DC00000221A71059B01225A71079B9AB2059B1A
:104DD000DA80059B09939DF81B30013B0493099BE6
:104DE000019A1A60002308931DE00198FFF786FBE3
:104DF0000390039B002B0ED0059B5B790133DAB245
:104E0000059B5A71099B039A1A60039B019A1A60C9
:104E1000039B099304E0059800F00EF8002307E0D7
:104E2000089B01330893089A049B9A42DDD3059BA3
:104E300018460BB05DF804FB00B58BB00190019BE8
:104E40000793079B5B798DF81B30019B08939DF8B6
:104E50001B30013B05930023099305E0089B1B6869
:104E60000893099B01330993099A059B9A42F5D34C
:104E7000089B1B680493019B0893002309930BE094
:104E8000089B1B68039308990498FFF779FB039B21
:104E90000893099B013309939DF81B30099A9A42A4
:104EA000EED300BF00BF0BB05DF804FB00B585B0CA
:104EB0000190019B0393039B043301211846FFF7E4
:104EC00042FA00BF05B05DF804FB00B587B0019061
:104ED000019B0593059B043301211846FFF74BFA0C
:104EE0000346039303AB0493049B1B78002B02D16E
:104EF0000198FFF7A1FF00BF07B05DF804FB0000B9
:104F000000B591B00390029101920093039B002B96
:104F100003D14349B620FFF7B7F8039B0993039BDE
:104F20000F93099BDB881A46099B5B7902FB03F30D
:104F3000043B0893009A089B9A4203D33849C42043
:104F4000FFF7A2F8099BDB880793009B1A1D079BBC
:104F5000B2FBF3F30E93009B0433079AB3FBF2F218
:104F6000079901FB02F29B1A0D93019B1A68009BA3
:104F70001344089A9A4203D2089A009BD31A01E07C
:104F8000019B1B680C93019B0C9A1A6005E00F9B18
:104F90001B680F930E9B013B0E930E9B002BF6D1CB
:104FA00000230B93079A0D9BD31A0A930A9A0C9B22
:104FB000934228BF13460A932AE0029A0B9B13449C
:104FC00006930F9A0D9B1344043305939DF84830C4
:104FD000002B05D00A9A0599069801F0A9FB04E078
:104FE0000A9A0699059801F0A3FB00230D930F9BE5
:104FF0001B680F930C9A0A9BD31A0C930B9A0A9B6B
:1050000013440B93079A0C9B934228BF13460A93B1
:105010000C9B002BD1D100BF00BF11B05DF804FB89
:105020009C74000000B589B005900491039202932E
:10503000039B079307AA00230093029B04990598FA
:10504000FFF75EFF079B039A9A4203D00349F620BD
:10505000FFF71AF800BF09B05DF804FB9C7400006C
:1050600000B589B00590049103920293039B0793C6
:1050700007AA01230093029B04990598FFF740FFBC
:10508000079B039A9A4204D004494FF48070FEF7BC
:10509000FBFF00BF09B05DF804FB00BF9C7400007B
:1050A00082B00190019B9B6800229A60019B9B68E3
:1050B00000221A61019B9B6800225A61019B9B6838
:1050C0000022DA60019B9B6800225A60019B9B686A
:1050D00000221A6000BF02B07047000000B585B022
:1050E00001900091019B002B03D118493A20FEF753
:1050F000CBFF009B002B03D114493B20FEF7C4FFDC
:10510000019B5B6803930FE0019B9B68039A126805
:10511000009910469847034683F00103DBB2002B49
:1051200007D1039B1B680393039B1B68002BEBD1E8
:1051300000E000BF039B1A68009B1A60039B009A63
:105140001A6000BF05B05DF804FB00BF0C750000DD
:1051500000B585B00190019B002B03D10C49512073
:10516000FEF792FF019B5B681B680393019B5B68E2
:105170001B68002B06D0019B5B681A68019B5B686B
:1051800012681A60039B184605B05DF804FB00BF67
:105190000C75000000B583B00190019B002B03D17A
:1051A00005495D20FEF770FF019B5B681B68184690
:1051B00003B05DF804FB00BF0C75000000B585B0BE
:1051C00001900091019B002B03D116496920FEF745
:1051D0005BFF009B002B03D112496A20FEF754FFAE
:1051E00000238DF80B30019B5B6803930FE0039B5A
:1051F0001B68009A9A4207D1009B1A68039B1A60A9
:1052000001238DF80B3006E0039B1B680393039B7F
:105210001B68002BEBD19DF80B30184605B05DF8EC
:1052200004FB00BF0C75000000B585B0019001982B
:1052300000F00EF80390039B002B01D0039B00E0CD
:10524000024B184605B05DF804FB00BF7475000002
:1052500086B00190164B0593164B04931FE0049AF9
:10526000059BD31ADB10DA0F13445B10DB00059AA1
:1052700013440393039B1B680293029A019B9A4277
:1052800002D9039B04930AE0029A019B9A4203D23B
:10529000039B0833059302E0039B5B6804E0059AD7
:1052A000049B9A42DBD30023184606B0704700BF28
:1052B00048790000607A000000B585B00190019B3C
:1052C000002B0AD0074B43F001030393019B9B0182
:1052D0000293039B0298984700E000BF05B05DF879
:1052E00004FB00BF707A000000B583B00190019B01
:1052F000002B0AD04FF47A70FFF7DEFF019B013BD1
:105300000193019B002BF5D100E000BF03B05DF8D5
:1053100004FB08B501F0E6F900BF08BD00B589B08F
:10532000039002910192019B002B33D0002307933D
:1053300006230693029A079B1344019A19460020FC
:1053400001F080F90590079A059B13440793019A91
:10535000059BD31A0193059B002B13D10F4B1B7890
:1053600083F00103DBB2002B13D10120FFF7BCFF58
:10537000069B013B0693069B002B03D1074B0022A3
:105380001A7007E0054B01221A70019B002BD1D146
:1053900000E000BF00BF09B05DF804FB5C4D0020D9
:1053A00000B585B003900291054B00934023054A58
:1053B0000299039800F012F800BF05B05DF804FBF5
:1053C0001D530000604D002082B0019000BF02B06C
:1053D000704782B0019000BF02B0704700B5A1B025
:1053E00005900491039202930498FFF75FFD039BDD
:1053F0001593029B16930023179300238DF86030BA
:1054000000231993229B1A9300231F930FA91F9B1C
:1054100008220498FFF724FE08231F93119B129380
:10542000BDF84030ADF84C30BDF84230ADF84E30EC
:1054300000238DF851309DF83C3003F00303DBB2BC
:10544000012B26D10F9BC3F395231C939DF83C3071
:10545000C3F3C203DBB28DF85030BDF83C30C3F368
:105460008313DBB21B931B9B9A0009A91F9B049813
:10547000FFF7F6FD1B9B9B001F9A13441F9312AA74
:1054800009A915AB009313461B9A1C9800F0BCFEAB
:105490002FE09DF83C3003F00303DBB2022B28D150
:1054A000BDF83E30C3F389139BB21E939DF83C3088
:1054B000C3F3C203DBB28DF850301E9B082B28BF0C
:1054C00008231D9307A91F9B1D9A0498FFF7C8FD89
:1054D0001F9A1D9B13441F931E9A1D9BD31A1E9344
:1054E00015AB12AA07A81D9900F030FF1E9B002BD8
:1054F000E3D10498FFF7E9FC00BF21B05DF804FB9D
:1055000082B00190019BDB6801225A7100BF02B09A
:105510007047000000B583B04FF0FF330193FFF7F1
:10552000F8FE0421084800F08BFD0190019B002B40
:1055300003DA06494120FEF7A7FD0348FFF7E0FF25
:1055400000BF03B05DF804FBB0680000887A00007B
:1055500000B583B001900091019B1B681B68009906
:105560000198984700BF03B05DF804FB00B583B015
:105570000190019B1B685B680198984700BF03B0CE
:105580005DF804FB00B583B00190019B1B689B682C
:105590000198984700BF03B05DF804FB82B001900A
:1055A0000B468DF80330019BDB689DF803201A71D0
:1055B00000BF02B0704782B00190019BDB681B798D
:1055C000184602B0704782B00190019BDB6801224F
:1055D0005A7100BF02B0704782B00190019BDB6836
:1055E0005B79184602B0704700B585B00190009114
:1055F0000C4B00221A700C48FFF7BCFB0390039B76
:10560000002B01D0039B08E00848FFF749FD084A3A
:10561000084BD31ADB0802930023184605B05DF847
:1056200004FB00BF24510020C0680000FC7A000089
:10563000B068000060680000024A034BD31ADB0820
:1056400018467047B06800006068000000B587B079
:1056500001900B468DF803309DF80330002B1FD0CE
:10566000FFF7EAFF04900023059313E0059B9B00DE
:105670000E4A13440393039B1B881A46019B1B6825
:105680009A4204D1019B059A1A60002309E0059B08
:1056900001330593059A049B9A42E7D3052300E062
:1056A0000023184607B05DF804FB00BF000000208F
:1056B00000B585B001900B468DF803309DF80320AE
:1056C00001AB11461846FFF7C1FF0346002B07D177
:1056D000019BDB00054A13440393039B1B6800E016
:1056E0000023184605B05DF804FB00BF60680000A9
:1056F00084B001900B468DF80330019BDB00174A04
:10570000134402939DF80330013B032B1CD801A2E4
:1057100052F823F0255700002D57000035570000A0
:105720003F57000002238DF80F3011E004238DF85D
:105730000F300DE0029B1B798DF80F3008E0029BC3
:105740005B798DF80F3003E000238DF80F3000BF38
:105750009DF80F30184604B0704700BF6068000025
:1057600084B00190009100238DF80F30019B1B78CD
:1057700003F00403DBB2002B24D0019B1B78C3F39E
:105780000103DBB2012B02D0022B0CD017E0009BEF
:105790001B68019A1288C2F38312D2B213449A1C76
:1057A000009B1A600BE0009B1B68019A5288C2F3B1
:1057B000891292B213449A1C009B1A6000BF012305
:1057C0008DF80F309DF80F30184604B07047000078
:1057D00000B58BB00023ADF826303E48FEF7E3FD60
:1057E0003D48FEF7E0FD3D4B9B6804933C4B1B6836
:1057F0000693049A069B134002339B00374A1344D6
:105800000433089304AB19460898FFF7A9FF034631
:10581000002B09D0049A069B134002339B002F4AA9
:10582000134404330893EDE700BF0023079311E00E
:10583000049B5A1C0492069A1340079A920001A9ED
:105840000A44264902339B000B445B681360079BA4
:1058500001330793079B012BEAD99DF80430C3F36A
:105860000103DBB2012B10D0022B1CD1BDF80A3092
:10587000ADF82630BDF80630C3F389139BB203336D
:105880009A08049B1344049313E0BDF80A30ADF862
:105890002630BDF80430C3F38313DBB21A46049BF1
:1058A0001344049305E00F494FF4C270FEF7ECFB7C
:1058B00000BF0948FEF783FD0590059B002B02D031
:1058C000049B064A9360BDF8263018460BB05DF87D
:1058D00004FB00BF3C550020385500202451002017
:1058E0001C0000200C7B000000B585B0002107489B
:1058F000FEF7E2FC0390039B0293029B83F31003E9
:105900000193019B184605B05DF804FB405500204B
:1059100000B589B00390029101920093039B1B0C88
:105920000793FFF7E1FF0690FFF786FE0246079B0D
:10593000934204D3214940F2A910FEF7A5FB069B30
:105940001904009B5A1C0A9B1340079A0A431C49DE
:1059500002339B000B445A60009A0A9B13400233A7
:105960009B00174A134404330593039B03F007037A
:10597000D9B2059A137861F3C5031370019B03F044
:105980000F03D9B2059A138861F389131380029B20
:10599000C3F31501059A136861F39F231360059AF9
:1059A0001378012161F301031370059A137823F032
:1059B0000403137000BF09B05DF804FB0C7B00000A
:1059C0002451002000B58BB00390029113468DF84E
:1059D0000730039B0233089301238DF81F3000200A
:1059E000FDF72AFF3E4B5A68029B1A603D4B1A682E
:1059F0003B4B99683A4B5B68CB1A134401330993CC
:105A000014E001213848FEF79EFCFFF7E1FE059007
:105A100005993548FEF797FC324B1A68304B996868
:105A20002F4B5B68CB1A134401330993089A099BE7
:105A30009A42E6D89DF81F30002B48D000230493EB
:105A40009DF80730002B17D09DF81030012262F32B
:105A500001038DF810309DF8103043F004038DF8E9
:105A60001030039B03F00F03DAB2BDF8103062F37D
:105A70008913ADF8103016E09DF81030022262F361
:105A800001038DF810309DF8103043F004038DF8B9
:105A90001030039BC3F309039AB2BDF8123062F3CE
:105AA0008F13ADF812300E4B5A680E4B1B68134023
:105AB00002339B000A4A134404330693049A069B5C
:105AC0001A60074B5A68089B1344054A536000202C
:105AD000FDF7C6FE9DF81F3018460BB05DF804FBBD
