:1000000000000120190200000102000003020000AC
:1000100005020000070200000902000000000000C5
:100020000000000000000000000000000B020000C3
:100030000D020000000000000F020000110200008D
:100040001302000013020000D1210000C934000097
:100050001302000013020000CD200000A1250000C3
:10006000130200001302000013020000130200003C
:10007000130200001302000013020000130200002C
:100080001302000061370000130200001302000099
:10009000130200001302000013020000130200000C
:1000A00013020000130200001302000013020000FC
:1000B0001302000013020000000000000000000016
:1000C00013020000130200001302000013020000DC
:1000D00013020000130200001302000000000000E1
:1000E0000000000000000000000000000000000010
:1000F0000000000000000000000000000000000000
:1001000000000000000000000000000000000000EF
:1001100000000000000000000000000000000000DF
:1001200000000000000000000000000000000000CF
:1001300000000000000000000000000000000000BF
:1001400000000000000000000000000000000000AF
:10015000000000000000000000000000000000009F
:10016000000000000000000000000000000000008F
:10017000000000000000000000000000000000007F
:10018000000000000000000000000000000000006F
:10019000000000000000000000000000000000005F
:1001A000000000000000000000000000000000004F
:1001B000000000000000000000000000000000003F
:1001C000000000000000000000000000000000002F
:1001D000000000000000000000000000000000001F
:1001E000000000000000000000000000000000000F
:1001F00000000000000000000000000000000000FF
:10020000FEE7FEE7FEE7FEE7FEE7FEE7FEE7FEE7C6
:10021000FEE7FEE700F002B8FFF7FCBF0F484FF023
:100220000701884385460E4880470E48016841F41F
:1002300070010160BFF34F8FBFF36F8F00F01AB8EA
:1002400009480A490A4A884207D0521A05D0037859
:1002500001300B700131013AF9D1704700000120E3
:100260006D18000088ED00E014630000000000201D
:100270000000002039493A480A1A02D00722914367
:100280008D46384938480A1A06D00722914381F32F
:100290000988022282F3148834483549354A00F02F
:1002A0003EF835483549364A00F039F83548364980
:1002B000364A00F034F836483649374A00F02FF80D
:1002C00036483749374A00F02AF837483749384A1C
:1002D00000F025F837483849384A00F020F8384807
:1002E0003849002200F033F837483849002200F03E
:1002F0002EF837483749091A05F01AFF364A904751
:1003000024482549884205D00268043003B4904748
:1003100003BCF7E700200021304A9047FEE78842FF
:1003200014D0521A12D003460B4313430324234222
:1003300006D1036804300B600431043AF9D17047E8
:10034000037801300B700131013AF9D170478842CE
:1003500002D002700130FAE770470000000001206F
:1003600000E000200000012000000120647A00006D
:100370000000002064000020E0030000E003000013
:10038000A0620000647A000000000020000000204D
:100390001463000014630000146300001463000081
:1003A0001463000014630000146300001463000071
:1003B000617A0000C87A0000640000206400002018
:1003C00064000020E00B0020E00B0020E00B002088
:1003D000E00B0020E02B002041020000410C000057
:1003E00000B585B00190019B002B0AD0074B43F06C
:1003F00001030393019B9B010293039B029898477F
:1004000000E000BF05B05DF804FB00BF70680000AD
:1004100000B583B00190019B0433184602F05EFEE4
:1004200000BF03B05DF804FB00B58FB003900291EC
:10043000009313468DF8073000230D93029B099318
:100440009DF807300A93009B0B939DF840300C9366
:10045000039B043309A90022184602F08DFF0D907A
:100460000D9B18460FB05DF804FB000000B583B08B
:100470000190019B1B68184600F0A0F80346002B72
:1004800004D105494FF4F67003F078F94FF0A0431A
:10049000184603B05DF804FB1463000000B585B096
:1004A0000190084611461A4603468DF803300B4664
:1004B0008DF8023013468DF8013001AB1846FFF776
:1004C000D5FF03909DF803209DF802305B001A438E
:1004D0009DF801309B001A439DF818301B0242EA38
:1004E00003019DF81C301B04019A1943039B02F57C
:1004F000E07243F8221000BF05B05DF804FB00B5C0
:1005000085B0039000230193002300930023012270
:1005100001210398FFF7C2FF00BF05B05DF804FB9F
:1005200000B585B0019001AB1846FFF79FFF03901F
:10053000019B012202FA03F31946039800F02AF8FE
:1005400000BF05B05DF804FB00B585B0019001ABBC
:100550001846FFF78BFF0390019B012202FA03F379
:100560001946039800F020F800BF05B05DF804FBC1
:1005700000B583B001900091009B002B03D101983E
:10058000FFF7E2FF02E00198FFF7CAFF00BF03B0E8
:100590005DF804FB82B001900091019B009AC3F8C2
:1005A000082500BF02B0704782B001900091019B06
:1005B000009AC3F80C2500BF02B0704784B00190C8
:1005C000019B5B09029300230393029B002B03D141
:1005D0004FF0FF33039300BF019B03F01F03019310
:1005E000039A019B22FA03F303F00103DBB21846DE
:1005F00004B0704700B583B00190019B002B0AD076
:100600004FF47A70FFF7ECFE019B013B0193019BD5
:10061000002BF5D100E000BF03B05DF804FB000043
:1006200000B583B001900091019B002B01D1054BD7
:1006300001930099019802F0DFF80346184603B0D1
:100640005DF804FB7868000082B001900091034BD4
:1006500001221A7000BF02B0704700BF6400002082
:1006600000B587B01F4A03AB92E80300186004335B
:1006700019700420FFF768FF0120FFF7B1FE1A4B45
:1006800000221A7003A900230093002305221748B3
:10069000FFF7CAFE0590059B002B06D0144A732174
:1006A000059802F069FF00E020BF0F4B1B78DBB21A
:1006B00083F00103DBB2002BF6D10420FFF730FFFB
:1006C0000A20FFF797FF0B4A0B4BD31ADB081B04DA
:1006D00043F003030949184604F022FC00BF07B0A9
:1006E0005DF804FBB063000064000020586800005F
:1006F00044630000D0620000A0620000A06300001C
:1007000000B587B00823ADF810300023ADF80C30E9
:100710000420FFF719FF0120FFF762FE144B0022AF
:100720001A7003AB04A90222009202221148FFF7BB
:100730007BFE0590059B002B06D00F4A872105986C
:1007400002F01AFF00E020BF094B1B78DBB283F0F8
:100750000103DBB2002BF6D10420FFF7E1FE0A20F3
:10076000FFF73EFE9DF80D30184607B05DF804FB1C
:1007700064000020586800004463000000B587B0A2
:100780001823ADF810300023ADF80C300420FFF72B
:10079000DBFE0120FFF724FE144B00221A7003AB8E
:1007A00004A90222009202221148FFF73DFE0590A3
:1007B000059B002B06D00F4A9C21059802F0DCFE19
:1007C00000E020BF094B1B78DBB283F00103DBB2F2
:1007D000002BF6D10420FFF7A3FE0A20FFF700FE4E
:1007E0009DF80D30184607B05DF804FB640000204A
:1007F000586800004463000000B585B001900023F4
:100800000393FFF77DFF03468DF80B309DF90B3006
:10081000002B14DB9DF80B3003F04003002B0CD0B1
:10082000154A164BD31ADB081B0443F002039DF84C
:100830000B201349184604F081FB012317E00A201E
:10084000FFF7D8FE039B0A330393039A019B9A4256
:10085000D7D3094A094BD31ADB081B0443F0020320
:100860009DF80B200749184604F068FB0023184642
:1008700005B05DF804FB00BFD0620000A06200007C
:10088000B8630000E463000000B589B003468DF84A
:100890000F309DF90F3003F003035BB243F01003F8
:1008A0005BB2DBB28DF8173002238DF816300420CE
:1008B000FFF74AFE0120FFF793FD2A4B00221A7032
:1008C0000DF1170100230093002301222648FFF7B2
:1008D000ABFD0790079B002B06D0244AD421079834
:1008E00002F04AFE00E020BF1E4B1B78DBB283F013
:1008F0000103DBB2002BF6D11A4B00221A700DF166
:10090000160100230093002301221748FFF78CFDF6
:100910000690069B002B06D0144AD821069802F0B8
:100920002BFE00E020BF0F4B1B78DBB283F00103EE
:10093000DBB2002BF6D10420FFF7F2FD9620FFF783
:1009400059FE0B4A0B4BD31ADB081B0443F003037D
:100950009DF80F200849184604F0F0FA00BF09B0CE
:100960005DF804FB64000020586800004463000048
:10097000D0620000A06200001064000000B587B0E3
:10098000C820FFF739FF034683F00103DBB2002BD9
:100990000DD0264A264BD31ADB081B0443F0010373
:1009A0002449184604F0BCFA4FF0FF3339E03823ED
:1009B0000393002302930420FFF7C6FD0120FFF7F5
:1009C0000FFD1D4B00221A7002AB03A904220092F6
:1009D00004221A48FFF728FD0590059B002B06D03E
:1009E000174AF421059802F0C7FD00E020BF124B22
:1009F0001B78DBB283F00103DBB2002BF6D10420BD
:100A0000FFF78EFD0A20FFF7EBFC9DF809301A0472
:100A10009DF80A301B0213439DF80B2013430493E7
:100A2000049B184607B05DF804FB00BFD0620000CD
:100A3000A0620000286400006400002058680000E4
:100A40004463000000B583B01A4A1B4BD31ADB087D
:100A50001B0443F003031949184604F061FA00200F
:100A6000FFF712FFFFF78AFE03468DF80730114AA1
:100A7000114BD31ADB081B0443F003039DF8072036
:100A80000F49184604F05AFAFFF73AFE03468DF86C
:100A90000630084A084BD31ADB081B0443F0030353
:100AA0009DF806200749184604F048FA00BF03B035
:100AB0005DF804FBD0620000A06200003864000012
:100AC000686400008064000000B585B00190019862
:100AD00005F020FB4FF00002134B05F0C9F9024668
:100AE0000B46CDE902234FF00002104BDDE9020175
:100AF00005F022F902460B461046194608A3D3E931
:100B0000002305F01DF902460B4643EC172BB0EE0F
:100B1000470AF0EE670A05B05DF804FBAFF300800A
:100B20008D976E1283C00540000060410000F03FC9
:100B300000B587B003900B468DF80B300620FFF709
:100B400003FD134B00221A709DF80B200023009325
:100B5000002303990F48FFF767FC0590059B002BC6
:100B600007D00D4A4FF4AF71059802F005FD00E083
:100B700020BF074B1B78DBB283F00103DBB2002BF5
:100B8000F6D10620FFF7CCFC00BF07B05DF804FBF0
:100B900064000020586800004463000082B00190A7
:100BA00000BF02B07047000000B587B014490020B4
:100BB000FFF736FD0590059B0493049B002B05D0A1
:100BC000104A4FF4B871049802F0D6FC0E4A6B46F6
:100BD00007CA03C31A706B461946002001F07CFE59
:100BE0000590059B0393039B002B05D0054A40F21B
:100BF0007511039802F0C0FC00BF07B05DF804FB5C
:100C00009D0B0000446300000C67000000B583B03A
:100C10004FF48041002003F0B9FE0190019B002BAE
:100C200005D0064A4FF4BF71019802F0A5FC03F00D
:100C300043FE00BF03B05DF804FB00BF4463000047
:100C4000F0B597B0012000F071FBFFF7DFFFBC4A61
:100C5000BC4BD31ADB081B0443F00303BA49184604
:100C600004F05EF9B94B07AC0FCB84E80F0000230A
:100C70008DF81D301C238DF81E3007238DF81C3095
:100C8000FF238DF81F304FF08063099302238DF806
:100C9000283000238DF8293007A90023AC4AAD483D
:100CA00000F0ACFF1290129B002B05D0AA4A40F234
:100CB0009111129802F060FCA14AA24BD31ADB08F2
:100CC0001B0443F00303A549184604F029F9142036
:100CD000FFF715FC0320FFF712FC0A20FFF70FFCBB
:100CE0000520FFF70CFC0820FFF709FC0420FFF7A4
:100CF00006FC0620FFF703FC0420FFF711FC06208A
:100D0000FFF70EFC8E4A8F4BD31ADB081B0443F00F
:100D100003039349184604F003F9FFF745FF884A97
:100D2000884BD31ADB081B0443F003038D49184694
:100D300004F0F6F8032319468B48FFF7F9FE032366
:100D400019468A48FFF7F4FE7D4A7E4BD31ADB082A
:100D50001B0443F003038649184604F0E1F87D487C
:100D6000FFF756FB03238DF8283007A90023784AA4
:100D7000784800F043FF1190119B002B05D0764A74
:100D80004FF4D871119802F0F7FB0420FFF7C8FB6D
:100D90000620FFF7C5FB6A4A6A4BD31ADB081B041F
:100DA00043F003037349184604F0BAF8FFF758FC00
:100DB000FFF7A6FC03468DF84330614A614BD31A16
:100DC000DB081B0443F003039DF843206A491846DF
:100DD00004F0B4F8FFF736FE594A5A4BD31ADB0831
:100DE0001B0443F003036549184604F099F80023F7
:100DF0000693002000F04CFA01231593032314936B
:100E00001FE006AA149B13441B781A46159B134433
:100E10000B930B9B002B03F00103B8BF5B42002B2D
:100E200014BF01230023D9B206AA149B13440A4617
:100E30001A700B9BDA0F13445B101593149B013B44
:100E40001493149B002BDCDA9DF81830194605200A
:100E5000FFF78EFB9DF8193019460A20FFF788FB33
:100E60009DF81A3019460320FFF782FB9DF81B30CE
:100E700019461420FFF77CFB01210820FFF778FBBF
:100E80000023139310E006AA139B13441B78002B36
:100E900001D0312100E0302104AA139B13440A46FB
:100EA0001A70139B01331393139B032BEBDD002369
:100EB0008DF814304FF4FA70FFF79CFBFFF75EFDDE
:100EC0000F90FFF71DFC03468DF83B309DF83B303B
:100ED00003F04003002B0ED0194A1A4BD31ADB083B
:100EE0001B0443F0020004AA0F9B00930F9B2449AC
:100EF00004F049F896E00F98FFF7E6FD8DED0C0B36
:100F00000F4A104BD31ADB081B0443F0030504AE51
:100F10004FF000024FF00003DDE90C0105F0A6F8E8
:100F20000346002B32D04FF00002164BDDE90C01D6
:100F300005F080F80346002B28D0134C27E000BFB3
:100F4000D0620000A062000018670000486800003E
:100F50004906000058680000446300003067000044
:100F600054670000686700000000002004000020B3
:100F70007C67000094670000BC670000F067000019
:100F8000106800000000F0BFC4660000284CDDE9D6
:100F90000C0105F087F803461F464FF000024FF0A2
:100FA0000003DDE90C0105F045F80346002B12D0E3
:100FB000DDE90C0105F076F80346184605F098F8CF
:100FC00002460B46DDE90C0104F0B6FE02460B4674
:100FD000104619460FE0DDE90C0105F063F8034601
:100FE000184605F085F8DDE90C2304F0A5FE02465D
:100FF0000B46104619464FF000020E4B04F0A0FEBF
:1010000002460B461046194605F04CF8034603937A
:10101000029701940F9B00930F9B32460649284686
:1010200003F0E1FF04F00AF80346002BFAD1E0E6F2
:10103000C8660000000059402868000000B583B071
:101040000190019B1B68184600F0D7F80346002B5F
:1010500004D105494FF4F67002F090FB4FF0A04325
:10106000184603B05DF804FB7C68000000B585B04D
:101070000190084611461A4603468DF803300B4688
:101080008DF8023013468DF8013001AB1846FFF79A
:10109000D5FF03909DF803209DF802305B001A43B2
:1010A0009DF801309B001A439DF818301B0242EA5C
:1010B00003019DF81C301B04019A1943039B02F5A0
:1010C000E07243F8221000BF05B05DF804FB00B5E4
:1010D00085B0039000230193002300930023012295
:1010E00001210398FFF7C2FF00BF05B05DF804FBC4
:1010F00000B585B003900B468DF80B309DF80B3092
:101100000022019200220092002200210398FFF7A2
:10111000ADFF00BF05B05DF804FB00B585B00190E0
:1011200001AB1846FFF78AFF0390019B012202FAE8
:1011300003F31946039800F04CF800BF05B05DF8C2
:1011400004FB00B585B0019001AB1846FFF776FFB0
:101150000390019B012202FA03F31946039800F061
:1011600042F800BF05B05DF804FB00B585B0019002
:1011700001AB1846FFF762FF0390039BD3F80435D9
:101180000293029BDA43019B012101FA03F31A4007
:10119000039BC3F80825019B01229A40029B1A4039
:1011A000039BC3F80C2500BF05B05DF804FB00B538
:1011B00083B001900091009B002B03D10198FFF7B1
:1011C000C0FF02E00198FFF7A8FF00BF03B05DF881
:1011D00004FB82B001900091019B009AC3F808259E
:1011E00000BF02B0704782B001900091019B009A4D
:1011F000C3F80C2500BF02B0704784B00190019B7A
:101200005B09029300230393029B002B03D14FF051
:10121000FF33039300BF019B03F01F030193039A65
:10122000019B22FA03F303F00103DBB2184604B07A
:101230007047000000B583B00190019B032B03D9D8
:101240000749472002F09AFA064A019B13441B788B
:1012500001211846FFF7ABFF00BF03B05DF804FBA8
:10126000AC6800000469000000B583B0002301935E
:1012700005E00198FFF7DEFF019B01330193019B1D
:10128000032BF6D900BF00BF03B05DF804FB0000DC
:1012900000B583B00190019B032B03D907495F2060
:1012A00002F06CFA064A019B13441B781846FFF7BC
:1012B0005CFF00BF03B05DF804FB00BFAC6800003A
:1012C0000469000000B583B00023019309E0094AD6
:1012D000019B13441B781846FFF7F9FE019B01336D
:1012E0000193019B032BF2D9FFF7BEFF00BF03B0B0
:1012F0005DF804FB0469000000B583B0002301938E
:101300000AE0094A019B13441B7803211846FFF7A2
:10131000EFFE019B01330193019B032BF1D900BF29
:1013200000BF03B05DF804FB0869000000B583B09E
:101330000190019B03F00103002B01D0FFF7C2FFD6
:10134000019B03F00203002B01D0FFF7D5FF00BF84
:1013500003B05DF804FB0000BFF34F8F00BF064BE6
:10136000DB6803F4E0620449044B1343CB60BFF332
:101370004F8F00BF00BFFDE700ED00E00400FA055D
:1013800082B01B4B1B68B3F1FF3F0AD1194B1B689E
:10139000DBB20193184B1B681B0903F00F0300938A
:1013A00005E0134B1B680193144B1B680093019BD2
:1013B000062B19D1009B033B032B13D801A252F833
:1013C00023F000BFD5130000D9130000DD13000087
:1013D000E1130000012308E0012306E0012304E0FB
:1013E000012302E0012300E00023184602B0704709
:1013F00030010010E00F00F0E80F00F034010010A1
:1014000082B0154B1B68DBB20193144B1B681B09A0
:1014100003F00F030093019B062B19D1009B033BA4
:10142000032B13D801A252F823F000BF3D14000093
:10143000411400004514000049140000012308E095
:10144000002306E0002304E0002302E0002300E084
:101450000023184602B07047E00F00F0E80F00F0DC
:1014600082B01B4B1B68B3F1FF3F0AD1194B1B68BD
:10147000DBB20193184B1B681B0903F00F030093A9
:1014800005E0134B1B680193144B1B680093019BF1
:10149000062B19D1009B033B032B13D801A252F852
:1014A00023F000BFB5140000B9140000BD14000003
:1014B000C1140000012308E0012306E0012304E039
:1014C000012302E0012300E00023184602B0704728
:1014D00030010010E00F00F0E80F00F034010010C0
:1014E00082B0154B1B68DBB20193144B1B681B09C0
:1014F00003F00F030093019B062B19D1009B033BC4
:10150000032B13D801A252F823F000BF1D150000D1
:10151000211500002515000029150000012308E011
:10152000002306E0002304E0002302E0002300E0A3
:101530000023184602B07047E00F00F0E80F00F0FB
:1015400082B01B4B1B68B3F1FF3F0AD1194B1B68DC
:10155000DBB20193184B1B681B0903F00F030093C8
:1015600005E0134B1B680193144B1B680093019B10
:10157000062B19D1009B033B032B13D801A252F871
:1015800023F000BF95150000991500009D1500007F
:10159000A1150000012308E0012306E0012304E077
:1015A000012302E0012300E00023184602B0704747
:1015B00030010010E00F00F0E80F00F034010010DF
:1015C00082B0154B1B68DBB20193144B1B681B09DF
:1015D00003F00F030093019B062B19D1009B033BE3
:1015E000032B13D801A252F823F000BFFD15000011
:1015F000011600000516000009160000012308E08E
:10160000002306E0002304E0002302E0002300E0C2
:101610000023184602B07047E00F00F0E80F00F01A
:1016200082B0154B1B68DBB20193144B1B681B097E
:1016300003F00F030093019B062B19D1009B033B82
:10164000032B13D801A252F823F000BF5D1600004F
:10165000611600006516000069160000012308E00D
:10166000002306E0002304E0002302E0002300E062
:101670000023184602B07047E00F00F0E80F00F0BA
:1016800082B01B4B1B68B3F1FF3F0AD1194B1B689B
:10169000DBB20193184B1B681B0903F00F03009387
:1016A00005E0134B1B680193144B1B680093019BCF
:1016B000062B19D1009B033B032B13D801A252F830
:1016C00023F000BFD5160000D9160000DD1600007B
:1016D000E1160000002308E0002306E0012304E0F7
:1016E000012302E0012300E00023184602B0704706
:1016F00030010010E00F00F0E80F00F0340100109E
:1017000082B01B4B1B68B3F1FF3F0AD1194B1B681A
:10171000DBB20193184B1B681B0903F00F03009306
:1017200005E0134B1B680193144B1B680093019B4E
:10173000062B19D1009B033B032B13D801A252F8AF
:1017400023F000BF55170000591700005D17000077
:1017500061170000012308E0012306E0012304E0F3
:10176000012302E0012300E00023184602B0704785
:1017700030010010E00F00F0E80F00F0340100101D
:1017800082B01B4B1B68B3F1FF3F0AD1194B1B689A
:10179000DBB20193184B1B681B0903F00F03009386
:1017A00005E0134B1B680193144B1B680093019BCE
:1017B000062B19D1009B033B032B13D801A252F82F
:1017C00023F000BFD5170000D9170000DD17000077
:1017D000E1170000012308E0012306E0012304E0F3
:1017E000012302E0012300E00023184602B0704705
:1017F00030010010E00F00F0E80F00F0340100109D
:1018000082B0134B1B680193124B1B680093019B22
:10181000062B19D1009B033B032B13D801A252F8CE
:1018200023F000BF35180000391800003D180000F3
:1018300041180000002308E0002306E0002304E034
:10184000012302E0012300E00023184602B07047A4
:101850003001001034010010024B034A1A6000BF2F
:10186000704700BF080000200090D00308B5FFF7C4
:1018700087FD0346002B06D0B74B1B681B0AB74AEF
:1018800003F01F031360FFF7BBFD0346002B02D0DC
:10189000B34BB44A1A60FFF7E3FD0346002B06D0B2
:1018A000B14B1B685B0BB14A03F007031360FFF7F2
:1018B00017FE0346002B05D0AD4BDB68AC4A23F086
:1018C0008073D360FFF73CFE0346002B0ED04FF031
:1018D00080430022C3F80C214FF080430022C3F85C
:1018E00010214FF080430022C3F83825FFF768FE2F
:1018F0000346002B02D09F4B03221A60FFF790FE95
:101900000346002B0BD09C4B05221A609B4B0122F7
:101910001A609B4B00221A609A4B3F221A60FFF715
:10192000AFFE0346002B76D04FF08053964AD3F893
:101930000434C2F820354FF08053934AD3F808346A
:10194000C2F824354FF080538F4AD3F80C34C2F8D4
:1019500028354FF080538C4AD3F81034C2F82C3518
:101960004FF08053884AD3F81434C2F830354FF022
:101970008053854AD3F81834C2F834354FF0805379
:10198000814AD3F81C34C2F840354FF080537E4A68
:10199000D3F82034C2F844354FF080537A4AD3F854
:1019A0002434C2F848354FF08053774AD3F82834AE
:1019B000C2F84C354FF08053734AD3F82C34C2F838
:1019C00050354FF08053704AD3F83034C2F8543554
:1019D0004FF080536C4AD3F83434C2F860354FF07E
:1019E0008053694AD3F83834C2F864354FF08053D5
:1019F000654AD3F83C34C2F868354FF08053624AE8
:101A0000D3F84034C2F86C354FF080535E4AD3F8B7
:101A10004434C2F87035FFF773FE0346002B05D03F
:101A20005A4B1B685A4A03F04F031360FFF7A8FE96
:101A30000346002B0DD04FF08043D3F8003403F061
:101A40000103002B05D04FF080436FF00102C3F873
:101A50000024FFF7D5FE0346002B05D04D4B1B6835
:101A60004C4A43F4806313604B4BD3F888304A4AA6
:101A700043F47003C2F88830BFF34F8F00BFBFF349
:101A80006F8F00BF4FF01023D3F80C3203F0010327
:101A9000012B25D1414B0122C3F8042500BF3F4B48
:101AA000D3F80034002BFAD04FF01023D3F80C32C7
:101AB0004FF0102223F00103C2F80C3200BF374B65
:101AC000D3F80034002BFAD0344B0022C3F804259D
:101AD00000BF324BD3F80034002BFAD0FFF73CFCA8
:101AE0004FF01023D3F80032002B05DB4FF010230A
:101AF000D3F80432002B2BDA284B0122C3F804253B
:101B000000BF264BD3F80034002BFAD04FF010233F
:101B10001522C3F8002200BF204BD3F80034002B5D
:101B2000FAD04FF010231522C3F8042200BF1B4B3C
:101B3000D3F80034002BFAD0184B0022C3F8042548
:101B400000BF164BD3F80034002BFAD0FFF704FC8B
:101B5000FFF782FE00BF08BD24030010403501409E
:101B600074C007400DF0ADBA440200103C050040BF
:101B7000F0ED00E0A00500401056004088560040FF
:101B8000185600401456004000C000405802001093
:101B9000E40E00403C17004000ED00E000E0014092
:101BA00000B589B001900091009B0793019B1B78C1
:101BB0008DF80830019B5B680393019B9B68DBB247
:101BC0008DF81030019BDB680593019B1B69DBB22C
:101BD0008DF81830074A079B52F823300649079AB8
:101BE00051F8221002AA1046984700BF09B05DF8CC
:101BF00004FB00BF680000207400002010B58AB00C
:101C00000390029101920093039B1B780993224950
:101C1000099B019A41F823202049099B009A41F829
:101C20002320002308931E4B04AC0FCB84E80F0045
:101C3000029B1B788DF81030029B5B788DF8113079
:101C4000029B9B788DF81230029BDB788DF8133065
:101C5000029B1B798DF81530029B5B798DF816304D
:101C6000029B9B680693029B1B7B8DF81C30029B9A
:101C70005B7B8DF81D30039B181D019B002B01D051
:101C8000084A00E00022099B04A901F03FF90890EE
:101C9000089B18460AB010BD6800002074000020A0
:101CA0000C690000A11B000000B583B00346ADF82D
:101CB0000630BDF80630184600F026F803461B68CB
:101CC000012B0CBF01230023DBB2184603B05DF8E3
:101CD00004FB00B585B00346ADF80630BDF806300C
:101CE000184600F011F803461A4600231360BDF8A9
:101CF0000630184600F008F803461B680393039B60
:101D000000BF05B05DF804FB82B00346ADF80630B5
:101D1000BDF8063003F1804303F5C043184602B016
:101D20007047000082B00190034BD3F80423019B5D
:101D30001340184602B070470060004082B0019026
:101D4000054A019B03F5A27352F823301B0A03F0E6
:101D50001F03184602B070470060004082B0019037
:101D6000064A019B03F5A27352F823301B0C03F0C3
:101D70000303DBB2184602B0704700BF00600040AA
:101D800000B583B00190019B1B68184600F095F8E0
:101D90000346002B04D105494FF4F67001F0EEFC28
:101DA0004FF0A043184603B05DF804FB4C690000F7
:101DB00000B585B001900B468DF8033001AB184695
:101DC000FFF7DEFF0390019A039B02F5E07253F8E0
:101DD0002230019A23F44031039B02F5E07243F86C
:101DE0002210019A039B02F5E07253F822109DF82D
:101DF00003301B04019A1943039B02F5E07243F878
:101E0000221000BF05B05DF804FB00B585B001905D
:101E100001AB1846FFF7B4FF0390019A039B02F54C
:101E2000E07253F822301B0C03F00303DBB21846B8
:101E300005B05DF804FB86B00390029101924FF06B
:101E4000A0430493039B059319E0059B9B00183363
:101E50006B4453F8083CD3F82025019B1A60059B7E
:101E60009B0018336B4453F8083C019A1268C3F87E
:101E70002025019B04330193059B01330593039AAD
:101E8000029B1344059A9A42DFD300BF00BF06B0FD
:101E9000704700B585B0019001AB1846FFF770FFA1
:101EA0000390019B012202FA03F31A46039BC3F835
:101EB000202500BF05B05DF804FB84B00190019BB4
:101EC0005B09029300230393029B002B03D14FF085
:101ED000FF33039300BF019B03F01F030193039A99
:101EE000019B22FA03F303F00103DBB2184604B0AE
:101EF000704784B001900091009B0393019BDB0825
:101F00000293019B03F0070301930122019B02FA54
:101F100003F30399029A0A4412781340184604B056
:101F20007047000082B00190044A019B1344303393
:101F300093F90030184602B0704700BF80000020BF
:101F400082B00190034A019B52F82330184602B038
:101F5000704700BF8000002084B00190074A019BB9
:101F60001344503393F900308DF80F309DF80F3043
:101F700023F0C003184604B0704700BF8000002063
:101F800084B00190074A019B1344503393F9003009
:101F90008DF80F309DF80F309B09DBB2184604B066
:101FA000704700BF8000002000B585B00190019A05
:101FB00001210020FFF73FFF002303930BE0039B69
:101FC0009B00019A13441B68002B01D0012306E0FB
:101FD000039B01330393039B002BF0D0002318468F
:101FE00005B05DF804FB000000B587B00190002348
:101FF00005935BE0344A059B1344503393F900305A
:10200000B3F1FF3F4ED00598FFF7A6FF049001996A
:102010000498FFF76EFF0346002B44D00598FFF7A6
:10202000AFFF03468DF80F300498FFF7EEFE03462E
:102030008DF80E309DF80E30022B01D1032300E005
:1020400002238DF80D309DF80D3019460498FFF7E6
:10205000AFFE0498FFF71DFF0498FFF763FF0346E8
:102060001846FFF76DFF0290029B002B1BD09DF8D6
:102070000F30032B0FD09DF80E30022B03D19DF8AB
:102080000F30012B07D09DF80E30032B0BD19DF89C
:102090000F30022B07D19DF80F20029B11460498A8
:1020A000984700E000BF059B01330593059B032B78
:1020B000A0D90198FFF778FF0346002B97D100BF06
:1020C00000BF07B05DF804FB8000002000B589B0B8
:1020D00000230693002300934FF48073ADF8123071
:1020E000012307930023059321E0BDF81230184621
:1020F000FFF7DAFD0346002B0ED00798FFF712FE1C
:102100000346002B08D0BDF812301846FFF7E1FD5A
:10211000069A079B13430693079B5B000793BDF842
:1021200012300433ADF81230059B01330593059B43
:10213000072BDAD94FF4BE70FFF7B6FD0346002B2C
:102140000DD04FF4BE70FFF7C4FD069B43F0004373
:1021500006936B461A4601210020FFF76CFE069B92
:10216000DBB2002B29D0012307930023059321E044
:10217000079A069B1340002B16D00598FFF7DEFD4B
:1021800003900598FFF7EAFD03468DF80B3005989C
:10219000FFF7D6FE0190019B002B05D09DF80B2088
:1021A000019B114603989847079B5B000793059B8B
:1021B00001330593059B072BDAD9069B002B03DA25
:1021C0006B461846FFF710FF00BF09B05DF804FB2F
:1021D00008B5064B1B68002B03D10549512001F0BF
:1021E000CDFA024B1B68984708BD00BFDC000020F9
:1021F000EC69000082B00190019B044A934201D136
:10220000034B00E00023184602B070470020004056
:10221000DC00002000B587B001900091019B002BED
:1022200003D11849772001F0A9FA0198FFF7E2FFDE
:102230000590059B002B1ED000238DF81330002045
:1022400001F046FA059B1B79002B03D001238DF882
:10225000133005E0059B009A1A60059B01221A7154
:10226000002001F049FA9DF81330002B03D0112310
:102270000393039B02E000230393039B184607B0DC
:102280005DF804FBEC69000000B585B00190019B8E
:10229000002B03D10A499B2001F070FA0198FFF747
:1022A000A9FF0390039B002B05D0039B00221A601B
:1022B000039B00221A7100BF05B05DF804FB00BF4C
:1022C000EC69000082B003468DF807309DF90730B5
:1022D000002B0CDB9DF8073003F01F0205499DF928
:1022E00007305B09012000FA02F241F8232000BF09
:1022F00002B0704700E100E082B0034600918DF823
:1023000007309DF90730002B0ADB009BDAB20C493D
:102310009DF907305201D2B20B4483F800230BE041
:10232000009BDAB207499DF8073003F00F03043B26
:102330005201D2B20B441A7600BF02B0704700BF00
:1023400000E100E000ED00E000B583B003460A467E
:102350008DF8073013468DF806309DF80630072BB0
:1023600003D908496B2001F009FA9DF806209DF970
:10237000073011461846FFF7BFFF00BF03B05DF8F6
:1023800004FB00BF506A000000B583B003468DF81F
:1023900007309DF907301846FFF794FF00BF03B0E0
:1023A0005DF804FB82B003468DF807309DF80730D6
:1023B00003F1804303F5E04301221A6000BF02B03D
:1023C000704782B00346ADF80630BDF8063003F121
:1023D000804303F5E0431B68002B14BF0123002357
:1023E000DBB2184602B0704784B00346ADF8063041
:1023F000BDF8063003F1804303F5E04300221A6084
:10240000BDF8063003F1804303F5E0431B680393F6
:10241000039B00BF04B0704782B003468DF80730BD
:102420000B468DF8063013468DF805300A499DF8A5
:1024300007309DF8052051331B010B4404331A600B
:1024400005499DF807309DF8062051331B010B44C8
:102450001A6000BF02B070470070004082B0019067
:10246000034A019BC2F8043300BF02B0704700BFAB
:102470000070004082B00190034A019BC2F808330B
:1024800000BF02B0704700BF00700040024B012245
:10249000C3F8002500BF704700700040024B0022C7
:1024A000C3F8002500BF70470070004082B0019063
:1024B0000091054A019BC2F82C36034A009BC2F8E2
:1024C000303600BF02B070470070004082B0034653
:1024D0008DF80730034A9DF80730C2F8F03500BF89
:1024E00002B070470070004082B003468DF807309C
:1024F000034A9DF80730C2F8F43500BF02B07047B8
:1025000000700040024BD3F8F435DBB21846704738
:102510000070004000B583B0034600918DF807308D
:10252000009B1B7803F00302009B5B781B0103F008
:1025300030031A43009B9B781B0203F4E0631A43A9
:10254000009BDB781B0303F480531A43009B1B7929
:102550001B0403F4E0231A43009B5B791B0503F47F
:10256000801342EA0301009B9B791B0603F08072F3
:102570000A489DF807300A431B01034403F5A3638F
:102580001A60009BD979009B1A7A9DF8073018468B
:10259000FFF742FF00BF03B05DF804FB007000408E
:1025A00000B58FB04FF48270FFF70BFF0346002B8E
:1025B00046D04FF48270FFF717FF8E4B93F82E3002
:1025C00083F00103DBB2002B04D18A4B93F82F3048
:1025D000002B35D000238DF81C30864B5B680893A8
:1025E000844B1B899BB2ADF82430824BDB68002BF7
:1025F00003D1804B00221A7419E07E4B1A8B7D4B5D
:102600005A837C4BDB687B4A53607A4B1A8B794B3D
:102610001A81784B0022DA60764B93F82E3083F0E3
:102620000103DBB2002B02D00020FFF7BBFE714B91
:102630001B6807AA104698476E4B002283F82F208C
:102640006C4B93F82E30002B5ED04FF48070FFF768
:10265000B8FE0346002B57D04FF48070FFF7C4FE3E
:10266000644B5B8B634A92F82D2093421BD9614BDC
:102670005B8B604A92F82D209B1A9AB25D4B5A836D
:102680005C4B5A685B4B1B899BB21946594B5B8B61
:10269000CB1A5B001344574A92F82D201146184676
:1026A000FFF704FF29E0534B5B8B524A92F82D2031
:1026B000934214D14F4BDB68002B10D04D4B0122BD
:1026C00083F82F204B4B00225A834A4BDB68494A40
:1026D00092F82D2011461846FFF7E8FE0DE0454B15
:1026E0005B8B444A92F82D20934206D1414B012244
:1026F00083F82F203F4B00225A834FF48270FFF75C
:1027000073FE0420FFF74EFE4FF48870FFF759FE6A
:102710000346002B0ED04FF48870FFF765FE354B53
:1027200000221A7402238DF81030324B1B6804AA61
:10273000104698474FF48A70FFF743FE0346002B7C
:1027400007D04FF48A70FFF74FFE2A4B00221A740D
:102750004CE0284B5B690D9345E00D9B0A930A9B67
:10276000002B01D1202303E00A9BB3FA83F3DBB2F1
:102770000C934FF000420C9B22FA03F3DB430D9ABB
:1027800013400D930C9B9BB246339BB29B00ADF85C
:102790002E30BDF82E301846FFF713FE0346002BEF
:1027A00021D0BDF82E301846FFF71EFE01238DF80C
:1027B0000430BDF82E30A3F58C73DB08DBB28DF846
:1027C0000830BDF82E30A3F58C7303F00403002B02
:1027D0000CBF01230023DBB28DF80930054B1B68C9
:1027E00001AA104698470D9B002BB6D100BF0FB031
:1027F0005DF804FBE400002000B585B00190009175
:10280000019B002B03D13249D82000F0B7FF009B79
:10281000002B03D12E49D92000F0B0FF2D4B93F8A7
:102820002C30002B03D008230393039B4CE0294A50
:10283000009B1360019B1B781846FFF747FE019B26
:102840005B781846FFF750FE019BDA78214B83F83E
:102850002E20204B012283F82C201E4B00221A74BC
:102860001C4B002283F82D201A4B00225A61194B71
:10287000002283F82F206FF00040FFF7FBFD4FF49C
:102880008270FFF7B1FD4FF48070FFF7ADFD4FF49C
:102890008A70FFF7A9FD019B9B7819460720FFF777
:1028A00053FD0720FFF770FD0220FFF7D7FD094B0E
:1028B00093F82E30002B02D00120FFF7CFFDFFF759
:1028C000E5FD00230393039B184605B05DF804FB68
:1028D000B86A0000E400002000B585B0034600910E
:1028E0008DF80730434B93F82C30002B04D142492C
:1028F00040F2251000F042FF9DF80730072B04D965
:102900003D494FF4937000F039FFFFF7FBFD03469C
:10291000002B09D0374B93F82D30002B04D03649CB
:102920004FF4947000F02AFF009BDB79092B03D849
:10293000009BDB79002B04D12F494FF4987000F0F5
:102940001DFF009B1B7A092B04D92B494FF499706A
:1029500000F014FF274B1B7CDBB2002B03D01123AC
:102960000393039B41E0009B1B79002B03D0009B4A
:102970001B79012B01D1FFF791FD9DF807301D4A0E
:102980000C335B0013441B79002B07D1194B93F8D0
:102990002D300133DAB2174B83F82D209DF8073024
:1029A000009AD179134A0C335B0013440A461A711A
:1029B0009DF80730009A117A0E4A0C335B001344DD
:1029C0000A465A719DF8073000991846FFF7A2FD94
:1029D000009B1B79002B03D0009B1B79012B01D19D
:1029E000FFF754FD00230393039B184605B05DF8E1
:1029F00004FB00BFE4000020B86A000082B0034678
:102A00008DF807309DF90730002B0CDB9DF807305F
:102A100003F01F0205499DF907305B09012000FA08
:102A200002F241F8232000BF02B0704700E100E04D
:102A300082B003468DF807309DF90730002B13DB79
:102A40009DF8073003F01F0209499DF907305B0923
:102A5000012000FA02F2203341F82320BFF34F8F08
:102A600000BFBFF36F8F00BF00BF02B0704700BF51
:102A700000E100E082B0034600918DF807309DF937
:102A80000730002B0ADB009BDAB20C499DF90730B6
:102A90005201D2B20B4483F800230BE0009BDAB260
:102AA00007499DF8073003F00F03043B5201D2B2EF
:102AB0000B441A7600BF02B0704700BF00E100E08F
:102AC00000ED00E082B00190019B03F06043B3F1A0
:102AD000005F0CBF01230023DBB2184602B0704731
:102AE00082B00190019B1B0B5BB2184602B070478D
:102AF00000B583B003460A468DF8073013468DF8BB
:102B000006309DF80630072B03D908496B2000F0EA
:102B100035FE9DF806209DF9073011461846FFF74F
:102B2000A9FF00BF03B05DF804FB00BF1C6B0000F1
:102B300000B583B003468DF807309DF9073018467D
:102B4000FFF75CFF00BF03B05DF804FB00B583B086
:102B500003468DF807309DF907301846FFF768FFE8
:102B600000BF03B05DF804FB82B001900B468DF806
:102B700003309DF80330019A134401221A6000BF0C
:102B800002B0704784B001900B46ADF80230BDF83A
:102B90000230019A134400221A60BDF80230019AF3
:102BA00013441B680393039B00BF04B0704782B0BB
:102BB00001900B46ADF80230BDF80230019A134483
:102BC0001B68002B14BF01230023DBB2184602B0A0
:102BD000704782B001900091019B009AC3F80423D2
:102BE00000BF02B0704782B001900091019B009A33
:102BF000C3F8082300BF02B0704782B00190019B68
:102C00000722C3F8002500BF02B0704782B00190D0
:102C1000019B0022C3F8002500BF02B0704784B0BA
:102C20000390029101920093039B029AC3F8082536
:102C3000039B019AC3F80C25039B009AC3F8102547
:102C400000BF04B0704782B001900091009A019BD0
:102C5000C3F8242500BF02B0704784B003900291EE
:102C60000192029A039BC3F84425039B019AC3F87F
:102C7000482500BF04B0704784B0039002910192D0
:102C8000029A039BC3F83425039B019AC3F83825A5
:102C900000BF04B0704784B001900B468DF803303C
:102CA00013468DF802309DF80230002B14BF01232B
:102CB0000023DBB203939DF80330032B10D0032BCA
:102CC00013DC012B02D0022B05D00EE0039B43F056
:102CD000020303930AE0039B43F00403039305E01C
:102CE000039B43F00603039300E000BF019B039A9C
:102CF000C3F8542500BF04B0704782B001900B4662
:102D00008DF803309DF80320019BC3F8C02500BF58
:102D100002B0704782B00190019B0122C3F8502598
:102D200000BF02B0704782B00190019B0022C3F83F
:102D3000502500BF02B0704782B00190019B012274
:102D4000C3F8402500BF02B0704782B00190019BDC
:102D50000022C3F8402500BF02B0704700B583B021
:102D60000190019B1B68184600F0B4F80346002B45
:102D700004D105494FF4F67000F000FD4FF0A04378
:102D8000184603B05DF804FB4C6B000000B585B03D
:102D90000190084611461A4603468DF803300B464B
:102DA0008DF8023013468DF8013001AB1846FFF75D
:102DB000D5FF03909DF803209DF802305B001A4375
:102DC0009DF801309B001A439DF818301B0242EA1F
:102DD00003019DF81C301B04019A1943039B02F563
:102DE000E07243F8221000BF05B05DF804FB00B5A7
:102DF00085B0039000230193002300930023012258
:102E000001210398FFF7C2FF00BF05B05DF804FB86
:102E100000B585B003900B468DF80B309DF80B3054
:102E20000022019200220092002200210398FFF765
:102E3000ADFF00BF05B05DF804FB00B585B00390A1
:102E40000023019300230093002301220021039813
:102E5000FFF79CFF00BF05B05DF804FB00B585B02F
:102E6000019001AB1846FFF779FF0390019B012207
:102E700002FA03F31946039800F018F800BF05B0F2
:102E80005DF804FB00B585B0019001AB1846FFF773
:102E900065FF0390019B012202FA03F31946039890
:102EA00000F00EF800BF05B05DF804FB82B00190A1
:102EB0000091019B009AC3F8082500BF02B070473B
:102EC00082B001900091019B009AC3F80C2500BFCD
:102ED00002B0704784B00190019B5B09029300230C
:102EE0000393029B002B03D14FF0FF33039300BFEA
:102EF000019B03F01F030193039A019B22FA03F342
:102F000003F00103DBB2184604B0704700B58DB082
:102F10000590049103920293049B002B03D16C490A
:102F2000AD2000F02BFC059B1B791A461346DB00F5
:102F300013449B00674A13440A930A9B1B7F002B90
:102F400003D008230793079BBDE0059B1B680993EB
:102F5000059B1A68059B1B7919465F4B53F8213076
:102F600019461046FFF756F90346002B03D01123EC
:102F70000793079BA7E00A9B039A1A600A9B029A91
:102F80005A60049B1B7B012B05D8049B1B781846B9
:102F9000FFF778FF04E0049B1B781846FFF75EFFFD
:102FA000049B1B7818460023019300230093002301
:102FB00000220121FFF7EAFE049B5B78FF2B09D07A
:102FC000049B5B780B930B98FFF75CFF0B98FFF764
:102FD0000EFF02E04FF0FF330B93049B9B78FF2B17
:102FE00007D0049B9B78089301210898FFF710FFF6
:102FF00002E04FF0FF330893049B9A780A9B83F812
:103000002020049BDA780A9BDA77049BDB78FF2B7D
:1030100017D0049B1B79002B05D0049BDB78184646
:10302000FFF730FF04E0049BDB781846FFF716FF3C
:10303000049BDB781846FFF7DAFE049B1A790A9B9B
:103040009A77049B1B781946089B0B9A0998FFF7FF
:10305000E6FD049B9B6819460998FFF7F4FD049B65
:10306000197B049B5B7B1A460998FFF714FE049BAF
:103070009B7919460998FFF740FE0998FFF7BDFDB7
:103080000A9B1B68002B15D0059B1B681846FFF791
:1030900027FD03461A46049B5B7919461046FFF745
:1030A00027FD059B1B681846FFF71AFD03461846C7
:1030B000FFF73EFD0A9B00225A770A9B01221A77EE
:1030C00000230793079B18460DB05DF804FB00BF73
:1030D000846B000014010020F86B000000B585B07F
:1030E0000190019B1B791A461346DB0013449B0099
:1030F0002A4A13440393039B1B7F002B04D12849C6
:103100004FF4AE7000F03AFB039B1B68002B08D015
:10311000019B1B681846FFF7E3FC03461846FFF7C0
:1031200015FD019B1B680293039B1B68002B1BD0A2
:103130001C490298FFF757FD039B5B7FDBB2002B16
:1031400012D014210298FFF70FFD00BF4FF48271D7
:103150000298FFF72CFD034683F00103DBB2002B3E
:10316000F4D1039B00225A77039B93F82030FF2B66
:1031700005D0039B93F820301846FFF75EFE0298B7
:10318000FFF744FD019B1B681846FFF77DF8039B82
:1031900000221A7700BF05B05DF804FB140100207F
:1031A000846B00005201080000B583B00190019BC0
:1031B000DB7FFF2B0ED0019B9B7F002B05D0019B5B
:1031C000DB7F1846FFF75EFE04E0019BDB7F1846BD
:1031D000FFF744FE019B00225A77019B00221A72DE
:1031E000019B1B68019A02F10800019A526811467E
:1031F000984700BF03B05DF804FB00B583B00190B1
:103200000B468DF803309DF8033083F00103DBB2E9
:10321000002B04D040210198FFF7E5FC03E040219A
:103220000198FFF7D6FC00BF03B05DF804FB00B5C2
:1032300083B001900091009B03F00103002B03D0A9
:103240000198FFF767FD02E00198FFF76CFD009B16
:1032500003F00203002B03D00198FFF76DFD02E09D
:103260000198FFF772FD00BF03B05DF804FB00B5E5
:1032700087B00390029101920093019B1B68002B81
:103280000AD0019B1B681846FFF71CFC034683F01D
:103290000103DBB2002B0ED1019B9B68002B11D0E8
:1032A000019B9B681846FFF70DFC034683F0010362
:1032B000DBB2002B06D0029B00225A771023059325
:1032C000059B54E0019B1968019B5B681A460398B3
:1032D000FFF7C3FC019B9968019BDB681A460398C2
:1032E000FFF7CAFC4FF48C710398FFF74BFC009971
:1032F0000398FFF79CFF009B03F00803002B03D10A
:1033000010210398FFF730FC029B1B68002B1FD194
:1033100000BF4FF48C710398FFF749FC034683F01C
:103320000103DBB2002BF4D1029BDB7FFF2B1BD010
:10333000029B9B7F002B05D0029BDB7F1846FFF78B
:10334000A1FD11E0029BDB7F1846FFF787FD0BE034
:10335000009B03F00403002B0CBF01230023DBB20E
:1033600019460398FFF749FF00230593059B18466C
:1033700007B05DF804FB000010B586B00390029121
:103380000192039B1B791A461346DB0013449B00F2
:10339000394A13440593059B1B7F002B04D1374901
:1033A00040F22D2000F0EAF9029B1B68002B08D1A7
:1033B000029B5B68002B04D0304940F22E2000F0C5
:1033C000DDF9029B9B68002B08D1029BDB68002B78
:1033D00004D02A4940F22F2000F0D0F9039B1B793A
:1033E000002B07D1029BDB68FF2B03D8029B5B6895
:1033F000FF2B04D921494FF40C7000F0BFF90023D2
:103400000493059B5B7FDBB2002B03D01123049355
:10341000049B2EE0059B1B68002B07D0019B03F04B
:103420001403002B02D1059B01225A77059B029AB7
:1034300003F10C0413460FCB84E80F00059BDB7FE0
:10344000FF2B0ED0059B9B7F002B05D0059BDB7FC0
:103450001846FFF703FD04E0059BDB7F1846FFF7E6
:1034600011FD039B1868019B029A0599FFF7FFFE67
:103470000346184606B010BD14010020846B0000FE
:1034800000B583B0019000914FF48C710198FFF763
:103490008EFB0346002B10D04FF48C710198FFF780
:1034A00071FB009B1B68002B04D1064940F297205A
:1034B00000F064F90098FFF777FE00BF03B05DF8F5
:1034C00004FB00BF846B000008B503490348FFF705
:1034D000D7FF00BF08BD00BF14010020003000402E
:1034E00086B003900291019201238DF817309DF868
:1034F0001730204A039B13601E4A029B53601D4AEB
:10350000019B9360039B44F20102934212D0039B00
:1035100044F20202934220D1019B164AD360154B1C
:10352000DB681B68134A9361124BDB685B68114AC6
:10353000D36112E0019B0F4A13610E4B1B699B681C
:103540000C4A53610B4B1B691B680A4A9361094B78
:103550001B695B68074AD36100BF72B600BF00BF3A
:103560009DF81730DBB2002BFAD162B600BF00BF66
:1035700006B070473801002000B583B0029000917A
:10358000019244F2010071466A4600F003F803B06C
:1035900000BD00BF30B58BB007900691059272B6A2
:1035A00000BF01F089FF01F049FD0346002BFAD16D
:1035B000079B44F20102934216D0079B44F2020299
:1035C00093423ED1059B09932C4A2D4BD31ADB081D
:1035D0001B0443F00100099B5B681A46099B1B68AA
:1035E000284901F0BCFC39E0059B0893234A244B91
:1035F000D31ADB081B0443F00104089B9D68089B59
:103600009B68184600F0E2FF03461846089B5B687B
:103610001946089B1B68069A029201930091034683
:103620002A461949204601F0C4FC144A144BD31A07
:10363000DB081B0443F001031449184601F070FC39
:103640000CE00E4A0E4BD31ADB081B0443F00103B7
:10365000069A0F49184601F071FC00BF0D4B1B681C
:1036600003F00103002B00D000BE059A06990798CD
:10367000FFF736FF00BF0BB030BD00BFD0620000C7
:10368000A0620000006E00001C6E0000446E00008E
:10369000586E0000F0ED00E072B600BF034B1B68EF
:1036A0000133024A136000BF704700BF5801002079
:1036B000064B1B68013B054A1360044B1B68002B3B
:1036C00001D162B600BF00BF704700BF58010020A3
:1036D00000B583B0019000F025F80346012B03D01C
:1036E0000449432000F04AF8FFF7D6FF00BF03B0BB
:1036F0005DF804FBE46E000000B583B003468DF86E
:10370000073000F00FF80346012B03D00449512085
:1037100000F034F8FFF7CCFF00BF03B05DF804FB06
:10372000E46E000084B0EFF305830193019BC3F3C3
:1037300008030393039B002B0DD1EFF31483009335
:10374000009B0293029B03F00103002B0CBF01239B
:103750000023DBB200E00123184604B070470000EC
:1037600008B5044B1B68044A12681046984700BF0E
:1037700008BD00BF5C0100206001002000B585B0DD
:1037800003460091ADF80630BDF806300293009B69
:10379000039302AB1A46002144F20200FFF7FAFE3F
:1037A00000BF05B05DF804FB10B487B00190009134
:1037B000019B009A53E8004F104643E8000191F046
:1037C000000FF7D1059404900391059B184607B0AC
:1037D0005DF8044B704710B487B001900091019BD5
:1037E000009A53E8004F44EA020043E8000191F0D8
:1037F000000FF6D1059404900391049B184607B07E
:103800005DF8044B704710B487B001900091019BA4
:10381000009A53E8004F04EA020043E8000191F0E7
:10382000000FF6D1059404900391059B184607B04C
:103830005DF8044B704710B487B001900091019B74
:10384000009A53E8004F04EB020043E8000191F0B6
:10385000000FF6D1059404900391049B184607B01D
:103860005DF8044B704710B487B001900091019B44
:10387000009A53E8004FA4EB020043E8000191F0E6
:10388000000FF6D1059404900391049B184607B0ED
:103890005DF8044B704700B583B001900121019899
:1038A000FFF799FF0346184603B05DF804FB00B527
:1038B00083B0019000210198FFF7A5FF0346184649
:1038C00003B05DF804FB000000B583B001900B4627
:1038D0008DF80330019B002B03D10849E820FFF746
:1038E0004DFF019BDA689DF803300199098A01FBBD
:1038F00003F31344184603B05DF804FB506F000057
:1039000000B583B001900091019B002B03D10849C1
:10391000F520FFF733FF009B019AD2689B1A019AAA
:10392000128AB3FBF2F3DBB2184603B05DF804FB76
:10393000506F000000B585B00190019B002B01D1B4
:103940000E234CE0019B1B68002B03D12649FF206E
:10395000FFF714FF019B5B68002B04D122494FF451
:103960008070FFF70BFF019B9B68002B04D11E4961
:1039700040F20110FFF702FF019BDB68002B04D12E
:1039800019494FF48170FFF7F9FE019B1B8A002B48
:1039900004D1154940F20310FFF7F0FE019B9A682D
:1039A000019B5B68D31A8DF80F30019B1B68019A4D
:1039B00052681A6007E0019B1A681368591C11606D
:1039C0009DF80F201A709DF80F305A1E8DF80F20A9
:1039D000002BF0D1019B1B6800221A7100231846AE
:1039E00005B05DF804FB00BF506F000000B585B066
:1039F0000190019B002B04D11C494FF49270FFF7FA
:103A0000BDFE002303930020FFF762FE019B1B68AD
:103A10001A68019B5B689A421FD9019B1B681A6850
:103A2000013A1A601B681B7819460198FFF74CFF92
:103A30000390019B9A68019B1B681B68D31A8DF841
:103A40000B30019B1B681B799DF80B209A4204D90F
:103A5000019B1B689DF80B201A710020FFF74CFE9C
:103A6000039B184605B05DF804FB00BF506F0000D3
:103A700010B584B001900091019B002B04D1114935
:103A800040F24710FFF77AFE009B002B04D10D494E
:103A90004FF4A470FFF772FE009B03930020FFF722
:103AA00017FE019B1B681C68621C1A600399019831
:103AB000FFF726FF034623700020FFF71DFE00BF1F
:103AC00004B010BD506F000000B583B00190019BA1
:103AD000002B03D10C493120FFF750FE019B9B685E
:103AE000002B0CD0019B5B69019A1069019A116847
:103AF000019A92689847019B00229A6000E000BFFB
:103B000003B05DF804FB00BFB46F00000EB400B555
:103B100084B00190019B002B03D118494220FFF78C
:103B20002DFE019B5B69002B03D114494320FFF755
:103B300025FE019B1B68002B03D110494420FFF791
:103B40001DFE019B5B68002B03D10C494520FFF74C
:103B500015FE059B002B0AD00023039306AB0393AD
:103B600003AB1A460599019800F0B8F900E000BFD0
:103B700004B05DF804EB03B0704700BFB46F000001
:103B800000B583B001900B468DF803309DF80330EB
:103B90000A2B03D10D210198FFF7F2FF019B1A6850
:103BA000019B9B68581C0199886013449DF8032071
:103BB0001A70019B9A68019B5B689A4202D3019834
:103BC000FFF782FF00BF03B05DF804FB00B587B0CC
:103BD000039002910192009300230593009B03F050
:103BE0000103002B24D00BE0029B01330293059BC1
:103BF000013305939DF8133019460398FFF7C0FF72
:103C0000029B1B788DF813309DF81330002BEBD1FD
:103C100006E0019B013B019320210398FFF7B0FFD1
:103C2000019A059B9A422ED9019B002BF1D12AE0E3
:103C3000029B002B0BD0029802F085FA059006E05B
:103C4000019B013B019320210398FFF799FF019A03
:103C5000059B9A420FD9019B002BF1D10BE0029BEF
:103C600001330293059B013305939DF813301946E8
:103C70000398FFF785FF029B1B788DF813309DF8A2
:103C80001330002BEBD100BF07B05DF804FB000040
:103C900000B589B00390029101920093029B0793B3
:103CA0000123069307E0079A019BB2FBF3F3079306
:103CB000069B01330693079A019B9A42F3D2009A1E
:103CC000069B9A4201D9009B06930B9B03F00103CC
:103CD000002B22D10A9B002B1FD00B9B03F0020369
:103CE000002B06D0009B002B03D130238DF817301A
:103CF00002E020238DF8173008E00A9B013B0A936D
:103D00009DF8173019460398FFF73AFF0A9B002BDE
:103D100003D0069A0A9B9A42EFD301230793009B94
:103D2000012B03D9009B013B009309E0029A079BFA
:103D3000B2FBF3F30493049A019B9A4200D205E08C
:103D4000079B019A02FB03F30793E8E7029A079B9C
:103D5000B2FBF3F30493049B079A02FB03F3029A6A
:103D6000D31A0293154A049B13441B7819460398EF
:103D7000FFF706FF079A019BB2FBF3F30793079B3C
:103D8000002BE3D10B9B03F00103002B11D00A9B06
:103D9000002B0ED006E00A9B013B0A9320210398DA
:103DA000FFF7EEFE0A9B002B03D0069A0A9B9A426D
:103DB000F1D300BF09B05DF804FB00BF74700000D0
:103DC00000B589B00590049103920293049B002BE7
:103DD000B8BF5B4206930123079307E0039B069A53
:103DE00092FBF3F30693079B01330793039B069A19
:103DF0009A42F3DA029A079B9A4201D9029B0793EF
:103E00000A9B002B0AD0049B002B04DB0B9B03F0C6
:103E10000403002B02D00A9B013B0A930B9B03F087
:103E20000203002B02D0029B002B16D00B9B03F049
:103E30000103002B11D10A9B002B0ED006E00A9B38
:103E4000013B0A9320210598FFF79AFE0A9B002B5D
:103E500003D0079A0A9B9A42F1D3049B002B07DAFE
:103E6000049B5B4204932D210598FFF789FE08E02F
:103E70000B9B03F00403002B03D02B210598FFF7C5
:103E80007FFE0B9B03F00203002B19D00B9B03F06A
:103E90000103002B14D1029B002B11D10A9B002B94
:103EA0000ED006E00A9B013B0A9330210598FFF7EC
:103EB00067FE0A9B002B03D0079A0A9B9A42F1D314
:103EC00004990B9B01930A9B0093029B039A05980C
:103ED000FFF7DEFE00BF09B05DF804FB00B58FB050
:103EE000059004910392059B002B04D1AD4940F24B
:103EF0005220FFF743FC059B5B69002B04D1A949C5
:103F00004FF41570FFF73AFC059B1B68002B04D19A
:103F1000A44940F25520FFF731FC059B5B68002B5C
:103F200004D1A04940F25620FFF728FC049B002B47
:103F300000F09381049B1B788DF83730049B01338C
:103F400004939DF83730002B00F07E819DF83730C8
:103F5000252B40F06D8100230A9301230C93049BD1
:103F60001B788DF837309DF83730302B0DD0302B43
:103F70001BDC2B2B11D02D2B17D10A9B43F00103F7
:103F80000A93049B0133049312E00A9B43F002035B
:103F90000A93049B013304930AE00A9B43F0040351
:103FA0000A93049B0133049302E000230C9300BFA7
:103FB0000C9B002BD3D1002309939DF837302A2B7B
:103FC0000CD1039B1B68191D039A11601B68099A89
:103FD00013440993049B013304931AE0049B1B7858
:103FE0008DF837309DF837302F2B12D99DF83730A8
:103FF000392B0ED8049B01330493099A13469B0076
:1040000013445B001A469DF837301344303B099344
:10401000D3E700230B93049B1B788DF837309DF872
:1040200037302E2B1DD1049B01330493049B1B7846
:104030008DF837309DF837302F2B12D99DF8373057
:10404000392B0ED8049B013304930B9A13469B0023
:1040500013445B001A469DF837301344303B0B93F2
:10406000E4E7049B1B788DF837309DF837306C2BD4
:1040700003D09DF83730682B07D1049B013304939C
:10408000049B1B788DF83730EFE79DF83730252BF0
:1040900000F0C480252BC0F2C680782B00F3C380CB
:1040A000582BC0F2C080583B202B00F2BC8001A2EC
:1040B00052F823F0A94100002742000027420000E7
:1040C000274200002742000027420000274200004C
:1040D000274200002742000027420000274200003C
:1040E000394100005B4100002742000027420000E8
:1040F00027420000274200005B41000027420000E9
:10410000274200002742000027420000274200000B
:1041100027420000E941000027420000274200003A
:10412000CD410000274200007F41000027420000EF
:1041300027420000A9410000039B1B68191D039A38
:1041400011601B680C930C9B8DF81F309DF81F307D
:1041500019460598FFF714FD66E0039B1B68191DBF
:10416000039A11601B680C930A9B0193099B0093AF
:104170000B9B0A220C990598FFF722FE54E0039B43
:104180001B68191D039A11601B680C930C990A9BFC
:104190000193099B00930B9B0A220598FFF778FD7A
:1041A00042E000BF10700000039B1B68191D039ABA
:1041B00011601B680C930C990A9B0193099B009357
:1041C0000B9B10220598FFF763FD2DE0039B1B68F6
:1041D000191D039A11601B6808930A9B099A089994
:1041E0000598FFF7F3FC1FE0039B1B68191D039A5A
:1041F00011601B680C9330210598FFF7C1FC7821F2
:104200000598FFF7BDFC0C99002301930823009348
:10421000082310220598FFF73BFD05E025210598AE
:10422000FFF7AEFC00E000BF049B0133049305E000
:104230009DF8373019460598FFF7A2FC049B1B78C0
:10424000002B7FF477AE00E000BF059B1B7B002BAB
:1042500004D00598FFF738FC00E000BF0FB05DF810
:1042600004FB00BF00B583B001900198FFF762FB2B
:104270000346184603B05DF804FB00B58BB001900F
:104280000091019B1B8A043B0793009A079B1344F0
:10429000DA1C079BB2FBF3F38DF81B300198FFF794
:1042A000A5FB0590059B002B01D1002338E0059B61
:1042B00000221A71059B01225A71079B9AB2059B35
:1042C000DA80059B09939DF81B30013B0493099B01
:1042D000019A1A60002308931DE00198FFF786FBFE
:1042E0000390039B002B0ED0059B5B790133DAB260
:1042F000059B5A71099B039A1A60039B019A1A60E5
:10430000039B099304E0059800F00EF8002307E0F2
:10431000089B01330893089A049B9A42DDD3059BBE
:1043200018460BB05DF804FB00B58BB00190019B03
:104330000793079B5B798DF81B30019B08939DF8D1
:104340001B30013B05930023099305E0089B1B6884
:104350000893099B01330993099A059B9A42F5D367
:10436000089B1B680493019B0893002309930BE0AF
:10437000089B1B68039308990498FFF779FB039B3C
:104380000893099B013309939DF81B30099A9A42BF
:10439000EED300BF00BF0BB05DF804FB00B585B0E5
:1043A0000190019B0393039B043301211846FFF7FF
:1043B00042FA00BF05B05DF804FB00B587B001907C
:1043C000019B0593059B043301211846FFF74BFA27
:1043D0000346039303AB0493049B1B78002B02D189
:1043E0000198FFF7A1FF00BF07B05DF804FB0000D4
:1043F00000B591B00390029101920093039B002BB2
:1044000003D14349B620FFF7B9F9039B0993039BF6
:104410000F93099BDB881A46099B5B7902FB03F328
:10442000043B0893009A089B9A4203D33849C4205E
:10443000FFF7A4F9099BDB880793009B1A1D079BD4
:10444000B2FBF3F30E93009B0433079AB3FBF2F233
:10445000079901FB02F29B1A0D93019B1A68009BBE
:104460001344089A9A4203D2089A009BD31A01E097
:10447000019B1B680C93019B0C9A1A6005E00F9B33
:104480001B680F930E9B013B0E930E9B002BF6D1E6
:1044900000230B93079A0D9BD31A0A930A9A0C9B3D
:1044A000934228BF13460A932AE0029A0B9B1344B7
:1044B00006930F9A0D9B1344043305939DF84830DF
:1044C000002B05D00A9A0599069801F051FE04E0E8
:1044D0000A9A0699059801F04BFE00230D930F9B55
:1044E0001B680F930C9A0A9BD31A0C930B9A0A9B86
:1044F00013440B93079A0C9B934228BF13460A93CD
:104500000C9B002BD1D100BF00BF11B05DF804FBA4
:104510008470000000B589B0059004910392029365
:10452000039B079307AA00230093029B0499059815
:10453000FFF75EFF079B039A9A4203D00349F620D8
:10454000FFF71CF900BF09B05DF804FB84700000A0
:1045500000B589B00590049103920293039B0793E1
:1045600007AA01230093029B04990598FFF740FFD7
:10457000079B039A9A4204D004494FF48070FFF7D6
:10458000FDF800BF09B05DF804FB00BF84700000B7
:1045900082B00190019B9B6800229A60019B9B68FE
:1045A00000221A61019B9B6800225A61019B9B6853
:1045B0000022DA60019B9B6800225A60019B9B6885
:1045C00000221A6000BF02B07047000000B585B03D
:1045D0000190019800F00EF80390039B002B01D08E
:1045E000039B00E0024B184605B05DF804FB00BFDA
:1045F0005C71000086B00190164B0593164B049336
:104600001FE0049A059BD31ADB10DA0F13445B10EA
:10461000DB00059A13440393039B1B680293029AE1
:10462000019B9A4202D9039B04930AE0029A019BE0
:104630009A4203D2039B0833059302E0039B5B6815
:1046400004E0059A049B9A42DBD30023184606B087
:10465000704700BF307500004876000000B585B097
:104660000190019B002B0AD0074B43F001030393F9
:10467000019B9B010293039B0298984700E000BFB7
:1046800005B05DF804FB00BF6076000000B583B0A4
:104690000190019B002B0AD04FF47A70FFF7DEFFE8
:1046A000019B013B0193019B002BF5D100E000BF72
:1046B00003B05DF804FB08B501F018FA00BF08BDAF
:1046C00000B589B0039002910192019B002B33D079
:1046D0000023079306230693029A079B1344019A2B
:1046E0001946002001F0B2F90590079A059B134482
:1046F0000793019A059BD31A0193059B002B13D1B5
:104700000F4B1B7883F00103DBB2002B13D1012088
:10471000FFF7BCFF069B013B0693069B002B03D1D2
:10472000074B00221A7007E0054B01221A70019B0B
:10473000002BD1D100E000BF00BF09B05DF804FB41
:104740006801002000B585B003900291054B0093ED
:104750004023054A0299039800F012F800BF05B003
:104760005DF804FBC14600006C01002082B001909E
:1047700000BF02B0704782B0019000BF02B0704726
:1047800000B5A1B005900491039202930498FFF73D
:1047900005FE039B1593029B16930023179300239A
:1047A0008DF8603000231993229B1A9300231F93E6
:1047B0000FA91F9B08220498FFF7CAFE08231F9326
:1047C000119B1293BDF84030ADF84C30BDF842302B
:1047D000ADF84E3000238DF851309DF83C3003F099
:1047E0000303DBB2012B26D10F9BC3F395231C934C
:1047F0009DF83C30C3F3C203DBB28DF85030BDF8F6
:104800003C30C3F38313DBB21B931B9B9A0009A9B3
:104810001F9B0498FFF79CFE1B9B9B001F9A134451
:104820001F9312AA09A915AB009313461B9A1C9853
:1048300000F0EEFE2FE09DF83C3003F00303DBB206
:10484000022B28D1BDF83E30C3F389139BB21E93CF
:104850009DF83C30C3F3C203DBB28DF850301E9B91
:10486000082B28BF08231D9307A91F9B1D9A049896
:10487000FFF76EFE1F9A1D9B13441F931E9A1D9BEC
:10488000D31A1E9315AB12AA07A81D9900F062FF58
:104890001E9B002BE3D10498FFF78FFD00BF21B0D2
:1048A0005DF804FB82B00190019BDB6801225A7124
:1048B00000BF02B07047000000B583B04FF0FF3377
:1048C0000193FFF7F8FE0421084800F0BDFD0190B8
:1048D000019B002B03DA06494120FEF74FFF0348F6
:1048E000FFF7E0FF00BF03B05DF804FBF0620000DB
:1048F0007876000000B583B001900091019B1B68A1
:104900001B6800990198984700BF03B05DF804FB4D
:1049100000B583B00190019B1B685B6801989847C4
:1049200000BF03B05DF804FB00B583B00190019BAC
:104930001B689B680198984700BF03B05DF804FBB3
:1049400082B001900B468DF80330019BDB689DF827
:1049500003201A7100BF02B0704782B00190019B22
:10496000DB681B79184602B0704782B00190019B4A
:10497000DB6801225A7100BF02B0704782B001901B
:10498000019BDB685B79184602B0704700B585B0C3
:10499000019000910C4B00221A700C48FFF762FC4A
:1049A0000390039B002B01D0039B08E00848FFF70E
:1049B000EFFD084A084BD31ADB0802930023184680
:1049C00005B05DF804FB00BF300500200063000067
:1049D000EC760000F0620000A0620000024A034B87
:1049E000D31ADB0818467047F0620000A06200008E
:1049F00000B587B001900B468DF803309DF8033069
:104A0000002B1FD0FFF7EAFF04900023059313E06B
:104A1000059B9B000E4A13440393039B1B881A4675
:104A2000019B1B689A4204D1019B059A1A600023DE
:104A300009E0059B01330593059A049B9A42E7D34D
:104A4000052300E00023184607B05DF804FB00BF13
:104A50000000002000B585B001900B468DF80330B2
:104A60009DF8032001AB11461846FFF7C1FF03462E
:104A7000002B07D1019BDB00054A13440393039BE2
:104A80001B6800E00023184605B05DF804FB00BF7A
:104A9000A062000084B001900B468DF80330019BAA
:104AA000DB00174A134402939DF80330013B032BAC
:104AB0001CD801A252F823F0C94A0000D14A0000D4
:104AC000D94A0000E34A000002238DF80F3011E0BC
:104AD00004238DF80F300DE0029B1B798DF80F3009
:104AE00008E0029B5B798DF80F3003E000238DF81E
:104AF0000F3000BF9DF80F30184604B0704700BF5C
:104B0000A062000084B00190009100238DF80F3066
:104B1000019B1B7803F00403DBB2002B24D0019B24
:104B20001B78C3F30103DBB2012B02D0022B0CD0A4
:104B300017E0009B1B68019A1288C2F38312D2B25D
:104B400013449A1C009B1A600BE0009B1B68019A9F
:104B50005288C2F3891292B213449A1C009B1A60C5
:104B600000BF01238DF80F309DF80F30184604B0B8
:104B70007047000000B58BB00023ADF826303E48EA
:104B8000FEF789FE3D48FEF786FE3D4B9B68049389
:104B90003C4B1B680693049A069B134002339B0010
:104BA000374A13440433089304AB19460898FFF7B7
:104BB000A9FF0346002B09D0049A069B1340023339
:104BC0009B002F4A134404330893EDE700BF0023F2
:104BD000079311E0049B5A1C0492069A1340079A0B
:104BE000920001A90A44264902339B000B445B68EA
:104BF0001360079B01330793079B012BEAD99DF8AC
:104C00000430C3F30103DBB2012B10D0022B1CD103
:104C1000BDF80A30ADF82630BDF80630C3F389136D
:104C20009BB203339A08049B1344049313E0BDF82A
:104C30000A30ADF82630BDF80430C3F38313DBB27D
:104C40001A46049B1344049305E00F494FF4C270C5
:104C5000FEF794FD00BF0948FEF729FE0590059B6D
:104C6000002B02D0049B064A9360BDF826301846FC
:104C70000BB05DF804FB00BF480900204409002088
:104C80003005002014000020FC76000000B585B03F
:104C900000210748FEF788FD0390039B0293029BC7
:104CA00083F310030193019B184605B05DF804FBE4
:104CB0004C09002000B589B0039002910192009345
:104CC000039B1B0C0793FFF7E1FF0690FFF786FE9F
:104CD0000246079B934204D3214940F2A910FEF7F4
:104CE0004DFD069B1904009B5A1C0A9B1340079A12
:104CF0000A431C4902339B000B445A60009A0A9BEA
:104D0000134002339B00174A134404330593039B5B
:104D100003F00703D9B2059A137861F3C503137042
:104D2000019B03F00F03D9B2059A138861F389132D
:104D30001380029BC3F31501059A136861F39F2347
:104D40001360059A1378012161F301031370059A2A
:104D5000137823F00403137000BF09B05DF804FB5F
:104D6000FC7600003005002000B58BB00390029166
:104D700013468DF80730039B0233089301238DF807
:104D80001F300020FEF7A4FC3E4B5A68029B1A60BD
:104D90003D4B1A683B4B99683A4B5B68CB1A1344FE
:104DA0000133099314E001213848FEF744FDFFF771
:104DB000E1FE059005993548FEF73DFD324B1A6836
:104DC000304B99682F4B5B68CB1A1344013309931E
:104DD000089A099B9A42E6D89DF81F30002B48D0CC
:104DE000002304939DF80730002B17D09DF8103056
:104DF000012262F301038DF810309DF8103043F06A
:104E000004038DF81030039B03F00F03DAB2BDF8F2
:104E1000103062F38913ADF8103016E09DF81030B1
:104E2000022262F301038DF810309DF8103043F038
:104E300004038DF81030039BC3F309039AB2BDF845
:104E4000123062F38F13ADF812300E4B5A680E4BCE
:104E50001B68134002339B000A4A13440433069331
:104E6000049A069B1A60074B5A68089B1344054A2C
:104E700053600020FEF740FC9DF81F3018460BB031
:104E80005DF804FB30050020140000204C090020D0
:104E900000B58BB005900491039202931E4B1B68E2
:104EA000079306AB012219460298FFF75DFF034600
:104EB000002B24D0069B023309930023089311E0B2
:104EC000089B9B00039A1A44099B591C0991079956
:104ED0000B401268114902339B000B445A60089B37
:104EE00001330893089A029B9A42E9D3069A079BDA
:104EF00000931346029A04990598FFF7DBFE074BCF
:104F00001B78002B04D000F099F80346002BFAD14F
:104F100000BF0BB05DF804FB14000020300500203A
:104F200000B583B001900091002300220099019800
:104F3000FFF7AEFF00BF03B05DF804FB00B587B01C
:104F4000039002910192019B059305AA0123029906
:104F50000398FFF79DFF00BF07B05DF804FB00B5A5
:104F600087B00390029101920093019B0493009BF0
:104F7000059304AA022302990398FFF789FF00BF53
:104F800007B05DF804FB00B589B00390029101926F
:104F90000093019B0593009B06930A9B079305AA28
:104FA000032302990398FFF773FF00BF09B05DF870
:104FB00004FB00B58BB00390029101920093019B1A
:104FC0000593009B06930C9B07930D9B08930E9BE8
:104FD000099305AA052302990398FFF759FF00BF1B
:104FE0000BB05DF804FB00B58BB003900291019209
:104FF0000093019B0493009B05930C9B06930D9BD0
:1050000007930E9B08930F9B099304AA062302990A
:105010000398FFF73DFF00BF0BB05DF804FB0000F5
:10502000054B9A68044B5B689A420CBF012300232E
:10503000DBB21846704700BF3005002000B599B0BC
:10504000FFF7EEFF0346002B01D00023BBE19C4B92
:105050000022C3F81824BFF34F8F00BF984B9B6802
:105060000493984B1B681093049A109B13400233CF
:105070009B00934A13440433119300231793002396
:10508000169300230F9304AB19461198FFF73AFDCE
:105090000346002B19D08A4BD3F81834002B14D1B7
:1050A000874B5A68049B9A4205D8854B5B68844AB3
:1050B0009360002387E1049A109B134002339B0006
:1050C0007F4A134404331193DDE70023159311E065
:1050D000049B5A1C0492109A1340159A920001A93D
:1050E0000A44774902339B000B445B681360159BAD
:1050F00001331593159B012BEAD99DF8043003F079
:105100000303DBB2022B40F09E80BDF80630C3F3F0
:1051100089139BB20D93BDF80630C3F389139BB27C
:10512000B3F5967F28BF4FF496739BB20C930C9BFC
:10513000C3F309039AB2BDF8063062F38F13ADF8DA
:1051400006300C9B08330B939DF80430C3F3C20365
:10515000DBB20F930B995C48FFF78FF81790179B02
:10516000002B00F0D3801798FFF718F901A9169BC0
:1051700008221798FFF7CEF9169B08331693049B65
:10518000DA43109B134001339B000A930C9A0A9B4D
:105190009A4242D90A9B002B08D0049A109B1340D4
:1051A00002339B00464A1344043300E0474B089304
:1051B0000A9B002B02D00A9BDBB201E00C9BDBB206
:1051C0008DF81F300A9B002B01D0404B00E00023DC
:1051D00006930A9B002B06D00C9BDAB20A9BDBB22B
:1051E000D31ADBB200E000238DF817309DF81F20A2
:1051F000169B08991798FFF78DF99DF81F30169A9E
:1052000013441693069B002B16D09DF81720169B6F
:1052100006991798FFF77EF90EE0049A109B134049
:1052200002339B00264A134404330993169B0C9ABD
:1052300009991798FFF76EF90D9B03339A08049BA1
:105240001344049362E09DF8043003F00303DBB2DF
:10525000012B5BD1BDF80430C3F38313DBB2062B03
:1052600028BF0623DAB2BDF8043062F38913ADF823
:105270000430BDF80430C3F38313DBB202330E9362
:105280009DF80430C3F3C203DBB20F930E9B9B0067
:1052900019460D48FEF7F1FF1790179B002B35D0EC
:1052A0001798FFF77BF801A9169B08221798FFF7BC
:1052B00031F9169B08331693002315931DE000BFA8
:1052C0003005002014000020006300003C05002091
:1052D000049B5A1C0492109A134002339B003C4AD0
:1052E0001344191D169B04221798FFF713F9169BF8
:1052F00004331693159B01331593BDF80430C3F3A3
:105300008313DBB21A46159B9342E1D3179B002B04
:1053100039D02F4BD3F8103414932D4BD3F81834C5
:10532000002B1BD01798FFF748F846E000238DF8B4
:105330004F301498FFF722FB0346002B02D00123C5
:105340008DF84F309DF84F30002B03D017991498EB
:10535000FFF7D0FA149BDB681B681493149B002B97
:10536000E4D11798FFF729F80020FEF7B1F9184BA0
:10537000D3F81834002B02D1049B154A9360002007
:10538000FEF7BAF919E0124BD3F81034129306E085
:105390001298FFF7C9FA129BDB681B681293129BE5
:1053A000002BF5D10B4A0C4BD31ADB081B0443F03E
:1053B00002030A491846FFF7B3FDFFF731FE034623
:1053C00083F00103DBB2184619B05DF804FB00BF9F
:1053D00030050020D0620000A06200006877000065
:1053E00000B585B00023039323E0164BD3F81034A7
:1053F000029301238DF807300FE00298FFF7ADFA12
:1054000003461A46039B934203D100238DF80730CD
:1054100006E0029BDB681B680293029B002BECD129
:105420009DF80730002B01D0039B07E0039B01335D
:105430000393039B092BD8DD4FF0FF33184605B0CB
:105440005DF804FB3005002000B585B001900B46E7
:105450008DF80330FFF7C4FF0390039BB3F1FF3FC8
:1054600001D1039B22E0039BDBB219460198FFF7B1
:1054700067FA104BD3F81034002B08D10D4A019B6A
:10548000C2F81034019BDB6800221A600DE0094B62
:10549000D3F81034DA68019BDB6812681A60054B98
:1054A000D3F81034DB68019A1A60039B184605B0E4
:1054B0005DF804FB3005002000B583B00C4BD3F839
:1054C000103401930A4B01221A7009E00198FFF78A
:1054D0004CFA0198FFF71CFA019BDB681B680193EB
:1054E000019B002BF2D100BF00BF03B05DF804FBAD
:1054F0003005002082B00190009100BF02B07047DB
:1055000010B584B003900291039BDB88002B0AD076
:10551000039BDB881A461F4B009313461E4A1F4904
:105520000298FEF7F3FA039B1B7A052B2ED0039B00
:105530005B7A002B12D0039B9B881A46039B1B7A35
:1055400019461046FFF7A6FA03461A46144B53F8BD
:1055500022301A4613490298FEF7D8FA039B1B68BB
:1055600019460298FFF7C6FF039B1B7A1A460E4B9B
:1055700053F82240039B9B8800211846FFF76AFAE4
:105580000346224609490298FEF7C0FA00BF04B05C
:1055900010BD00BF9C770000AC770000E4770000EE
:1055A0002C000020FC77000018000020007800008C
:1055B00000B585B00390029113468DF80730039B28
:1055C0001B7A052B0FD0039B5B7A002B06D00D4B6B
:1055D0001B681A460C490298FEF798FA0B49029884
:1055E000FEF794FA07E09DF80730002B03D0074937
:1055F0000298FEF78BFA0298FEF766FA00BF05B034
:105600005DF804FB2C000020FC7700000C78000003
:1056100030B58BB007900691059204930E9B1B7BCF
:105620008DF827300E9B00221A730E990498FFF70D
:1056300067FF059B062B7FD801A252F823F000BF1D
:105640005D56000067560000775600008B5600003C
:10565000A9560000D15600000157000007990E9886
:10566000FEF754FA69E0069B1B681A4607990E98E4
:10567000FEF74CFA61E0069B1A68069B04331B6830
:1056800007990E98FEF742FA57E0069B1A68069BA8
:1056900004331968069B08331B6800930B4607996F
:1056A0000E98FEF733FA48E0069B1968069B043310
:1056B0001868069B08331B68069A0C321268019220
:1056C000009303460A4607990E98FEF71FFA34E046
:1056D000069B1868069B04331C68069B08331B68EE
:1056E000069A0C32126806991031096802910192EB
:1056F00000932346024607990E98FEF707FA1CE02E
:10570000069B1C68069B04331D68069B08331B68B8
:10571000069A0C32126806991031096806981430FE
:10572000006803900291019200932B46224607994C
:105730000E98FEF7EBF900E000BF00220E990498E6
:10574000FFF736FF0E9B9DF827201A7300BF0BB0A2
:1057500030BD00BF00B587B0039002910192009365
:10576000029B082B60D8009B1B7B8DF81330009B9D
:1057700000221A7300990198FFF7C2FE00230593D7
:1057800014E0059A029B9A4209D2039A059B13449E
:105790001B781A4626490098FEF7B8F903E0254918
:1057A0000098FEF7B3F9059B01330593059B072B82
:1057B000E7D921490098FEF7A9F90023059326E0CF
:1057C000059A029B9A421BD2039A059B13441B78AD
:1057D0008DF812309DF812307E2B0AD89DF81230C9
:1057E000184600F013FD0346002B02D09DF812303E
:1057F00000E02E231A4611490098FEF787F903E0CE
:105800000F490098FEF782F9059B01330593059B2C
:10581000072BD5D9012200990198FFF7C9FE009BFB
:105820009DF813201A7300E000BF07B05DF804FB79
:1058300010780000187800001C7800002078000024
:105840002478000082B0204B0193019B02221A6150
:10585000019B02225A61019B1C4A9A61019B1C4ACE
:10586000DA61019B4FF400721A62019B00229A6276
:10587000019B00225A62019B0022DA62019B134ABB
:105880009A64019B134ADA64019B10221A65019BFA
:1058900000229A65019B00225A65019B0022DA656D
:1058A000019B07330C4A10681860019B0B4A106873
:1058B00018609188927999809A71019B20229A713F
:1058C00000BF02B0704700BF5009002028780000D8
:1058D000C8090020C80B0020347800003878000088
:1058E00000B589B003900291019200230693039BB7
:1058F000DB680593039B1B690493049A059B9A42FA
:1059000005D9049A059BD31A013B079307E0039B33
:105910009A680499059BCB1A1344013B0793039B98
:105920009A68059BD31A079A934228BF1346079398
:10593000079A019B934228BF13460793039B5A681B
:10594000059B1344079A0299184600F011FC069A29
:10595000079B13440693029A079B13440293019AF0
:10596000079BD31A0193059A079B13440593039B46
:105970009B68059A9A4201D100230593039B059ADF
:10598000DA60019B002BB5D1069B184609B05DF883
:1059900004FB00B589B0039002910192039BDB6880
:1059A0000793039B9A68079BD31A0693069A019B59
:1059B0009A420ED9039B5A68079B1344019A029995
:1059C000184600F0D5FB079A019B1A44039BDA6046
:1059D0001AE0069B0593039B5A68079B1344059A9C
:1059E0000299184600F0C4FB019A069BD31A05934E
:1059F000039B5868029A069B1344059A194600F0C7
:105A0000B7FB039B059ADA6000BF09B05DF804FBA1
:105A100086B00190019B1B690493019BDB68039393
:105A2000049A039B9A4208D8019B9A68039BD21A56
:105A3000049B1344013B059304E0049A039BD31A8F
:105A4000013B0593059B184606B0704700B589B029
:105A5000039002910192029B0693039B5A1C1346EA
:105A60005B001344DB00204A13440593059B5B69EC
:105A7000022B29D0022B2ED8002B02D0012B13D0C1
:105A800029E00598FFF7C4FF0490049A019B9A420D
:105A900002D20023079321E0019B0793019A069904
:105AA0000598FFF776FF19E00598FFF7B1FF04901E
:105AB000019A049B934228BF13460793079A0699BD
:105AC0000598FFF766FF09E0019A06990598FFF728
:105AD00007FF079002E00023079300BF079B1846CB
